{
	"SupplyChain.sol": {
		"SupplyChain": {
			"abi": [
				{
					"inputs": [],
					"stateMutability": "payable",
					"type": "constructor"
				},
				{
					"anonymous": false,
					"inputs": [
						{
							"indexed": true,
							"internalType": "address",
							"name": "_account",
							"type": "address"
						}
					],
					"name": "FarmerAdded",
					"type": "event"
				},
				{
					"anonymous": false,
					"inputs": [
						{
							"indexed": true,
							"internalType": "address",
							"name": "previousOwner",
							"type": "address"
						},
						{
							"indexed": true,
							"internalType": "address",
							"name": "newOwner",
							"type": "address"
						}
					],
					"name": "OwnershipTransferred",
					"type": "event"
				},
				{
					"anonymous": false,
					"inputs": [
						{
							"indexed": false,
							"internalType": "uint256",
							"name": "uid",
							"type": "uint256"
						}
					],
					"name": "ProducedByFarmer",
					"type": "event"
				},
				{
					"inputs": [
						{
							"internalType": "address",
							"name": "_account",
							"type": "address"
						}
					],
					"name": "addFarmerRole",
					"outputs": [],
					"stateMutability": "nonpayable",
					"type": "function"
				},
				{
					"inputs": [
						{
							"internalType": "address",
							"name": "_account",
							"type": "address"
						}
					],
					"name": "hasFarmerRole",
					"outputs": [
						{
							"internalType": "bool",
							"name": "",
							"type": "bool"
						}
					],
					"stateMutability": "view",
					"type": "function"
				},
				{
					"inputs": [],
					"name": "owner",
					"outputs": [
						{
							"internalType": "address",
							"name": "",
							"type": "address"
						}
					],
					"stateMutability": "view",
					"type": "function"
				},
				{
					"inputs": [
						{
							"internalType": "string",
							"name": "farmerName",
							"type": "string"
						},
						{
							"internalType": "string",
							"name": "farmerAddress",
							"type": "string"
						},
						{
							"internalType": "string",
							"name": "productName",
							"type": "string"
						},
						{
							"internalType": "uint256",
							"name": "productPrice",
							"type": "uint256"
						},
						{
							"internalType": "uint256",
							"name": "productCode",
							"type": "uint256"
						}
					],
					"name": "produceProduct",
					"outputs": [],
					"stateMutability": "nonpayable",
					"type": "function"
				},
				{
					"inputs": [],
					"name": "renounceOwnership",
					"outputs": [],
					"stateMutability": "nonpayable",
					"type": "function"
				},
				{
					"inputs": [
						{
							"internalType": "address",
							"name": "newOwner",
							"type": "address"
						}
					],
					"name": "transferOwnership",
					"outputs": [],
					"stateMutability": "nonpayable",
					"type": "function"
				},
				{
					"inputs": [],
					"name": "uid",
					"outputs": [
						{
							"internalType": "uint256",
							"name": "",
							"type": "uint256"
						}
					],
					"stateMutability": "view",
					"type": "function"
				}
			],
			"devdoc": {
				"kind": "dev",
				"methods": {
					"owner()": {
						"details": "Returns the address of the current owner."
					},
					"produceProduct(string,string,string,uint256,uint256)": {
						"details": "STEP 1 : Produced a product."
					},
					"renounceOwnership()": {
						"details": "Leaves the contract without owner. It will not be possible to call `onlyOwner` functions anymore. Can only be called by the current owner. NOTE: Renouncing ownership will leave the contract without an owner, thereby removing any functionality that is only available to the owner."
					},
					"transferOwnership(address)": {
						"details": "Transfers ownership of the contract to a new account (`newOwner`). Can only be called by the current owner."
					}
				},
				"version": 1
			},
			"evm": {
				"assembly": "    /* \"SupplyChain.sol\":210:3347  contract SupplyChain is Ownable{\r... */\n  mstore(0x40, 0x80)\n    /* \"https://github.com/OpenZeppelin/openzeppelin-contracts/blob/master/contracts/access/Ownable.sol\":936:968  _transferOwnership(_msgSender()) */\n  tag_4\n    /* \"https://github.com/OpenZeppelin/openzeppelin-contracts/blob/master/contracts/access/Ownable.sol\":955:967  _msgSender() */\n  tag_5\n    /* \"https://github.com/OpenZeppelin/openzeppelin-contracts/blob/master/contracts/access/Ownable.sol\":955:965  _msgSender */\n  shl(0x20, tag_6)\n    /* \"https://github.com/OpenZeppelin/openzeppelin-contracts/blob/master/contracts/access/Ownable.sol\":955:967  _msgSender() */\n  0x20\n  shr\n  jump\t// in\ntag_5:\n    /* \"https://github.com/OpenZeppelin/openzeppelin-contracts/blob/master/contracts/access/Ownable.sol\":936:954  _transferOwnership */\n  shl(0x20, tag_7)\n    /* \"https://github.com/OpenZeppelin/openzeppelin-contracts/blob/master/contracts/access/Ownable.sol\":936:968  _transferOwnership(_msgSender()) */\n  0x20\n  shr\n  jump\t// in\ntag_4:\n    /* \"SupplyChain.sol\":528:529  1 */\n  0x01\n    /* \"SupplyChain.sol\":522:525  sku */\n  0x02\n    /* \"SupplyChain.sol\":522:529  sku = 1 */\n  dup2\n  swap1\n  sstore\n  pop\n    /* \"SupplyChain.sol\":546:547  1 */\n  0x01\n    /* \"SupplyChain.sol\":540:543  uid */\n  dup1\n    /* \"SupplyChain.sol\":540:547  uid = 1 */\n  dup2\n  swap1\n  sstore\n  pop\n    /* \"SupplyChain.sol\":210:3347  contract SupplyChain is Ownable{\r... */\n  jump(tag_9)\n    /* \"https://github.com/OpenZeppelin/openzeppelin-contracts/blob/master/contracts/utils/Context.sol\":640:736  function _msgSender() internal view virtual returns (address) {... */\ntag_6:\n    /* \"https://github.com/OpenZeppelin/openzeppelin-contracts/blob/master/contracts/utils/Context.sol\":693:700  address */\n  0x00\n    /* \"https://github.com/OpenZeppelin/openzeppelin-contracts/blob/master/contracts/utils/Context.sol\":719:729  msg.sender */\n  caller\n    /* \"https://github.com/OpenZeppelin/openzeppelin-contracts/blob/master/contracts/utils/Context.sol\":712:729  return msg.sender */\n  swap1\n  pop\n    /* \"https://github.com/OpenZeppelin/openzeppelin-contracts/blob/master/contracts/utils/Context.sol\":640:736  function _msgSender() internal view virtual returns (address) {... */\n  swap1\n  jump\t// out\n    /* \"https://github.com/OpenZeppelin/openzeppelin-contracts/blob/master/contracts/access/Ownable.sol\":2433:2620  function _transferOwnership(address newOwner) internal virtual {... */\ntag_7:\n    /* \"https://github.com/OpenZeppelin/openzeppelin-contracts/blob/master/contracts/access/Ownable.sol\":2506:2522  address oldOwner */\n  0x00\n    /* \"https://github.com/OpenZeppelin/openzeppelin-contracts/blob/master/contracts/access/Ownable.sol\":2525:2531  _owner */\n  dup1\n  0x00\n  swap1\n  sload\n  swap1\n  0x0100\n  exp\n  swap1\n  div\n  0xffffffffffffffffffffffffffffffffffffffff\n  and\n    /* \"https://github.com/OpenZeppelin/openzeppelin-contracts/blob/master/contracts/access/Ownable.sol\":2506:2531  address oldOwner = _owner */\n  swap1\n  pop\n    /* \"https://github.com/OpenZeppelin/openzeppelin-contracts/blob/master/contracts/access/Ownable.sol\":2550:2558  newOwner */\n  dup2\n    /* \"https://github.com/OpenZeppelin/openzeppelin-contracts/blob/master/contracts/access/Ownable.sol\":2541:2547  _owner */\n  0x00\n  dup1\n    /* \"https://github.com/OpenZeppelin/openzeppelin-contracts/blob/master/contracts/access/Ownable.sol\":2541:2558  _owner = newOwner */\n  0x0100\n  exp\n  dup2\n  sload\n  dup2\n  0xffffffffffffffffffffffffffffffffffffffff\n  mul\n  not\n  and\n  swap1\n  dup4\n  0xffffffffffffffffffffffffffffffffffffffff\n  and\n  mul\n  or\n  swap1\n  sstore\n  pop\n    /* \"https://github.com/OpenZeppelin/openzeppelin-contracts/blob/master/contracts/access/Ownable.sol\":2604:2612  newOwner */\n  dup2\n    /* \"https://github.com/OpenZeppelin/openzeppelin-contracts/blob/master/contracts/access/Ownable.sol\":2573:2613  OwnershipTransferred(oldOwner, newOwner) */\n  0xffffffffffffffffffffffffffffffffffffffff\n  and\n    /* \"https://github.com/OpenZeppelin/openzeppelin-contracts/blob/master/contracts/access/Ownable.sol\":2594:2602  oldOwner */\n  dup2\n    /* \"https://github.com/OpenZeppelin/openzeppelin-contracts/blob/master/contracts/access/Ownable.sol\":2573:2613  OwnershipTransferred(oldOwner, newOwner) */\n  0xffffffffffffffffffffffffffffffffffffffff\n  and\n  0x8be0079c531659141344cd1fd0a4f28419497f9722a3daafe3b4186f6b6457e0\n  mload(0x40)\n  mload(0x40)\n  dup1\n  swap2\n  sub\n  swap1\n  log3\n    /* \"https://github.com/OpenZeppelin/openzeppelin-contracts/blob/master/contracts/access/Ownable.sol\":2496:2620  {... */\n  pop\n    /* \"https://github.com/OpenZeppelin/openzeppelin-contracts/blob/master/contracts/access/Ownable.sol\":2433:2620  function _transferOwnership(address newOwner) internal virtual {... */\n  pop\n  jump\t// out\n    /* \"SupplyChain.sol\":210:3347  contract SupplyChain is Ownable{\r... */\ntag_9:\n  dataSize(sub_0)\n  dup1\n  dataOffset(sub_0)\n  0x00\n  codecopy\n  0x00\n  return\nstop\n\nsub_0: assembly {\n        /* \"SupplyChain.sol\":210:3347  contract SupplyChain is Ownable{\r... */\n      mstore(0x40, 0x80)\n      callvalue\n      dup1\n      iszero\n      tag_1\n      jumpi\n      0x00\n      dup1\n      revert\n    tag_1:\n      pop\n      jumpi(tag_2, lt(calldatasize, 0x04))\n      shr(0xe0, calldataload(0x00))\n      dup1\n      0xf2fde38b\n      gt\n      tag_10\n      jumpi\n      dup1\n      0xf2fde38b\n      eq\n      tag_6\n      jumpi\n      dup1\n      0xf514ce36\n      eq\n      tag_7\n      jumpi\n      dup1\n      0xf61104b8\n      eq\n      tag_8\n      jumpi\n      dup1\n      0xfcec18bf\n      eq\n      tag_9\n      jumpi\n      jump(tag_2)\n    tag_10:\n      dup1\n      0x715018a6\n      eq\n      tag_3\n      jumpi\n      dup1\n      0x8da5cb5b\n      eq\n      tag_4\n      jumpi\n      dup1\n      0xbddf0d16\n      eq\n      tag_5\n      jumpi\n    tag_2:\n      0x00\n      dup1\n      revert\n        /* \"https://github.com/OpenZeppelin/openzeppelin-contracts/blob/master/contracts/access/Ownable.sol\":1831:1932  function renounceOwnership() public virtual onlyOwner {... */\n    tag_3:\n      tag_11\n      tag_12\n      jump\t// in\n    tag_11:\n      stop\n        /* \"https://github.com/OpenZeppelin/openzeppelin-contracts/blob/master/contracts/access/Ownable.sol\":1201:1286  function owner() public view virtual returns (address) {... */\n    tag_4:\n      tag_13\n      tag_14\n      jump\t// in\n    tag_13:\n      mload(0x40)\n      tag_15\n      swap2\n      swap1\n      tag_16\n      jump\t// in\n    tag_15:\n      mload(0x40)\n      dup1\n      swap2\n      sub\n      swap1\n      return\n        /* \"SupplyChain.sol\":2456:3344  function produceProduct(\r... */\n    tag_5:\n      tag_17\n      0x04\n      dup1\n      calldatasize\n      sub\n      dup2\n      add\n      swap1\n      tag_18\n      swap2\n      swap1\n      tag_19\n      jump\t// in\n    tag_18:\n      tag_20\n      jump\t// in\n    tag_17:\n      stop\n        /* \"https://github.com/OpenZeppelin/openzeppelin-contracts/blob/master/contracts/access/Ownable.sol\":2081:2279  function transferOwnership(address newOwner) public virtual onlyOwner {... */\n    tag_6:\n      tag_21\n      0x04\n      dup1\n      calldatasize\n      sub\n      dup2\n      add\n      swap1\n      tag_22\n      swap2\n      swap1\n      tag_23\n      jump\t// in\n    tag_22:\n      tag_24\n      jump\t// in\n    tag_21:\n      stop\n        /* \"SupplyChain.sol\":268:286  uint256 public uid */\n    tag_7:\n      tag_25\n      tag_26\n      jump\t// in\n    tag_25:\n      mload(0x40)\n      tag_27\n      swap2\n      swap1\n      tag_28\n      jump\t// in\n    tag_27:\n      mload(0x40)\n      dup1\n      swap2\n      sub\n      swap1\n      return\n        /* \"SupplyChain.sol\":834:1055  function addFarmerRole(address _account) public {\r... */\n    tag_8:\n      tag_29\n      0x04\n      dup1\n      calldatasize\n      sub\n      dup2\n      add\n      swap1\n      tag_30\n      swap2\n      swap1\n      tag_23\n      jump\t// in\n    tag_30:\n      tag_31\n      jump\t// in\n    tag_29:\n      stop\n        /* \"SupplyChain.sol\":668:826  function hasFarmerRole(address _account) public view returns (bool) {\r... */\n    tag_9:\n      tag_32\n      0x04\n      dup1\n      calldatasize\n      sub\n      dup2\n      add\n      swap1\n      tag_33\n      swap2\n      swap1\n      tag_23\n      jump\t// in\n    tag_33:\n      tag_34\n      jump\t// in\n    tag_32:\n      mload(0x40)\n      tag_35\n      swap2\n      swap1\n      tag_36\n      jump\t// in\n    tag_35:\n      mload(0x40)\n      dup1\n      swap2\n      sub\n      swap1\n      return\n        /* \"https://github.com/OpenZeppelin/openzeppelin-contracts/blob/master/contracts/access/Ownable.sol\":1831:1932  function renounceOwnership() public virtual onlyOwner {... */\n    tag_12:\n        /* \"https://github.com/OpenZeppelin/openzeppelin-contracts/blob/master/contracts/access/Ownable.sol\":1094:1107  _checkOwner() */\n      tag_38\n        /* \"https://github.com/OpenZeppelin/openzeppelin-contracts/blob/master/contracts/access/Ownable.sol\":1094:1105  _checkOwner */\n      tag_39\n        /* \"https://github.com/OpenZeppelin/openzeppelin-contracts/blob/master/contracts/access/Ownable.sol\":1094:1107  _checkOwner() */\n      jump\t// in\n    tag_38:\n        /* \"https://github.com/OpenZeppelin/openzeppelin-contracts/blob/master/contracts/access/Ownable.sol\":1895:1925  _transferOwnership(address(0)) */\n      tag_41\n        /* \"https://github.com/OpenZeppelin/openzeppelin-contracts/blob/master/contracts/access/Ownable.sol\":1922:1923  0 */\n      0x00\n        /* \"https://github.com/OpenZeppelin/openzeppelin-contracts/blob/master/contracts/access/Ownable.sol\":1895:1913  _transferOwnership */\n      tag_42\n        /* \"https://github.com/OpenZeppelin/openzeppelin-contracts/blob/master/contracts/access/Ownable.sol\":1895:1925  _transferOwnership(address(0)) */\n      jump\t// in\n    tag_41:\n        /* \"https://github.com/OpenZeppelin/openzeppelin-contracts/blob/master/contracts/access/Ownable.sol\":1831:1932  function renounceOwnership() public virtual onlyOwner {... */\n      jump\t// out\n        /* \"https://github.com/OpenZeppelin/openzeppelin-contracts/blob/master/contracts/access/Ownable.sol\":1201:1286  function owner() public view virtual returns (address) {... */\n    tag_14:\n        /* \"https://github.com/OpenZeppelin/openzeppelin-contracts/blob/master/contracts/access/Ownable.sol\":1247:1254  address */\n      0x00\n        /* \"https://github.com/OpenZeppelin/openzeppelin-contracts/blob/master/contracts/access/Ownable.sol\":1273:1279  _owner */\n      dup1\n      0x00\n      swap1\n      sload\n      swap1\n      0x0100\n      exp\n      swap1\n      div\n      0xffffffffffffffffffffffffffffffffffffffff\n      and\n        /* \"https://github.com/OpenZeppelin/openzeppelin-contracts/blob/master/contracts/access/Ownable.sol\":1266:1279  return _owner */\n      swap1\n      pop\n        /* \"https://github.com/OpenZeppelin/openzeppelin-contracts/blob/master/contracts/access/Ownable.sol\":1201:1286  function owner() public view virtual returns (address) {... */\n      swap1\n      jump\t// out\n        /* \"SupplyChain.sol\":2456:3344  function produceProduct(\r... */\n    tag_20:\n        /* \"SupplyChain.sol\":2682:2707  hasFarmerRole(msg.sender) */\n      tag_45\n        /* \"SupplyChain.sol\":2696:2706  msg.sender */\n      caller\n        /* \"SupplyChain.sol\":2682:2695  hasFarmerRole */\n      tag_34\n        /* \"SupplyChain.sol\":2682:2707  hasFarmerRole(msg.sender) */\n      jump\t// in\n    tag_45:\n        /* \"SupplyChain.sol\":2674:2708  require(hasFarmerRole(msg.sender)) */\n      tag_46\n      jumpi\n      0x00\n      dup1\n      revert\n    tag_46:\n        /* \"SupplyChain.sol\":2719:2751  Structure.Product memory product */\n      tag_47\n      tag_48\n      jump\t// in\n    tag_47:\n        /* \"SupplyChain.sol\":2774:2777  sku */\n      sload(0x02)\n        /* \"SupplyChain.sol\":2762:2769  product */\n      dup2\n        /* \"SupplyChain.sol\":2762:2773  product.sku */\n      0x20\n      add\n        /* \"SupplyChain.sol\":2762:2777  product.sku=sku */\n      dup2\n      dup2\n      mstore\n      pop\n      pop\n        /* \"SupplyChain.sol\":2800:2803  uid */\n      sload(0x01)\n        /* \"SupplyChain.sol\":2788:2795  product */\n      dup2\n        /* \"SupplyChain.sol\":2788:2799  product.uid */\n      0x00\n      add\n        /* \"SupplyChain.sol\":2788:2803  product.uid=uid */\n      dup2\n      dup2\n      mstore\n      pop\n      pop\n        /* \"SupplyChain.sol\":2828:2838  msg.sender */\n      caller\n        /* \"SupplyChain.sol\":2814:2821  product */\n      dup2\n        /* \"SupplyChain.sol\":2814:2827  product.owner */\n      0x40\n      add\n        /* \"SupplyChain.sol\":2814:2838  product.owner=msg.sender */\n      swap1\n      0xffffffffffffffffffffffffffffffffffffffff\n      and\n      swap1\n      dup2\n      0xffffffffffffffffffffffffffffffffffffffff\n      and\n      dup2\n      mstore\n      pop\n      pop\n        /* \"SupplyChain.sol\":2871:2881  msg.sender */\n      caller\n        /* \"SupplyChain.sol\":2849:2856  product */\n      dup2\n        /* \"SupplyChain.sol\":2849:2863  product.farmer */\n      0xa0\n      add\n      mload\n        /* \"SupplyChain.sol\":2849:2870  product.farmer.farmer */\n      0x00\n      add\n        /* \"SupplyChain.sol\":2849:2881  product.farmer.farmer=msg.sender */\n      swap1\n      0xffffffffffffffffffffffffffffffffffffffff\n      and\n      swap1\n      dup2\n      0xffffffffffffffffffffffffffffffffffffffff\n      and\n      dup2\n      mstore\n      pop\n      pop\n        /* \"SupplyChain.sol\":2918:2928  farmerName */\n      dup6\n        /* \"SupplyChain.sol\":2892:2899  product */\n      dup2\n        /* \"SupplyChain.sol\":2892:2906  product.farmer */\n      0xa0\n      add\n      mload\n        /* \"SupplyChain.sol\":2892:2917  product.farmer.farmerName */\n      0x20\n      add\n        /* \"SupplyChain.sol\":2892:2928  product.farmer.farmerName=farmerName */\n      dup2\n      swap1\n      mstore\n      pop\n        /* \"SupplyChain.sol\":2968:2981  farmerAddress */\n      dup5\n        /* \"SupplyChain.sol\":2939:2946  product */\n      dup2\n        /* \"SupplyChain.sol\":2939:2953  product.farmer */\n      0xa0\n      add\n      mload\n        /* \"SupplyChain.sol\":2939:2967  product.farmer.farmerAddress */\n      0x40\n      add\n        /* \"SupplyChain.sol\":2939:2981  product.farmer.farmerAddress=farmerAddress */\n      dup2\n      swap1\n      mstore\n      pop\n        /* \"SupplyChain.sol\":3002:3031  initEmptyProductInfo(product) */\n      tag_49\n        /* \"SupplyChain.sol\":3023:3030  product */\n      dup2\n        /* \"SupplyChain.sol\":3002:3022  initEmptyProductInfo */\n      tag_50\n        /* \"SupplyChain.sol\":3002:3031  initEmptyProductInfo(product) */\n      jump\t// in\n    tag_49:\n        /* \"SupplyChain.sol\":3042:3109  setProductDetailInfo(product, productName,productPrice,productCode) */\n      tag_51\n        /* \"SupplyChain.sol\":3063:3070  product */\n      dup2\n        /* \"SupplyChain.sol\":3072:3083  productName */\n      dup6\n        /* \"SupplyChain.sol\":3084:3096  productPrice */\n      dup6\n        /* \"SupplyChain.sol\":3097:3108  productCode */\n      dup6\n        /* \"SupplyChain.sol\":3042:3062  setProductDetailInfo */\n      tag_52\n        /* \"SupplyChain.sol\":3042:3109  setProductDetailInfo(product, productName,productPrice,productCode) */\n      jump\t// in\n    tag_51:\n        /* \"SupplyChain.sol\":3143:3175  Structure.State.ProducedByFarmer */\n      0x00\n        /* \"SupplyChain.sol\":3122:3129  product */\n      dup2\n        /* \"SupplyChain.sol\":3122:3142  product.productState */\n      0x60\n      add\n        /* \"SupplyChain.sol\":3122:3175  product.productState=Structure.State.ProducedByFarmer */\n      swap1\n      0x02\n      dup2\n      gt\n      iszero\n      tag_53\n      jumpi\n      tag_54\n      tag_55\n      jump\t// in\n    tag_54:\n    tag_53:\n      swap1\n      dup2\n      0x02\n      dup2\n      gt\n      iszero\n      tag_56\n      jumpi\n      tag_57\n      tag_55\n      jump\t// in\n    tag_57:\n    tag_56:\n      dup2\n      mstore\n      pop\n      pop\n        /* \"SupplyChain.sol\":3202:3209  product */\n      dup1\n        /* \"SupplyChain.sol\":3186:3194  products */\n      0x03\n        /* \"SupplyChain.sol\":3186:3199  products[uid] */\n      0x00\n        /* \"SupplyChain.sol\":3195:3198  uid */\n      sload(0x01)\n        /* \"SupplyChain.sol\":3186:3199  products[uid] */\n      dup2\n      mstore\n      0x20\n      add\n      swap1\n      dup2\n      mstore\n      0x20\n      add\n      0x00\n      keccak256\n        /* \"SupplyChain.sol\":3186:3209  products[uid] = product */\n      0x00\n      dup3\n      add\n      mload\n      dup2\n      0x00\n      add\n      sstore\n      0x20\n      dup3\n      add\n      mload\n      dup2\n      0x01\n      add\n      sstore\n      0x40\n      dup3\n      add\n      mload\n      dup2\n      0x02\n      add\n      exp(0x0100, 0x00)\n      dup2\n      sload\n      dup2\n      0xffffffffffffffffffffffffffffffffffffffff\n      mul\n      not\n      and\n      swap1\n      dup4\n      0xffffffffffffffffffffffffffffffffffffffff\n      and\n      mul\n      or\n      swap1\n      sstore\n      pop\n      0x60\n      dup3\n      add\n      mload\n      dup2\n      0x02\n      add\n      exp(0x0100, 0x14)\n      dup2\n      sload\n      dup2\n      0xff\n      mul\n      not\n      and\n      swap1\n      dup4\n      0x02\n      dup2\n      gt\n      iszero\n      tag_58\n      jumpi\n      tag_59\n      tag_55\n      jump\t// in\n    tag_59:\n    tag_58:\n      mul\n      or\n      swap1\n      sstore\n      pop\n      0x80\n      dup3\n      add\n      mload\n      dup2\n      0x03\n      add\n      0x00\n      dup3\n      add\n      mload\n      dup2\n      0x00\n      add\n      swap1\n      dup1\n      mload\n      swap1\n      0x20\n      add\n      swap1\n      tag_60\n      swap3\n      swap2\n      swap1\n      tag_61\n      jump\t// in\n    tag_60:\n      pop\n      0x20\n      dup3\n      add\n      mload\n      dup2\n      0x01\n      add\n      sstore\n      0x40\n      dup3\n      add\n      mload\n      dup2\n      0x02\n      add\n      sstore\n      pop\n      pop\n      0xa0\n      dup3\n      add\n      mload\n      dup2\n      0x06\n      add\n      0x00\n      dup3\n      add\n      mload\n      dup2\n      0x00\n      add\n      exp(0x0100, 0x00)\n      dup2\n      sload\n      dup2\n      0xffffffffffffffffffffffffffffffffffffffff\n      mul\n      not\n      and\n      swap1\n      dup4\n      0xffffffffffffffffffffffffffffffffffffffff\n      and\n      mul\n      or\n      swap1\n      sstore\n      pop\n      0x20\n      dup3\n      add\n      mload\n      dup2\n      0x01\n      add\n      swap1\n      dup1\n      mload\n      swap1\n      0x20\n      add\n      swap1\n      tag_62\n      swap3\n      swap2\n      swap1\n      tag_61\n      jump\t// in\n    tag_62:\n      pop\n      0x40\n      dup3\n      add\n      mload\n      dup2\n      0x02\n      add\n      swap1\n      dup1\n      mload\n      swap1\n      0x20\n      add\n      swap1\n      tag_63\n      swap3\n      swap2\n      swap1\n      tag_61\n      jump\t// in\n    tag_63:\n      pop\n      pop\n      pop\n      0xc0\n      dup3\n      add\n      mload\n      dup2\n      0x09\n      add\n      0x00\n      dup3\n      add\n      mload\n      dup2\n      0x00\n      add\n      exp(0x0100, 0x00)\n      dup2\n      sload\n      dup2\n      0xffffffffffffffffffffffffffffffffffffffff\n      mul\n      not\n      and\n      swap1\n      dup4\n      0xffffffffffffffffffffffffffffffffffffffff\n      and\n      mul\n      or\n      swap1\n      sstore\n      pop\n      pop\n      pop\n      0xe0\n      dup3\n      add\n      mload\n      dup2\n      0x0a\n      add\n      0x00\n      dup3\n      add\n      mload\n      dup2\n      0x00\n      add\n      exp(0x0100, 0x00)\n      dup2\n      sload\n      dup2\n      0xffffffffffffffffffffffffffffffffffffffff\n      mul\n      not\n      and\n      swap1\n      dup4\n      0xffffffffffffffffffffffffffffffffffffffff\n      and\n      mul\n      or\n      swap1\n      sstore\n      pop\n      pop\n      pop\n      0x0100\n      dup3\n      add\n      mload\n      dup2\n      0x0b\n      add\n      0x00\n      dup3\n      add\n      mload\n      dup2\n      0x00\n      add\n      exp(0x0100, 0x00)\n      dup2\n      sload\n      dup2\n      0xffffffffffffffffffffffffffffffffffffffff\n      mul\n      not\n      and\n      swap1\n      dup4\n      0xffffffffffffffffffffffffffffffffffffffff\n      and\n      mul\n      or\n      swap1\n      sstore\n      pop\n      pop\n      pop\n      0x0120\n      dup3\n      add\n      mload\n      dup2\n      0x0c\n      add\n      swap1\n      dup1\n      mload\n      swap1\n      0x20\n      add\n      swap1\n      tag_64\n      swap3\n      swap2\n      swap1\n      tag_61\n      jump\t// in\n    tag_64:\n      pop\n      swap1\n      pop\n      pop\n        /* \"SupplyChain.sol\":3220:3234  productHistory */\n      0x04\n        /* \"SupplyChain.sol\":3220:3239  productHistory[uid] */\n      0x00\n        /* \"SupplyChain.sol\":3235:3238  uid */\n      sload(0x01)\n        /* \"SupplyChain.sol\":3220:3239  productHistory[uid] */\n      dup2\n      mstore\n      0x20\n      add\n      swap1\n      dup2\n      mstore\n      0x20\n      add\n      0x00\n      keccak256\n        /* \"SupplyChain.sol\":3220:3247  productHistory[uid].history */\n      0x00\n      add\n        /* \"SupplyChain.sol\":3253:3260  product */\n      dup2\n        /* \"SupplyChain.sol\":3220:3261  productHistory[uid].history.push(product) */\n      swap1\n      dup1\n      0x01\n      dup2\n      sload\n      add\n      dup1\n      dup3\n      sstore\n      dup1\n      swap2\n      pop\n      pop\n      0x01\n      swap1\n      sub\n      swap1\n      0x00\n      mstore\n      keccak256(0x00, 0x20)\n      swap1\n      0x0d\n      mul\n      add\n      0x00\n      swap1\n      swap2\n      swap1\n      swap2\n      swap1\n      swap2\n      pop\n      0x00\n      dup3\n      add\n      mload\n      dup2\n      0x00\n      add\n      sstore\n      0x20\n      dup3\n      add\n      mload\n      dup2\n      0x01\n      add\n      sstore\n      0x40\n      dup3\n      add\n      mload\n      dup2\n      0x02\n      add\n      exp(0x0100, 0x00)\n      dup2\n      sload\n      dup2\n      0xffffffffffffffffffffffffffffffffffffffff\n      mul\n      not\n      and\n      swap1\n      dup4\n      0xffffffffffffffffffffffffffffffffffffffff\n      and\n      mul\n      or\n      swap1\n      sstore\n      pop\n      0x60\n      dup3\n      add\n      mload\n      dup2\n      0x02\n      add\n      exp(0x0100, 0x14)\n      dup2\n      sload\n      dup2\n      0xff\n      mul\n      not\n      and\n      swap1\n      dup4\n      0x02\n      dup2\n      gt\n      iszero\n      tag_66\n      jumpi\n      tag_67\n      tag_55\n      jump\t// in\n    tag_67:\n    tag_66:\n      mul\n      or\n      swap1\n      sstore\n      pop\n      0x80\n      dup3\n      add\n      mload\n      dup2\n      0x03\n      add\n      0x00\n      dup3\n      add\n      mload\n      dup2\n      0x00\n      add\n      swap1\n      dup1\n      mload\n      swap1\n      0x20\n      add\n      swap1\n      tag_68\n      swap3\n      swap2\n      swap1\n      tag_61\n      jump\t// in\n    tag_68:\n      pop\n      0x20\n      dup3\n      add\n      mload\n      dup2\n      0x01\n      add\n      sstore\n      0x40\n      dup3\n      add\n      mload\n      dup2\n      0x02\n      add\n      sstore\n      pop\n      pop\n      0xa0\n      dup3\n      add\n      mload\n      dup2\n      0x06\n      add\n      0x00\n      dup3\n      add\n      mload\n      dup2\n      0x00\n      add\n      exp(0x0100, 0x00)\n      dup2\n      sload\n      dup2\n      0xffffffffffffffffffffffffffffffffffffffff\n      mul\n      not\n      and\n      swap1\n      dup4\n      0xffffffffffffffffffffffffffffffffffffffff\n      and\n      mul\n      or\n      swap1\n      sstore\n      pop\n      0x20\n      dup3\n      add\n      mload\n      dup2\n      0x01\n      add\n      swap1\n      dup1\n      mload\n      swap1\n      0x20\n      add\n      swap1\n      tag_69\n      swap3\n      swap2\n      swap1\n      tag_61\n      jump\t// in\n    tag_69:\n      pop\n      0x40\n      dup3\n      add\n      mload\n      dup2\n      0x02\n      add\n      swap1\n      dup1\n      mload\n      swap1\n      0x20\n      add\n      swap1\n      tag_70\n      swap3\n      swap2\n      swap1\n      tag_61\n      jump\t// in\n    tag_70:\n      pop\n      pop\n      pop\n      0xc0\n      dup3\n      add\n      mload\n      dup2\n      0x09\n      add\n      0x00\n      dup3\n      add\n      mload\n      dup2\n      0x00\n      add\n      exp(0x0100, 0x00)\n      dup2\n      sload\n      dup2\n      0xffffffffffffffffffffffffffffffffffffffff\n      mul\n      not\n      and\n      swap1\n      dup4\n      0xffffffffffffffffffffffffffffffffffffffff\n      and\n      mul\n      or\n      swap1\n      sstore\n      pop\n      pop\n      pop\n      0xe0\n      dup3\n      add\n      mload\n      dup2\n      0x0a\n      add\n      0x00\n      dup3\n      add\n      mload\n      dup2\n      0x00\n      add\n      exp(0x0100, 0x00)\n      dup2\n      sload\n      dup2\n      0xffffffffffffffffffffffffffffffffffffffff\n      mul\n      not\n      and\n      swap1\n      dup4\n      0xffffffffffffffffffffffffffffffffffffffff\n      and\n      mul\n      or\n      swap1\n      sstore\n      pop\n      pop\n      pop\n      0x0100\n      dup3\n      add\n      mload\n      dup2\n      0x0b\n      add\n      0x00\n      dup3\n      add\n      mload\n      dup2\n      0x00\n      add\n      exp(0x0100, 0x00)\n      dup2\n      sload\n      dup2\n      0xffffffffffffffffffffffffffffffffffffffff\n      mul\n      not\n      and\n      swap1\n      dup4\n      0xffffffffffffffffffffffffffffffffffffffff\n      and\n      mul\n      or\n      swap1\n      sstore\n      pop\n      pop\n      pop\n      0x0120\n      dup3\n      add\n      mload\n      dup2\n      0x0c\n      add\n      swap1\n      dup1\n      mload\n      swap1\n      0x20\n      add\n      swap1\n      tag_71\n      swap3\n      swap2\n      swap1\n      tag_61\n      jump\t// in\n    tag_71:\n      pop\n      pop\n      pop\n        /* \"SupplyChain.sol\":3274:3277  sku */\n      0x02\n      0x00\n        /* \"SupplyChain.sol\":3274:3279  sku++ */\n      dup2\n      sload\n      dup1\n      swap3\n      swap2\n      swap1\n      tag_72\n      swap1\n      tag_73\n      jump\t// in\n    tag_72:\n      swap2\n      swap1\n      pop\n      sstore\n      pop\n        /* \"SupplyChain.sol\":3290:3293  uid */\n      0x01\n      0x00\n        /* \"SupplyChain.sol\":3290:3295  uid++ */\n      dup2\n      sload\n      dup1\n      swap3\n      swap2\n      swap1\n      tag_74\n      swap1\n      tag_73\n      jump\t// in\n    tag_74:\n      swap2\n      swap1\n      pop\n      sstore\n      pop\n        /* \"SupplyChain.sol\":3313:3336  ProducedByFarmer(uid-1) */\n      0xb55ecf2eb9ce3c54a45708010da84a35a897635e97a936f98c9804c5847b4d22\n        /* \"SupplyChain.sol\":3334:3335  1 */\n      0x01\n        /* \"SupplyChain.sol\":3330:3333  uid */\n      dup1\n      sload\n        /* \"SupplyChain.sol\":3330:3335  uid-1 */\n      tag_75\n      swap2\n      swap1\n      tag_76\n      jump\t// in\n    tag_75:\n        /* \"SupplyChain.sol\":3313:3336  ProducedByFarmer(uid-1) */\n      mload(0x40)\n      tag_77\n      swap2\n      swap1\n      tag_28\n      jump\t// in\n    tag_77:\n      mload(0x40)\n      dup1\n      swap2\n      sub\n      swap1\n      log1\n        /* \"SupplyChain.sol\":2663:3344  {\r... */\n      pop\n        /* \"SupplyChain.sol\":2456:3344  function produceProduct(\r... */\n      pop\n      pop\n      pop\n      pop\n      pop\n      jump\t// out\n        /* \"https://github.com/OpenZeppelin/openzeppelin-contracts/blob/master/contracts/access/Ownable.sol\":2081:2279  function transferOwnership(address newOwner) public virtual onlyOwner {... */\n    tag_24:\n        /* \"https://github.com/OpenZeppelin/openzeppelin-contracts/blob/master/contracts/access/Ownable.sol\":1094:1107  _checkOwner() */\n      tag_79\n        /* \"https://github.com/OpenZeppelin/openzeppelin-contracts/blob/master/contracts/access/Ownable.sol\":1094:1105  _checkOwner */\n      tag_39\n        /* \"https://github.com/OpenZeppelin/openzeppelin-contracts/blob/master/contracts/access/Ownable.sol\":1094:1107  _checkOwner() */\n      jump\t// in\n    tag_79:\n        /* \"https://github.com/OpenZeppelin/openzeppelin-contracts/blob/master/contracts/access/Ownable.sol\":2189:2190  0 */\n      0x00\n        /* \"https://github.com/OpenZeppelin/openzeppelin-contracts/blob/master/contracts/access/Ownable.sol\":2169:2191  newOwner != address(0) */\n      0xffffffffffffffffffffffffffffffffffffffff\n      and\n        /* \"https://github.com/OpenZeppelin/openzeppelin-contracts/blob/master/contracts/access/Ownable.sol\":2169:2177  newOwner */\n      dup2\n        /* \"https://github.com/OpenZeppelin/openzeppelin-contracts/blob/master/contracts/access/Ownable.sol\":2169:2191  newOwner != address(0) */\n      0xffffffffffffffffffffffffffffffffffffffff\n      and\n      eq\n      iszero\n        /* \"https://github.com/OpenZeppelin/openzeppelin-contracts/blob/master/contracts/access/Ownable.sol\":2161:2234  require(newOwner != address(0), \"Ownable: new owner is the zero address\") */\n      tag_81\n      jumpi\n      mload(0x40)\n      0x08c379a000000000000000000000000000000000000000000000000000000000\n      dup2\n      mstore\n      0x04\n      add\n      tag_82\n      swap1\n      tag_83\n      jump\t// in\n    tag_82:\n      mload(0x40)\n      dup1\n      swap2\n      sub\n      swap1\n      revert\n    tag_81:\n        /* \"https://github.com/OpenZeppelin/openzeppelin-contracts/blob/master/contracts/access/Ownable.sol\":2244:2272  _transferOwnership(newOwner) */\n      tag_84\n        /* \"https://github.com/OpenZeppelin/openzeppelin-contracts/blob/master/contracts/access/Ownable.sol\":2263:2271  newOwner */\n      dup2\n        /* \"https://github.com/OpenZeppelin/openzeppelin-contracts/blob/master/contracts/access/Ownable.sol\":2244:2262  _transferOwnership */\n      tag_42\n        /* \"https://github.com/OpenZeppelin/openzeppelin-contracts/blob/master/contracts/access/Ownable.sol\":2244:2272  _transferOwnership(newOwner) */\n      jump\t// in\n    tag_84:\n        /* \"https://github.com/OpenZeppelin/openzeppelin-contracts/blob/master/contracts/access/Ownable.sol\":2081:2279  function transferOwnership(address newOwner) public virtual onlyOwner {... */\n      pop\n      jump\t// out\n        /* \"SupplyChain.sol\":268:286  uint256 public uid */\n    tag_26:\n      sload(0x01)\n      dup2\n      jump\t// out\n        /* \"SupplyChain.sol\":834:1055  function addFarmerRole(address _account) public {\r... */\n    tag_31:\n        /* \"SupplyChain.sol\":921:922  0 */\n      0x00\n        /* \"SupplyChain.sol\":901:923  _account != address(0) */\n      0xffffffffffffffffffffffffffffffffffffffff\n      and\n        /* \"SupplyChain.sol\":901:909  _account */\n      dup2\n        /* \"SupplyChain.sol\":901:923  _account != address(0) */\n      0xffffffffffffffffffffffffffffffffffffffff\n      and\n      eq\n      iszero\n        /* \"SupplyChain.sol\":893:924  require(_account != address(0)) */\n      tag_86\n      jumpi\n      0x00\n      dup1\n      revert\n    tag_86:\n        /* \"SupplyChain.sol\":944:967  hasFarmerRole(_account) */\n      tag_87\n        /* \"SupplyChain.sol\":958:966  _account */\n      dup2\n        /* \"SupplyChain.sol\":944:957  hasFarmerRole */\n      tag_34\n        /* \"SupplyChain.sol\":944:967  hasFarmerRole(_account) */\n      jump\t// in\n    tag_87:\n        /* \"SupplyChain.sol\":943:967  !hasFarmerRole(_account) */\n      iszero\n        /* \"SupplyChain.sol\":935:968  require(!hasFarmerRole(_account)) */\n      tag_88\n      jumpi\n      0x00\n      dup1\n      revert\n    tag_88:\n        /* \"SupplyChain.sol\":1006:1010  true */\n      0x01\n        /* \"SupplyChain.sol\":981:986  roles */\n      0x05\n        /* \"SupplyChain.sol\":981:996  roles[_account] */\n      0x00\n        /* \"SupplyChain.sol\":987:995  _account */\n      dup4\n        /* \"SupplyChain.sol\":981:996  roles[_account] */\n      0xffffffffffffffffffffffffffffffffffffffff\n      and\n      0xffffffffffffffffffffffffffffffffffffffff\n      and\n      dup2\n      mstore\n      0x20\n      add\n      swap1\n      dup2\n      mstore\n      0x20\n      add\n      0x00\n      keccak256\n        /* \"SupplyChain.sol\":981:1003  roles[_account].Farmer */\n      0x00\n      add\n      0x00\n        /* \"SupplyChain.sol\":981:1010  roles[_account].Farmer = true */\n      0x0100\n      exp\n      dup2\n      sload\n      dup2\n      0xff\n      mul\n      not\n      and\n      swap1\n      dup4\n      iszero\n      iszero\n      mul\n      or\n      swap1\n      sstore\n      pop\n        /* \"SupplyChain.sol\":1038:1046  _account */\n      dup1\n        /* \"SupplyChain.sol\":1026:1047  FarmerAdded(_account) */\n      0xffffffffffffffffffffffffffffffffffffffff\n      and\n      0x2e0ded4123377a3c2bc9a26f1717655a129e2f20752924d42e730ec89c83dbd0\n      mload(0x40)\n      mload(0x40)\n      dup1\n      swap2\n      sub\n      swap1\n      log2\n        /* \"SupplyChain.sol\":834:1055  function addFarmerRole(address _account) public {\r... */\n      pop\n      jump\t// out\n        /* \"SupplyChain.sol\":668:826  function hasFarmerRole(address _account) public view returns (bool) {\r... */\n    tag_34:\n        /* \"SupplyChain.sol\":730:734  bool */\n      0x00\n        /* \"SupplyChain.sol\":775:776  0 */\n      dup1\n        /* \"SupplyChain.sol\":755:777  _account != address(0) */\n      0xffffffffffffffffffffffffffffffffffffffff\n      and\n        /* \"SupplyChain.sol\":755:763  _account */\n      dup3\n        /* \"SupplyChain.sol\":755:777  _account != address(0) */\n      0xffffffffffffffffffffffffffffffffffffffff\n      and\n      eq\n      iszero\n        /* \"SupplyChain.sol\":747:778  require(_account != address(0)) */\n      tag_90\n      jumpi\n      0x00\n      dup1\n      revert\n    tag_90:\n        /* \"SupplyChain.sol\":796:801  roles */\n      0x05\n        /* \"SupplyChain.sol\":796:811  roles[_account] */\n      0x00\n        /* \"SupplyChain.sol\":802:810  _account */\n      dup4\n        /* \"SupplyChain.sol\":796:811  roles[_account] */\n      0xffffffffffffffffffffffffffffffffffffffff\n      and\n      0xffffffffffffffffffffffffffffffffffffffff\n      and\n      dup2\n      mstore\n      0x20\n      add\n      swap1\n      dup2\n      mstore\n      0x20\n      add\n      0x00\n      keccak256\n        /* \"SupplyChain.sol\":796:818  roles[_account].Farmer */\n      0x00\n      add\n      0x00\n      swap1\n      sload\n      swap1\n      0x0100\n      exp\n      swap1\n      div\n      0xff\n      and\n        /* \"SupplyChain.sol\":789:818  return roles[_account].Farmer */\n      swap1\n      pop\n        /* \"SupplyChain.sol\":668:826  function hasFarmerRole(address _account) public view returns (bool) {\r... */\n      swap2\n      swap1\n      pop\n      jump\t// out\n        /* \"https://github.com/OpenZeppelin/openzeppelin-contracts/blob/master/contracts/access/Ownable.sol\":1359:1489  function _checkOwner() internal view virtual {... */\n    tag_39:\n        /* \"https://github.com/OpenZeppelin/openzeppelin-contracts/blob/master/contracts/access/Ownable.sol\":1433:1445  _msgSender() */\n      tag_92\n        /* \"https://github.com/OpenZeppelin/openzeppelin-contracts/blob/master/contracts/access/Ownable.sol\":1433:1443  _msgSender */\n      tag_93\n        /* \"https://github.com/OpenZeppelin/openzeppelin-contracts/blob/master/contracts/access/Ownable.sol\":1433:1445  _msgSender() */\n      jump\t// in\n    tag_92:\n        /* \"https://github.com/OpenZeppelin/openzeppelin-contracts/blob/master/contracts/access/Ownable.sol\":1422:1445  owner() == _msgSender() */\n      0xffffffffffffffffffffffffffffffffffffffff\n      and\n        /* \"https://github.com/OpenZeppelin/openzeppelin-contracts/blob/master/contracts/access/Ownable.sol\":1422:1429  owner() */\n      tag_94\n        /* \"https://github.com/OpenZeppelin/openzeppelin-contracts/blob/master/contracts/access/Ownable.sol\":1422:1427  owner */\n      tag_14\n        /* \"https://github.com/OpenZeppelin/openzeppelin-contracts/blob/master/contracts/access/Ownable.sol\":1422:1429  owner() */\n      jump\t// in\n    tag_94:\n        /* \"https://github.com/OpenZeppelin/openzeppelin-contracts/blob/master/contracts/access/Ownable.sol\":1422:1445  owner() == _msgSender() */\n      0xffffffffffffffffffffffffffffffffffffffff\n      and\n      eq\n        /* \"https://github.com/OpenZeppelin/openzeppelin-contracts/blob/master/contracts/access/Ownable.sol\":1414:1482  require(owner() == _msgSender(), \"Ownable: caller is not the owner\") */\n      tag_95\n      jumpi\n      mload(0x40)\n      0x08c379a000000000000000000000000000000000000000000000000000000000\n      dup2\n      mstore\n      0x04\n      add\n      tag_96\n      swap1\n      tag_97\n      jump\t// in\n    tag_96:\n      mload(0x40)\n      dup1\n      swap2\n      sub\n      swap1\n      revert\n    tag_95:\n        /* \"https://github.com/OpenZeppelin/openzeppelin-contracts/blob/master/contracts/access/Ownable.sol\":1359:1489  function _checkOwner() internal view virtual {... */\n      jump\t// out\n        /* \"https://github.com/OpenZeppelin/openzeppelin-contracts/blob/master/contracts/access/Ownable.sol\":2433:2620  function _transferOwnership(address newOwner) internal virtual {... */\n    tag_42:\n        /* \"https://github.com/OpenZeppelin/openzeppelin-contracts/blob/master/contracts/access/Ownable.sol\":2506:2522  address oldOwner */\n      0x00\n        /* \"https://github.com/OpenZeppelin/openzeppelin-contracts/blob/master/contracts/access/Ownable.sol\":2525:2531  _owner */\n      dup1\n      0x00\n      swap1\n      sload\n      swap1\n      0x0100\n      exp\n      swap1\n      div\n      0xffffffffffffffffffffffffffffffffffffffff\n      and\n        /* \"https://github.com/OpenZeppelin/openzeppelin-contracts/blob/master/contracts/access/Ownable.sol\":2506:2531  address oldOwner = _owner */\n      swap1\n      pop\n        /* \"https://github.com/OpenZeppelin/openzeppelin-contracts/blob/master/contracts/access/Ownable.sol\":2550:2558  newOwner */\n      dup2\n        /* \"https://github.com/OpenZeppelin/openzeppelin-contracts/blob/master/contracts/access/Ownable.sol\":2541:2547  _owner */\n      0x00\n      dup1\n        /* \"https://github.com/OpenZeppelin/openzeppelin-contracts/blob/master/contracts/access/Ownable.sol\":2541:2558  _owner = newOwner */\n      0x0100\n      exp\n      dup2\n      sload\n      dup2\n      0xffffffffffffffffffffffffffffffffffffffff\n      mul\n      not\n      and\n      swap1\n      dup4\n      0xffffffffffffffffffffffffffffffffffffffff\n      and\n      mul\n      or\n      swap1\n      sstore\n      pop\n        /* \"https://github.com/OpenZeppelin/openzeppelin-contracts/blob/master/contracts/access/Ownable.sol\":2604:2612  newOwner */\n      dup2\n        /* \"https://github.com/OpenZeppelin/openzeppelin-contracts/blob/master/contracts/access/Ownable.sol\":2573:2613  OwnershipTransferred(oldOwner, newOwner) */\n      0xffffffffffffffffffffffffffffffffffffffff\n      and\n        /* \"https://github.com/OpenZeppelin/openzeppelin-contracts/blob/master/contracts/access/Ownable.sol\":2594:2602  oldOwner */\n      dup2\n        /* \"https://github.com/OpenZeppelin/openzeppelin-contracts/blob/master/contracts/access/Ownable.sol\":2573:2613  OwnershipTransferred(oldOwner, newOwner) */\n      0xffffffffffffffffffffffffffffffffffffffff\n      and\n      0x8be0079c531659141344cd1fd0a4f28419497f9722a3daafe3b4186f6b6457e0\n      mload(0x40)\n      mload(0x40)\n      dup1\n      swap2\n      sub\n      swap1\n      log3\n        /* \"https://github.com/OpenZeppelin/openzeppelin-contracts/blob/master/contracts/access/Ownable.sol\":2496:2620  {... */\n      pop\n        /* \"https://github.com/OpenZeppelin/openzeppelin-contracts/blob/master/contracts/access/Ownable.sol\":2433:2620  function _transferOwnership(address newOwner) internal virtual {... */\n      pop\n      jump\t// out\n        /* \"SupplyChain.sol\":1629:2030  function initEmptyProductInfo(Structure.Product memory product) internal pure{\r... */\n    tag_50:\n        /* \"SupplyChain.sol\":1717:1736  address distributor */\n      0x00\n        /* \"SupplyChain.sol\":1747:1763  address retailer */\n      dup1\n        /* \"SupplyChain.sol\":1774:1790  address customer */\n      0x00\n        /* \"SupplyChain.sol\":1801:1826  string memory transaction */\n      0x60\n        /* \"SupplyChain.sol\":1873:1884  distributor */\n      dup4\n        /* \"SupplyChain.sol\":1839:1846  product */\n      dup6\n        /* \"SupplyChain.sol\":1839:1858  product.distributor */\n      0xc0\n      add\n      mload\n        /* \"SupplyChain.sol\":1839:1870  product.distributor.distributor */\n      0x00\n      add\n        /* \"SupplyChain.sol\":1839:1884  product.distributor.distributor = distributor */\n      swap1\n      0xffffffffffffffffffffffffffffffffffffffff\n      and\n      swap1\n      dup2\n      0xffffffffffffffffffffffffffffffffffffffff\n      and\n      dup2\n      mstore\n      pop\n      pop\n        /* \"SupplyChain.sol\":1923:1931  retailer */\n      dup3\n        /* \"SupplyChain.sol\":1895:1902  product */\n      dup6\n        /* \"SupplyChain.sol\":1895:1911  product.retailer */\n      0xe0\n      add\n      mload\n        /* \"SupplyChain.sol\":1895:1920  product.retailer.retailer */\n      0x00\n      add\n        /* \"SupplyChain.sol\":1895:1931  product.retailer.retailer = retailer */\n      swap1\n      0xffffffffffffffffffffffffffffffffffffffff\n      and\n      swap1\n      dup2\n      0xffffffffffffffffffffffffffffffffffffffff\n      and\n      dup2\n      mstore\n      pop\n      pop\n        /* \"SupplyChain.sol\":1970:1978  customer */\n      dup2\n        /* \"SupplyChain.sol\":1942:1949  product */\n      dup6\n        /* \"SupplyChain.sol\":1942:1958  product.customer */\n      0x0100\n      add\n      mload\n        /* \"SupplyChain.sol\":1942:1967  product.customer.customer */\n      0x00\n      add\n        /* \"SupplyChain.sol\":1942:1978  product.customer.customer = customer */\n      swap1\n      0xffffffffffffffffffffffffffffffffffffffff\n      and\n      swap1\n      dup2\n      0xffffffffffffffffffffffffffffffffffffffff\n      and\n      dup2\n      mstore\n      pop\n      pop\n        /* \"SupplyChain.sol\":2011:2022  transaction */\n      dup1\n        /* \"SupplyChain.sol\":1989:1996  product */\n      dup6\n        /* \"SupplyChain.sol\":1989:2008  product.transaction */\n      0x0120\n      add\n        /* \"SupplyChain.sol\":1989:2022  product.transaction = transaction */\n      dup2\n      swap1\n      mstore\n      pop\n        /* \"SupplyChain.sol\":1706:2030  {\r... */\n      pop\n      pop\n      pop\n      pop\n        /* \"SupplyChain.sol\":1629:2030  function initEmptyProductInfo(Structure.Product memory product) internal pure{\r... */\n      pop\n      jump\t// out\n        /* \"SupplyChain.sol\":2038:2406  function setProductDetailInfo(\r... */\n    tag_52:\n        /* \"SupplyChain.sol\":2273:2284  productName */\n      dup3\n        /* \"SupplyChain.sol\":2239:2246  product */\n      dup5\n        /* \"SupplyChain.sol\":2239:2260  product.productDetail */\n      0x80\n      add\n      mload\n        /* \"SupplyChain.sol\":2239:2272  product.productDetail.productName */\n      0x00\n      add\n        /* \"SupplyChain.sol\":2239:2284  product.productDetail.productName=productName */\n      dup2\n      swap1\n      mstore\n      pop\n        /* \"SupplyChain.sol\":2329:2340  productCode */\n      dup2\n        /* \"SupplyChain.sol\":2295:2302  product */\n      dup5\n        /* \"SupplyChain.sol\":2295:2316  product.productDetail */\n      0x80\n      add\n      mload\n        /* \"SupplyChain.sol\":2295:2328  product.productDetail.productCode */\n      0x20\n      add\n        /* \"SupplyChain.sol\":2295:2340  product.productDetail.productCode=productCode */\n      dup2\n      dup2\n      mstore\n      pop\n      pop\n        /* \"SupplyChain.sol\":2386:2398  productPrice */\n      dup1\n        /* \"SupplyChain.sol\":2351:2358  product */\n      dup5\n        /* \"SupplyChain.sol\":2351:2372  product.productDetail */\n      0x80\n      add\n      mload\n        /* \"SupplyChain.sol\":2351:2385  product.productDetail.productPrice */\n      0x40\n      add\n        /* \"SupplyChain.sol\":2351:2398  product.productDetail.productPrice=productPrice */\n      dup2\n      dup2\n      mstore\n      pop\n      pop\n        /* \"SupplyChain.sol\":2038:2406  function setProductDetailInfo(\r... */\n      pop\n      pop\n      pop\n      pop\n      jump\t// out\n        /* \"https://github.com/OpenZeppelin/openzeppelin-contracts/blob/master/contracts/utils/Context.sol\":640:736  function _msgSender() internal view virtual returns (address) {... */\n    tag_93:\n        /* \"https://github.com/OpenZeppelin/openzeppelin-contracts/blob/master/contracts/utils/Context.sol\":693:700  address */\n      0x00\n        /* \"https://github.com/OpenZeppelin/openzeppelin-contracts/blob/master/contracts/utils/Context.sol\":719:729  msg.sender */\n      caller\n        /* \"https://github.com/OpenZeppelin/openzeppelin-contracts/blob/master/contracts/utils/Context.sol\":712:729  return msg.sender */\n      swap1\n      pop\n        /* \"https://github.com/OpenZeppelin/openzeppelin-contracts/blob/master/contracts/utils/Context.sol\":640:736  function _msgSender() internal view virtual returns (address) {... */\n      swap1\n      jump\t// out\n    tag_48:\n      mload(0x40)\n      dup1\n      0x0140\n      add\n      0x40\n      mstore\n      dup1\n      0x00\n      dup2\n      mstore\n      0x20\n      add\n      0x00\n      dup2\n      mstore\n      0x20\n      add\n      and(0xffffffffffffffffffffffffffffffffffffffff, 0x00)\n      dup2\n      mstore\n      0x20\n      add\n      0x00\n      0x02\n      dup2\n      gt\n      iszero\n      tag_102\n      jumpi\n      tag_103\n      tag_55\n      jump\t// in\n    tag_103:\n    tag_102:\n      dup2\n      mstore\n      0x20\n      add\n      tag_104\n      tag_105\n      jump\t// in\n    tag_104:\n      dup2\n      mstore\n      0x20\n      add\n      tag_106\n      tag_107\n      jump\t// in\n    tag_106:\n      dup2\n      mstore\n      0x20\n      add\n      tag_108\n      tag_109\n      jump\t// in\n    tag_108:\n      dup2\n      mstore\n      0x20\n      add\n      tag_110\n      tag_111\n      jump\t// in\n    tag_110:\n      dup2\n      mstore\n      0x20\n      add\n      tag_112\n      tag_113\n      jump\t// in\n    tag_112:\n      dup2\n      mstore\n      0x20\n      add\n      0x60\n      dup2\n      mstore\n      pop\n      swap1\n      jump\t// out\n    tag_61:\n      dup3\n      dup1\n      sload\n      tag_114\n      swap1\n      tag_115\n      jump\t// in\n    tag_114:\n      swap1\n      0x00\n      mstore\n      keccak256(0x00, 0x20)\n      swap1\n      0x1f\n      add\n      0x20\n      swap1\n      div\n      dup2\n      add\n      swap3\n      dup3\n      tag_117\n      jumpi\n      0x00\n      dup6\n      sstore\n      jump(tag_116)\n    tag_117:\n      dup3\n      0x1f\n      lt\n      tag_118\n      jumpi\n      dup1\n      mload\n      not(0xff)\n      and\n      dup4\n      dup1\n      add\n      or\n      dup6\n      sstore\n      jump(tag_116)\n    tag_118:\n      dup3\n      dup1\n      add\n      0x01\n      add\n      dup6\n      sstore\n      dup3\n      iszero\n      tag_116\n      jumpi\n      swap2\n      dup3\n      add\n    tag_119:\n      dup3\n      dup2\n      gt\n      iszero\n      tag_120\n      jumpi\n      dup3\n      mload\n      dup3\n      sstore\n      swap2\n      0x20\n      add\n      swap2\n      swap1\n      0x01\n      add\n      swap1\n      jump(tag_119)\n    tag_120:\n    tag_116:\n      pop\n      swap1\n      pop\n      tag_121\n      swap2\n      swap1\n      tag_122\n      jump\t// in\n    tag_121:\n      pop\n      swap1\n      jump\t// out\n    tag_105:\n      mload(0x40)\n      dup1\n      0x60\n      add\n      0x40\n      mstore\n      dup1\n      0x60\n      dup2\n      mstore\n      0x20\n      add\n      0x00\n      dup2\n      mstore\n      0x20\n      add\n      0x00\n      dup2\n      mstore\n      pop\n      swap1\n      jump\t// out\n    tag_107:\n      mload(0x40)\n      dup1\n      0x60\n      add\n      0x40\n      mstore\n      dup1\n      and(0xffffffffffffffffffffffffffffffffffffffff, 0x00)\n      dup2\n      mstore\n      0x20\n      add\n      0x60\n      dup2\n      mstore\n      0x20\n      add\n      0x60\n      dup2\n      mstore\n      pop\n      swap1\n      jump\t// out\n    tag_109:\n      mload(0x40)\n      dup1\n      0x20\n      add\n      0x40\n      mstore\n      dup1\n      and(0xffffffffffffffffffffffffffffffffffffffff, 0x00)\n      dup2\n      mstore\n      pop\n      swap1\n      jump\t// out\n    tag_111:\n      mload(0x40)\n      dup1\n      0x20\n      add\n      0x40\n      mstore\n      dup1\n      and(0xffffffffffffffffffffffffffffffffffffffff, 0x00)\n      dup2\n      mstore\n      pop\n      swap1\n      jump\t// out\n    tag_113:\n      mload(0x40)\n      dup1\n      0x20\n      add\n      0x40\n      mstore\n      dup1\n      and(0xffffffffffffffffffffffffffffffffffffffff, 0x00)\n      dup2\n      mstore\n      pop\n      swap1\n      jump\t// out\n    tag_122:\n    tag_123:\n      dup1\n      dup3\n      gt\n      iszero\n      tag_124\n      jumpi\n      0x00\n      dup2\n      0x00\n      swap1\n      sstore\n      pop\n      0x01\n      add\n      jump(tag_123)\n    tag_124:\n      pop\n      swap1\n      jump\t// out\n        /* \"#utility.yul\":7:419   */\n    tag_126:\n        /* \"#utility.yul\":85:90   */\n      0x00\n        /* \"#utility.yul\":110:176   */\n      tag_128\n        /* \"#utility.yul\":126:175   */\n      tag_129\n        /* \"#utility.yul\":168:174   */\n      dup5\n        /* \"#utility.yul\":126:175   */\n      tag_130\n      jump\t// in\n    tag_129:\n        /* \"#utility.yul\":110:176   */\n      tag_131\n      jump\t// in\n    tag_128:\n        /* \"#utility.yul\":101:176   */\n      swap1\n      pop\n        /* \"#utility.yul\":199:205   */\n      dup3\n        /* \"#utility.yul\":192:197   */\n      dup2\n        /* \"#utility.yul\":185:206   */\n      mstore\n        /* \"#utility.yul\":237:241   */\n      0x20\n        /* \"#utility.yul\":230:235   */\n      dup2\n        /* \"#utility.yul\":226:242   */\n      add\n        /* \"#utility.yul\":275:278   */\n      dup5\n        /* \"#utility.yul\":266:272   */\n      dup5\n        /* \"#utility.yul\":261:264   */\n      dup5\n        /* \"#utility.yul\":257:273   */\n      add\n        /* \"#utility.yul\":254:279   */\n      gt\n        /* \"#utility.yul\":251:363   */\n      iszero\n      tag_132\n      jumpi\n        /* \"#utility.yul\":282:361   */\n      tag_133\n      tag_134\n      jump\t// in\n    tag_133:\n        /* \"#utility.yul\":251:363   */\n    tag_132:\n        /* \"#utility.yul\":372:413   */\n      tag_135\n        /* \"#utility.yul\":406:412   */\n      dup5\n        /* \"#utility.yul\":401:404   */\n      dup3\n        /* \"#utility.yul\":396:399   */\n      dup6\n        /* \"#utility.yul\":372:413   */\n      tag_136\n      jump\t// in\n    tag_135:\n        /* \"#utility.yul\":91:419   */\n      pop\n        /* \"#utility.yul\":7:419   */\n      swap4\n      swap3\n      pop\n      pop\n      pop\n      jump\t// out\n        /* \"#utility.yul\":425:564   */\n    tag_137:\n        /* \"#utility.yul\":471:476   */\n      0x00\n        /* \"#utility.yul\":509:515   */\n      dup2\n        /* \"#utility.yul\":496:516   */\n      calldataload\n        /* \"#utility.yul\":487:516   */\n      swap1\n      pop\n        /* \"#utility.yul\":525:558   */\n      tag_139\n        /* \"#utility.yul\":552:557   */\n      dup2\n        /* \"#utility.yul\":525:558   */\n      tag_140\n      jump\t// in\n    tag_139:\n        /* \"#utility.yul\":425:564   */\n      swap3\n      swap2\n      pop\n      pop\n      jump\t// out\n        /* \"#utility.yul\":584:924   */\n    tag_141:\n        /* \"#utility.yul\":640:645   */\n      0x00\n        /* \"#utility.yul\":689:692   */\n      dup3\n        /* \"#utility.yul\":682:686   */\n      0x1f\n        /* \"#utility.yul\":674:680   */\n      dup4\n        /* \"#utility.yul\":670:687   */\n      add\n        /* \"#utility.yul\":666:693   */\n      slt\n        /* \"#utility.yul\":656:778   */\n      tag_143\n      jumpi\n        /* \"#utility.yul\":697:776   */\n      tag_144\n      tag_145\n      jump\t// in\n    tag_144:\n        /* \"#utility.yul\":656:778   */\n    tag_143:\n        /* \"#utility.yul\":814:820   */\n      dup2\n        /* \"#utility.yul\":801:821   */\n      calldataload\n        /* \"#utility.yul\":839:918   */\n      tag_146\n        /* \"#utility.yul\":914:917   */\n      dup5\n        /* \"#utility.yul\":906:912   */\n      dup3\n        /* \"#utility.yul\":899:903   */\n      0x20\n        /* \"#utility.yul\":891:897   */\n      dup7\n        /* \"#utility.yul\":887:904   */\n      add\n        /* \"#utility.yul\":839:918   */\n      tag_126\n      jump\t// in\n    tag_146:\n        /* \"#utility.yul\":830:918   */\n      swap2\n      pop\n        /* \"#utility.yul\":646:924   */\n      pop\n        /* \"#utility.yul\":584:924   */\n      swap3\n      swap2\n      pop\n      pop\n      jump\t// out\n        /* \"#utility.yul\":930:1069   */\n    tag_147:\n        /* \"#utility.yul\":976:981   */\n      0x00\n        /* \"#utility.yul\":1014:1020   */\n      dup2\n        /* \"#utility.yul\":1001:1021   */\n      calldataload\n        /* \"#utility.yul\":992:1021   */\n      swap1\n      pop\n        /* \"#utility.yul\":1030:1063   */\n      tag_149\n        /* \"#utility.yul\":1057:1062   */\n      dup2\n        /* \"#utility.yul\":1030:1063   */\n      tag_150\n      jump\t// in\n    tag_149:\n        /* \"#utility.yul\":930:1069   */\n      swap3\n      swap2\n      pop\n      pop\n      jump\t// out\n        /* \"#utility.yul\":1075:1404   */\n    tag_23:\n        /* \"#utility.yul\":1134:1140   */\n      0x00\n        /* \"#utility.yul\":1183:1185   */\n      0x20\n        /* \"#utility.yul\":1171:1180   */\n      dup3\n        /* \"#utility.yul\":1162:1169   */\n      dup5\n        /* \"#utility.yul\":1158:1181   */\n      sub\n        /* \"#utility.yul\":1154:1186   */\n      slt\n        /* \"#utility.yul\":1151:1270   */\n      iszero\n      tag_152\n      jumpi\n        /* \"#utility.yul\":1189:1268   */\n      tag_153\n      tag_154\n      jump\t// in\n    tag_153:\n        /* \"#utility.yul\":1151:1270   */\n    tag_152:\n        /* \"#utility.yul\":1309:1310   */\n      0x00\n        /* \"#utility.yul\":1334:1387   */\n      tag_155\n        /* \"#utility.yul\":1379:1386   */\n      dup5\n        /* \"#utility.yul\":1370:1376   */\n      dup3\n        /* \"#utility.yul\":1359:1368   */\n      dup6\n        /* \"#utility.yul\":1355:1377   */\n      add\n        /* \"#utility.yul\":1334:1387   */\n      tag_137\n      jump\t// in\n    tag_155:\n        /* \"#utility.yul\":1324:1387   */\n      swap2\n      pop\n        /* \"#utility.yul\":1280:1397   */\n      pop\n        /* \"#utility.yul\":1075:1404   */\n      swap3\n      swap2\n      pop\n      pop\n      jump\t// out\n        /* \"#utility.yul\":1410:2861   */\n    tag_19:\n        /* \"#utility.yul\":1535:1541   */\n      0x00\n        /* \"#utility.yul\":1543:1549   */\n      dup1\n        /* \"#utility.yul\":1551:1557   */\n      0x00\n        /* \"#utility.yul\":1559:1565   */\n      dup1\n        /* \"#utility.yul\":1567:1573   */\n      0x00\n        /* \"#utility.yul\":1616:1619   */\n      0xa0\n        /* \"#utility.yul\":1604:1613   */\n      dup7\n        /* \"#utility.yul\":1595:1602   */\n      dup9\n        /* \"#utility.yul\":1591:1614   */\n      sub\n        /* \"#utility.yul\":1587:1620   */\n      slt\n        /* \"#utility.yul\":1584:1704   */\n      iszero\n      tag_157\n      jumpi\n        /* \"#utility.yul\":1623:1702   */\n      tag_158\n      tag_154\n      jump\t// in\n    tag_158:\n        /* \"#utility.yul\":1584:1704   */\n    tag_157:\n        /* \"#utility.yul\":1771:1772   */\n      0x00\n        /* \"#utility.yul\":1760:1769   */\n      dup7\n        /* \"#utility.yul\":1756:1773   */\n      add\n        /* \"#utility.yul\":1743:1774   */\n      calldataload\n        /* \"#utility.yul\":1801:1819   */\n      0xffffffffffffffff\n        /* \"#utility.yul\":1793:1799   */\n      dup2\n        /* \"#utility.yul\":1790:1820   */\n      gt\n        /* \"#utility.yul\":1787:1904   */\n      iszero\n      tag_159\n      jumpi\n        /* \"#utility.yul\":1823:1902   */\n      tag_160\n      tag_161\n      jump\t// in\n    tag_160:\n        /* \"#utility.yul\":1787:1904   */\n    tag_159:\n        /* \"#utility.yul\":1928:1991   */\n      tag_162\n        /* \"#utility.yul\":1983:1990   */\n      dup9\n        /* \"#utility.yul\":1974:1980   */\n      dup3\n        /* \"#utility.yul\":1963:1972   */\n      dup10\n        /* \"#utility.yul\":1959:1981   */\n      add\n        /* \"#utility.yul\":1928:1991   */\n      tag_141\n      jump\t// in\n    tag_162:\n        /* \"#utility.yul\":1918:1991   */\n      swap6\n      pop\n        /* \"#utility.yul\":1714:2001   */\n      pop\n        /* \"#utility.yul\":2068:2070   */\n      0x20\n        /* \"#utility.yul\":2057:2066   */\n      dup7\n        /* \"#utility.yul\":2053:2071   */\n      add\n        /* \"#utility.yul\":2040:2072   */\n      calldataload\n        /* \"#utility.yul\":2099:2117   */\n      0xffffffffffffffff\n        /* \"#utility.yul\":2091:2097   */\n      dup2\n        /* \"#utility.yul\":2088:2118   */\n      gt\n        /* \"#utility.yul\":2085:2202   */\n      iszero\n      tag_163\n      jumpi\n        /* \"#utility.yul\":2121:2200   */\n      tag_164\n      tag_161\n      jump\t// in\n    tag_164:\n        /* \"#utility.yul\":2085:2202   */\n    tag_163:\n        /* \"#utility.yul\":2226:2289   */\n      tag_165\n        /* \"#utility.yul\":2281:2288   */\n      dup9\n        /* \"#utility.yul\":2272:2278   */\n      dup3\n        /* \"#utility.yul\":2261:2270   */\n      dup10\n        /* \"#utility.yul\":2257:2279   */\n      add\n        /* \"#utility.yul\":2226:2289   */\n      tag_141\n      jump\t// in\n    tag_165:\n        /* \"#utility.yul\":2216:2289   */\n      swap5\n      pop\n        /* \"#utility.yul\":2011:2299   */\n      pop\n        /* \"#utility.yul\":2366:2368   */\n      0x40\n        /* \"#utility.yul\":2355:2364   */\n      dup7\n        /* \"#utility.yul\":2351:2369   */\n      add\n        /* \"#utility.yul\":2338:2370   */\n      calldataload\n        /* \"#utility.yul\":2397:2415   */\n      0xffffffffffffffff\n        /* \"#utility.yul\":2389:2395   */\n      dup2\n        /* \"#utility.yul\":2386:2416   */\n      gt\n        /* \"#utility.yul\":2383:2500   */\n      iszero\n      tag_166\n      jumpi\n        /* \"#utility.yul\":2419:2498   */\n      tag_167\n      tag_161\n      jump\t// in\n    tag_167:\n        /* \"#utility.yul\":2383:2500   */\n    tag_166:\n        /* \"#utility.yul\":2524:2587   */\n      tag_168\n        /* \"#utility.yul\":2579:2586   */\n      dup9\n        /* \"#utility.yul\":2570:2576   */\n      dup3\n        /* \"#utility.yul\":2559:2568   */\n      dup10\n        /* \"#utility.yul\":2555:2577   */\n      add\n        /* \"#utility.yul\":2524:2587   */\n      tag_141\n      jump\t// in\n    tag_168:\n        /* \"#utility.yul\":2514:2587   */\n      swap4\n      pop\n        /* \"#utility.yul\":2309:2597   */\n      pop\n        /* \"#utility.yul\":2636:2638   */\n      0x60\n        /* \"#utility.yul\":2662:2715   */\n      tag_169\n        /* \"#utility.yul\":2707:2714   */\n      dup9\n        /* \"#utility.yul\":2698:2704   */\n      dup3\n        /* \"#utility.yul\":2687:2696   */\n      dup10\n        /* \"#utility.yul\":2683:2705   */\n      add\n        /* \"#utility.yul\":2662:2715   */\n      tag_147\n      jump\t// in\n    tag_169:\n        /* \"#utility.yul\":2652:2715   */\n      swap3\n      pop\n        /* \"#utility.yul\":2607:2725   */\n      pop\n        /* \"#utility.yul\":2764:2767   */\n      0x80\n        /* \"#utility.yul\":2791:2844   */\n      tag_170\n        /* \"#utility.yul\":2836:2843   */\n      dup9\n        /* \"#utility.yul\":2827:2833   */\n      dup3\n        /* \"#utility.yul\":2816:2825   */\n      dup10\n        /* \"#utility.yul\":2812:2834   */\n      add\n        /* \"#utility.yul\":2791:2844   */\n      tag_147\n      jump\t// in\n    tag_170:\n        /* \"#utility.yul\":2781:2844   */\n      swap2\n      pop\n        /* \"#utility.yul\":2735:2854   */\n      pop\n        /* \"#utility.yul\":1410:2861   */\n      swap3\n      swap6\n      pop\n      swap3\n      swap6\n      swap1\n      swap4\n      pop\n      jump\t// out\n        /* \"#utility.yul\":2867:2985   */\n    tag_171:\n        /* \"#utility.yul\":2954:2978   */\n      tag_173\n        /* \"#utility.yul\":2972:2977   */\n      dup2\n        /* \"#utility.yul\":2954:2978   */\n      tag_174\n      jump\t// in\n    tag_173:\n        /* \"#utility.yul\":2949:2952   */\n      dup3\n        /* \"#utility.yul\":2942:2979   */\n      mstore\n        /* \"#utility.yul\":2867:2985   */\n      pop\n      pop\n      jump\t// out\n        /* \"#utility.yul\":2991:3100   */\n    tag_175:\n        /* \"#utility.yul\":3072:3093   */\n      tag_177\n        /* \"#utility.yul\":3087:3092   */\n      dup2\n        /* \"#utility.yul\":3072:3093   */\n      tag_178\n      jump\t// in\n    tag_177:\n        /* \"#utility.yul\":3067:3070   */\n      dup3\n        /* \"#utility.yul\":3060:3094   */\n      mstore\n        /* \"#utility.yul\":2991:3100   */\n      pop\n      pop\n      jump\t// out\n        /* \"#utility.yul\":3106:3472   */\n    tag_179:\n        /* \"#utility.yul\":3248:3251   */\n      0x00\n        /* \"#utility.yul\":3269:3336   */\n      tag_181\n        /* \"#utility.yul\":3333:3335   */\n      0x26\n        /* \"#utility.yul\":3328:3331   */\n      dup4\n        /* \"#utility.yul\":3269:3336   */\n      tag_182\n      jump\t// in\n    tag_181:\n        /* \"#utility.yul\":3262:3336   */\n      swap2\n      pop\n        /* \"#utility.yul\":3345:3438   */\n      tag_183\n        /* \"#utility.yul\":3434:3437   */\n      dup3\n        /* \"#utility.yul\":3345:3438   */\n      tag_184\n      jump\t// in\n    tag_183:\n        /* \"#utility.yul\":3463:3465   */\n      0x40\n        /* \"#utility.yul\":3458:3461   */\n      dup3\n        /* \"#utility.yul\":3454:3466   */\n      add\n        /* \"#utility.yul\":3447:3466   */\n      swap1\n      pop\n        /* \"#utility.yul\":3106:3472   */\n      swap2\n      swap1\n      pop\n      jump\t// out\n        /* \"#utility.yul\":3478:3844   */\n    tag_185:\n        /* \"#utility.yul\":3620:3623   */\n      0x00\n        /* \"#utility.yul\":3641:3708   */\n      tag_187\n        /* \"#utility.yul\":3705:3707   */\n      0x20\n        /* \"#utility.yul\":3700:3703   */\n      dup4\n        /* \"#utility.yul\":3641:3708   */\n      tag_182\n      jump\t// in\n    tag_187:\n        /* \"#utility.yul\":3634:3708   */\n      swap2\n      pop\n        /* \"#utility.yul\":3717:3810   */\n      tag_188\n        /* \"#utility.yul\":3806:3809   */\n      dup3\n        /* \"#utility.yul\":3717:3810   */\n      tag_189\n      jump\t// in\n    tag_188:\n        /* \"#utility.yul\":3835:3837   */\n      0x20\n        /* \"#utility.yul\":3830:3833   */\n      dup3\n        /* \"#utility.yul\":3826:3838   */\n      add\n        /* \"#utility.yul\":3819:3838   */\n      swap1\n      pop\n        /* \"#utility.yul\":3478:3844   */\n      swap2\n      swap1\n      pop\n      jump\t// out\n        /* \"#utility.yul\":3850:3968   */\n    tag_190:\n        /* \"#utility.yul\":3937:3961   */\n      tag_192\n        /* \"#utility.yul\":3955:3960   */\n      dup2\n        /* \"#utility.yul\":3937:3961   */\n      tag_193\n      jump\t// in\n    tag_192:\n        /* \"#utility.yul\":3932:3935   */\n      dup3\n        /* \"#utility.yul\":3925:3962   */\n      mstore\n        /* \"#utility.yul\":3850:3968   */\n      pop\n      pop\n      jump\t// out\n        /* \"#utility.yul\":3974:4196   */\n    tag_16:\n        /* \"#utility.yul\":4067:4071   */\n      0x00\n        /* \"#utility.yul\":4105:4107   */\n      0x20\n        /* \"#utility.yul\":4094:4103   */\n      dup3\n        /* \"#utility.yul\":4090:4108   */\n      add\n        /* \"#utility.yul\":4082:4108   */\n      swap1\n      pop\n        /* \"#utility.yul\":4118:4189   */\n      tag_195\n        /* \"#utility.yul\":4186:4187   */\n      0x00\n        /* \"#utility.yul\":4175:4184   */\n      dup4\n        /* \"#utility.yul\":4171:4188   */\n      add\n        /* \"#utility.yul\":4162:4168   */\n      dup5\n        /* \"#utility.yul\":4118:4189   */\n      tag_171\n      jump\t// in\n    tag_195:\n        /* \"#utility.yul\":3974:4196   */\n      swap3\n      swap2\n      pop\n      pop\n      jump\t// out\n        /* \"#utility.yul\":4202:4412   */\n    tag_36:\n        /* \"#utility.yul\":4289:4293   */\n      0x00\n        /* \"#utility.yul\":4327:4329   */\n      0x20\n        /* \"#utility.yul\":4316:4325   */\n      dup3\n        /* \"#utility.yul\":4312:4330   */\n      add\n        /* \"#utility.yul\":4304:4330   */\n      swap1\n      pop\n        /* \"#utility.yul\":4340:4405   */\n      tag_197\n        /* \"#utility.yul\":4402:4403   */\n      0x00\n        /* \"#utility.yul\":4391:4400   */\n      dup4\n        /* \"#utility.yul\":4387:4404   */\n      add\n        /* \"#utility.yul\":4378:4384   */\n      dup5\n        /* \"#utility.yul\":4340:4405   */\n      tag_175\n      jump\t// in\n    tag_197:\n        /* \"#utility.yul\":4202:4412   */\n      swap3\n      swap2\n      pop\n      pop\n      jump\t// out\n        /* \"#utility.yul\":4418:4837   */\n    tag_83:\n        /* \"#utility.yul\":4584:4588   */\n      0x00\n        /* \"#utility.yul\":4622:4624   */\n      0x20\n        /* \"#utility.yul\":4611:4620   */\n      dup3\n        /* \"#utility.yul\":4607:4625   */\n      add\n        /* \"#utility.yul\":4599:4625   */\n      swap1\n      pop\n        /* \"#utility.yul\":4671:4680   */\n      dup2\n        /* \"#utility.yul\":4665:4669   */\n      dup2\n        /* \"#utility.yul\":4661:4681   */\n      sub\n        /* \"#utility.yul\":4657:4658   */\n      0x00\n        /* \"#utility.yul\":4646:4655   */\n      dup4\n        /* \"#utility.yul\":4642:4659   */\n      add\n        /* \"#utility.yul\":4635:4682   */\n      mstore\n        /* \"#utility.yul\":4699:4830   */\n      tag_199\n        /* \"#utility.yul\":4825:4829   */\n      dup2\n        /* \"#utility.yul\":4699:4830   */\n      tag_179\n      jump\t// in\n    tag_199:\n        /* \"#utility.yul\":4691:4830   */\n      swap1\n      pop\n        /* \"#utility.yul\":4418:4837   */\n      swap2\n      swap1\n      pop\n      jump\t// out\n        /* \"#utility.yul\":4843:5262   */\n    tag_97:\n        /* \"#utility.yul\":5009:5013   */\n      0x00\n        /* \"#utility.yul\":5047:5049   */\n      0x20\n        /* \"#utility.yul\":5036:5045   */\n      dup3\n        /* \"#utility.yul\":5032:5050   */\n      add\n        /* \"#utility.yul\":5024:5050   */\n      swap1\n      pop\n        /* \"#utility.yul\":5096:5105   */\n      dup2\n        /* \"#utility.yul\":5090:5094   */\n      dup2\n        /* \"#utility.yul\":5086:5106   */\n      sub\n        /* \"#utility.yul\":5082:5083   */\n      0x00\n        /* \"#utility.yul\":5071:5080   */\n      dup4\n        /* \"#utility.yul\":5067:5084   */\n      add\n        /* \"#utility.yul\":5060:5107   */\n      mstore\n        /* \"#utility.yul\":5124:5255   */\n      tag_201\n        /* \"#utility.yul\":5250:5254   */\n      dup2\n        /* \"#utility.yul\":5124:5255   */\n      tag_185\n      jump\t// in\n    tag_201:\n        /* \"#utility.yul\":5116:5255   */\n      swap1\n      pop\n        /* \"#utility.yul\":4843:5262   */\n      swap2\n      swap1\n      pop\n      jump\t// out\n        /* \"#utility.yul\":5268:5490   */\n    tag_28:\n        /* \"#utility.yul\":5361:5365   */\n      0x00\n        /* \"#utility.yul\":5399:5401   */\n      0x20\n        /* \"#utility.yul\":5388:5397   */\n      dup3\n        /* \"#utility.yul\":5384:5402   */\n      add\n        /* \"#utility.yul\":5376:5402   */\n      swap1\n      pop\n        /* \"#utility.yul\":5412:5483   */\n      tag_203\n        /* \"#utility.yul\":5480:5481   */\n      0x00\n        /* \"#utility.yul\":5469:5478   */\n      dup4\n        /* \"#utility.yul\":5465:5482   */\n      add\n        /* \"#utility.yul\":5456:5462   */\n      dup5\n        /* \"#utility.yul\":5412:5483   */\n      tag_190\n      jump\t// in\n    tag_203:\n        /* \"#utility.yul\":5268:5490   */\n      swap3\n      swap2\n      pop\n      pop\n      jump\t// out\n        /* \"#utility.yul\":5496:5625   */\n    tag_131:\n        /* \"#utility.yul\":5530:5536   */\n      0x00\n        /* \"#utility.yul\":5557:5577   */\n      tag_205\n      tag_206\n      jump\t// in\n    tag_205:\n        /* \"#utility.yul\":5547:5577   */\n      swap1\n      pop\n        /* \"#utility.yul\":5586:5619   */\n      tag_207\n        /* \"#utility.yul\":5614:5618   */\n      dup3\n        /* \"#utility.yul\":5606:5612   */\n      dup3\n        /* \"#utility.yul\":5586:5619   */\n      tag_208\n      jump\t// in\n    tag_207:\n        /* \"#utility.yul\":5496:5625   */\n      swap2\n      swap1\n      pop\n      jump\t// out\n        /* \"#utility.yul\":5631:5706   */\n    tag_206:\n        /* \"#utility.yul\":5664:5670   */\n      0x00\n        /* \"#utility.yul\":5697:5699   */\n      0x40\n        /* \"#utility.yul\":5691:5700   */\n      mload\n        /* \"#utility.yul\":5681:5700   */\n      swap1\n      pop\n        /* \"#utility.yul\":5631:5706   */\n      swap1\n      jump\t// out\n        /* \"#utility.yul\":5712:6020   */\n    tag_130:\n        /* \"#utility.yul\":5774:5778   */\n      0x00\n        /* \"#utility.yul\":5864:5882   */\n      0xffffffffffffffff\n        /* \"#utility.yul\":5856:5862   */\n      dup3\n        /* \"#utility.yul\":5853:5883   */\n      gt\n        /* \"#utility.yul\":5850:5906   */\n      iszero\n      tag_211\n      jumpi\n        /* \"#utility.yul\":5886:5904   */\n      tag_212\n      tag_213\n      jump\t// in\n    tag_212:\n        /* \"#utility.yul\":5850:5906   */\n    tag_211:\n        /* \"#utility.yul\":5924:5953   */\n      tag_214\n        /* \"#utility.yul\":5946:5952   */\n      dup3\n        /* \"#utility.yul\":5924:5953   */\n      tag_215\n      jump\t// in\n    tag_214:\n        /* \"#utility.yul\":5916:5953   */\n      swap1\n      pop\n        /* \"#utility.yul\":6008:6012   */\n      0x20\n        /* \"#utility.yul\":6002:6006   */\n      dup2\n        /* \"#utility.yul\":5998:6013   */\n      add\n        /* \"#utility.yul\":5990:6013   */\n      swap1\n      pop\n        /* \"#utility.yul\":5712:6020   */\n      swap2\n      swap1\n      pop\n      jump\t// out\n        /* \"#utility.yul\":6026:6195   */\n    tag_182:\n        /* \"#utility.yul\":6110:6121   */\n      0x00\n        /* \"#utility.yul\":6144:6150   */\n      dup3\n        /* \"#utility.yul\":6139:6142   */\n      dup3\n        /* \"#utility.yul\":6132:6151   */\n      mstore\n        /* \"#utility.yul\":6184:6188   */\n      0x20\n        /* \"#utility.yul\":6179:6182   */\n      dup3\n        /* \"#utility.yul\":6175:6189   */\n      add\n        /* \"#utility.yul\":6160:6189   */\n      swap1\n      pop\n        /* \"#utility.yul\":6026:6195   */\n      swap3\n      swap2\n      pop\n      pop\n      jump\t// out\n        /* \"#utility.yul\":6201:6392   */\n    tag_76:\n        /* \"#utility.yul\":6241:6245   */\n      0x00\n        /* \"#utility.yul\":6261:6281   */\n      tag_218\n        /* \"#utility.yul\":6279:6280   */\n      dup3\n        /* \"#utility.yul\":6261:6281   */\n      tag_193\n      jump\t// in\n    tag_218:\n        /* \"#utility.yul\":6256:6281   */\n      swap2\n      pop\n        /* \"#utility.yul\":6295:6315   */\n      tag_219\n        /* \"#utility.yul\":6313:6314   */\n      dup4\n        /* \"#utility.yul\":6295:6315   */\n      tag_193\n      jump\t// in\n    tag_219:\n        /* \"#utility.yul\":6290:6315   */\n      swap3\n      pop\n        /* \"#utility.yul\":6334:6335   */\n      dup3\n        /* \"#utility.yul\":6331:6332   */\n      dup3\n        /* \"#utility.yul\":6328:6336   */\n      lt\n        /* \"#utility.yul\":6325:6359   */\n      iszero\n      tag_220\n      jumpi\n        /* \"#utility.yul\":6339:6357   */\n      tag_221\n      tag_222\n      jump\t// in\n    tag_221:\n        /* \"#utility.yul\":6325:6359   */\n    tag_220:\n        /* \"#utility.yul\":6384:6385   */\n      dup3\n        /* \"#utility.yul\":6381:6382   */\n      dup3\n        /* \"#utility.yul\":6377:6386   */\n      sub\n        /* \"#utility.yul\":6369:6386   */\n      swap1\n      pop\n        /* \"#utility.yul\":6201:6392   */\n      swap3\n      swap2\n      pop\n      pop\n      jump\t// out\n        /* \"#utility.yul\":6398:6494   */\n    tag_174:\n        /* \"#utility.yul\":6435:6442   */\n      0x00\n        /* \"#utility.yul\":6464:6488   */\n      tag_224\n        /* \"#utility.yul\":6482:6487   */\n      dup3\n        /* \"#utility.yul\":6464:6488   */\n      tag_225\n      jump\t// in\n    tag_224:\n        /* \"#utility.yul\":6453:6488   */\n      swap1\n      pop\n        /* \"#utility.yul\":6398:6494   */\n      swap2\n      swap1\n      pop\n      jump\t// out\n        /* \"#utility.yul\":6500:6590   */\n    tag_178:\n        /* \"#utility.yul\":6534:6541   */\n      0x00\n        /* \"#utility.yul\":6577:6582   */\n      dup2\n        /* \"#utility.yul\":6570:6583   */\n      iszero\n        /* \"#utility.yul\":6563:6584   */\n      iszero\n        /* \"#utility.yul\":6552:6584   */\n      swap1\n      pop\n        /* \"#utility.yul\":6500:6590   */\n      swap2\n      swap1\n      pop\n      jump\t// out\n        /* \"#utility.yul\":6596:6722   */\n    tag_225:\n        /* \"#utility.yul\":6633:6640   */\n      0x00\n        /* \"#utility.yul\":6673:6715   */\n      0xffffffffffffffffffffffffffffffffffffffff\n        /* \"#utility.yul\":6666:6671   */\n      dup3\n        /* \"#utility.yul\":6662:6716   */\n      and\n        /* \"#utility.yul\":6651:6716   */\n      swap1\n      pop\n        /* \"#utility.yul\":6596:6722   */\n      swap2\n      swap1\n      pop\n      jump\t// out\n        /* \"#utility.yul\":6728:6805   */\n    tag_193:\n        /* \"#utility.yul\":6765:6772   */\n      0x00\n        /* \"#utility.yul\":6794:6799   */\n      dup2\n        /* \"#utility.yul\":6783:6799   */\n      swap1\n      pop\n        /* \"#utility.yul\":6728:6805   */\n      swap2\n      swap1\n      pop\n      jump\t// out\n        /* \"#utility.yul\":6811:6965   */\n    tag_136:\n        /* \"#utility.yul\":6895:6901   */\n      dup3\n        /* \"#utility.yul\":6890:6893   */\n      dup2\n        /* \"#utility.yul\":6885:6888   */\n      dup4\n        /* \"#utility.yul\":6872:6902   */\n      calldatacopy\n        /* \"#utility.yul\":6957:6958   */\n      0x00\n        /* \"#utility.yul\":6948:6954   */\n      dup4\n        /* \"#utility.yul\":6943:6946   */\n      dup4\n        /* \"#utility.yul\":6939:6955   */\n      add\n        /* \"#utility.yul\":6932:6959   */\n      mstore\n        /* \"#utility.yul\":6811:6965   */\n      pop\n      pop\n      pop\n      jump\t// out\n        /* \"#utility.yul\":6971:7291   */\n    tag_115:\n        /* \"#utility.yul\":7015:7021   */\n      0x00\n        /* \"#utility.yul\":7052:7053   */\n      0x02\n        /* \"#utility.yul\":7046:7050   */\n      dup3\n        /* \"#utility.yul\":7042:7054   */\n      div\n        /* \"#utility.yul\":7032:7054   */\n      swap1\n      pop\n        /* \"#utility.yul\":7099:7100   */\n      0x01\n        /* \"#utility.yul\":7093:7097   */\n      dup3\n        /* \"#utility.yul\":7089:7101   */\n      and\n        /* \"#utility.yul\":7120:7138   */\n      dup1\n        /* \"#utility.yul\":7110:7191   */\n      tag_231\n      jumpi\n        /* \"#utility.yul\":7176:7180   */\n      0x7f\n        /* \"#utility.yul\":7168:7174   */\n      dup3\n        /* \"#utility.yul\":7164:7181   */\n      and\n        /* \"#utility.yul\":7154:7181   */\n      swap2\n      pop\n        /* \"#utility.yul\":7110:7191   */\n    tag_231:\n        /* \"#utility.yul\":7238:7240   */\n      0x20\n        /* \"#utility.yul\":7230:7236   */\n      dup3\n        /* \"#utility.yul\":7227:7241   */\n      lt\n        /* \"#utility.yul\":7207:7225   */\n      dup2\n        /* \"#utility.yul\":7204:7242   */\n      eq\n        /* \"#utility.yul\":7201:7285   */\n      iszero\n      tag_232\n      jumpi\n        /* \"#utility.yul\":7257:7275   */\n      tag_233\n      tag_234\n      jump\t// in\n    tag_233:\n        /* \"#utility.yul\":7201:7285   */\n    tag_232:\n        /* \"#utility.yul\":7022:7291   */\n      pop\n        /* \"#utility.yul\":6971:7291   */\n      swap2\n      swap1\n      pop\n      jump\t// out\n        /* \"#utility.yul\":7297:7578   */\n    tag_208:\n        /* \"#utility.yul\":7380:7407   */\n      tag_236\n        /* \"#utility.yul\":7402:7406   */\n      dup3\n        /* \"#utility.yul\":7380:7407   */\n      tag_215\n      jump\t// in\n    tag_236:\n        /* \"#utility.yul\":7372:7378   */\n      dup2\n        /* \"#utility.yul\":7368:7408   */\n      add\n        /* \"#utility.yul\":7510:7516   */\n      dup2\n        /* \"#utility.yul\":7498:7508   */\n      dup2\n        /* \"#utility.yul\":7495:7517   */\n      lt\n        /* \"#utility.yul\":7474:7492   */\n      0xffffffffffffffff\n        /* \"#utility.yul\":7462:7472   */\n      dup3\n        /* \"#utility.yul\":7459:7493   */\n      gt\n        /* \"#utility.yul\":7456:7518   */\n      or\n        /* \"#utility.yul\":7453:7541   */\n      iszero\n      tag_237\n      jumpi\n        /* \"#utility.yul\":7521:7539   */\n      tag_238\n      tag_213\n      jump\t// in\n    tag_238:\n        /* \"#utility.yul\":7453:7541   */\n    tag_237:\n        /* \"#utility.yul\":7561:7571   */\n      dup1\n        /* \"#utility.yul\":7557:7559   */\n      0x40\n        /* \"#utility.yul\":7550:7572   */\n      mstore\n        /* \"#utility.yul\":7340:7578   */\n      pop\n        /* \"#utility.yul\":7297:7578   */\n      pop\n      pop\n      jump\t// out\n        /* \"#utility.yul\":7584:7817   */\n    tag_73:\n        /* \"#utility.yul\":7623:7626   */\n      0x00\n        /* \"#utility.yul\":7646:7670   */\n      tag_240\n        /* \"#utility.yul\":7664:7669   */\n      dup3\n        /* \"#utility.yul\":7646:7670   */\n      tag_193\n      jump\t// in\n    tag_240:\n        /* \"#utility.yul\":7637:7670   */\n      swap2\n      pop\n        /* \"#utility.yul\":7692:7758   */\n      0xffffffffffffffffffffffffffffffffffffffffffffffffffffffffffffffff\n        /* \"#utility.yul\":7685:7690   */\n      dup3\n        /* \"#utility.yul\":7682:7759   */\n      eq\n        /* \"#utility.yul\":7679:7782   */\n      iszero\n      tag_241\n      jumpi\n        /* \"#utility.yul\":7762:7780   */\n      tag_242\n      tag_222\n      jump\t// in\n    tag_242:\n        /* \"#utility.yul\":7679:7782   */\n    tag_241:\n        /* \"#utility.yul\":7809:7810   */\n      0x01\n        /* \"#utility.yul\":7802:7807   */\n      dup3\n        /* \"#utility.yul\":7798:7811   */\n      add\n        /* \"#utility.yul\":7791:7811   */\n      swap1\n      pop\n        /* \"#utility.yul\":7584:7817   */\n      swap2\n      swap1\n      pop\n      jump\t// out\n        /* \"#utility.yul\":7823:8003   */\n    tag_222:\n        /* \"#utility.yul\":7871:7948   */\n      0x4e487b7100000000000000000000000000000000000000000000000000000000\n        /* \"#utility.yul\":7868:7869   */\n      0x00\n        /* \"#utility.yul\":7861:7949   */\n      mstore\n        /* \"#utility.yul\":7968:7972   */\n      0x11\n        /* \"#utility.yul\":7965:7966   */\n      0x04\n        /* \"#utility.yul\":7958:7973   */\n      mstore\n        /* \"#utility.yul\":7992:7996   */\n      0x24\n        /* \"#utility.yul\":7989:7990   */\n      0x00\n        /* \"#utility.yul\":7982:7997   */\n      revert\n        /* \"#utility.yul\":8009:8189   */\n    tag_55:\n        /* \"#utility.yul\":8057:8134   */\n      0x4e487b7100000000000000000000000000000000000000000000000000000000\n        /* \"#utility.yul\":8054:8055   */\n      0x00\n        /* \"#utility.yul\":8047:8135   */\n      mstore\n        /* \"#utility.yul\":8154:8158   */\n      0x21\n        /* \"#utility.yul\":8151:8152   */\n      0x04\n        /* \"#utility.yul\":8144:8159   */\n      mstore\n        /* \"#utility.yul\":8178:8182   */\n      0x24\n        /* \"#utility.yul\":8175:8176   */\n      0x00\n        /* \"#utility.yul\":8168:8183   */\n      revert\n        /* \"#utility.yul\":8195:8375   */\n    tag_234:\n        /* \"#utility.yul\":8243:8320   */\n      0x4e487b7100000000000000000000000000000000000000000000000000000000\n        /* \"#utility.yul\":8240:8241   */\n      0x00\n        /* \"#utility.yul\":8233:8321   */\n      mstore\n        /* \"#utility.yul\":8340:8344   */\n      0x22\n        /* \"#utility.yul\":8337:8338   */\n      0x04\n        /* \"#utility.yul\":8330:8345   */\n      mstore\n        /* \"#utility.yul\":8364:8368   */\n      0x24\n        /* \"#utility.yul\":8361:8362   */\n      0x00\n        /* \"#utility.yul\":8354:8369   */\n      revert\n        /* \"#utility.yul\":8381:8561   */\n    tag_213:\n        /* \"#utility.yul\":8429:8506   */\n      0x4e487b7100000000000000000000000000000000000000000000000000000000\n        /* \"#utility.yul\":8426:8427   */\n      0x00\n        /* \"#utility.yul\":8419:8507   */\n      mstore\n        /* \"#utility.yul\":8526:8530   */\n      0x41\n        /* \"#utility.yul\":8523:8524   */\n      0x04\n        /* \"#utility.yul\":8516:8531   */\n      mstore\n        /* \"#utility.yul\":8550:8554   */\n      0x24\n        /* \"#utility.yul\":8547:8548   */\n      0x00\n        /* \"#utility.yul\":8540:8555   */\n      revert\n        /* \"#utility.yul\":8567:8684   */\n    tag_145:\n        /* \"#utility.yul\":8676:8677   */\n      0x00\n        /* \"#utility.yul\":8673:8674   */\n      dup1\n        /* \"#utility.yul\":8666:8678   */\n      revert\n        /* \"#utility.yul\":8690:8807   */\n    tag_134:\n        /* \"#utility.yul\":8799:8800   */\n      0x00\n        /* \"#utility.yul\":8796:8797   */\n      dup1\n        /* \"#utility.yul\":8789:8801   */\n      revert\n        /* \"#utility.yul\":8813:8930   */\n    tag_161:\n        /* \"#utility.yul\":8922:8923   */\n      0x00\n        /* \"#utility.yul\":8919:8920   */\n      dup1\n        /* \"#utility.yul\":8912:8924   */\n      revert\n        /* \"#utility.yul\":8936:9053   */\n    tag_154:\n        /* \"#utility.yul\":9045:9046   */\n      0x00\n        /* \"#utility.yul\":9042:9043   */\n      dup1\n        /* \"#utility.yul\":9035:9047   */\n      revert\n        /* \"#utility.yul\":9059:9161   */\n    tag_215:\n        /* \"#utility.yul\":9100:9106   */\n      0x00\n        /* \"#utility.yul\":9151:9153   */\n      0x1f\n        /* \"#utility.yul\":9147:9154   */\n      not\n        /* \"#utility.yul\":9142:9144   */\n      0x1f\n        /* \"#utility.yul\":9135:9140   */\n      dup4\n        /* \"#utility.yul\":9131:9145   */\n      add\n        /* \"#utility.yul\":9127:9155   */\n      and\n        /* \"#utility.yul\":9117:9155   */\n      swap1\n      pop\n        /* \"#utility.yul\":9059:9161   */\n      swap2\n      swap1\n      pop\n      jump\t// out\n        /* \"#utility.yul\":9167:9392   */\n    tag_184:\n        /* \"#utility.yul\":9307:9341   */\n      0x4f776e61626c653a206e6577206f776e657220697320746865207a65726f2061\n        /* \"#utility.yul\":9303:9304   */\n      0x00\n        /* \"#utility.yul\":9295:9301   */\n      dup3\n        /* \"#utility.yul\":9291:9305   */\n      add\n        /* \"#utility.yul\":9284:9342   */\n      mstore\n        /* \"#utility.yul\":9376:9384   */\n      0x6464726573730000000000000000000000000000000000000000000000000000\n        /* \"#utility.yul\":9371:9373   */\n      0x20\n        /* \"#utility.yul\":9363:9369   */\n      dup3\n        /* \"#utility.yul\":9359:9374   */\n      add\n        /* \"#utility.yul\":9352:9385   */\n      mstore\n        /* \"#utility.yul\":9167:9392   */\n      pop\n      jump\t// out\n        /* \"#utility.yul\":9398:9580   */\n    tag_189:\n        /* \"#utility.yul\":9538:9572   */\n      0x4f776e61626c653a2063616c6c6572206973206e6f7420746865206f776e6572\n        /* \"#utility.yul\":9534:9535   */\n      0x00\n        /* \"#utility.yul\":9526:9532   */\n      dup3\n        /* \"#utility.yul\":9522:9536   */\n      add\n        /* \"#utility.yul\":9515:9573   */\n      mstore\n        /* \"#utility.yul\":9398:9580   */\n      pop\n      jump\t// out\n        /* \"#utility.yul\":9586:9708   */\n    tag_140:\n        /* \"#utility.yul\":9659:9683   */\n      tag_255\n        /* \"#utility.yul\":9677:9682   */\n      dup2\n        /* \"#utility.yul\":9659:9683   */\n      tag_174\n      jump\t// in\n    tag_255:\n        /* \"#utility.yul\":9652:9657   */\n      dup2\n        /* \"#utility.yul\":9649:9684   */\n      eq\n        /* \"#utility.yul\":9639:9702   */\n      tag_256\n      jumpi\n        /* \"#utility.yul\":9698:9699   */\n      0x00\n        /* \"#utility.yul\":9695:9696   */\n      dup1\n        /* \"#utility.yul\":9688:9700   */\n      revert\n        /* \"#utility.yul\":9639:9702   */\n    tag_256:\n        /* \"#utility.yul\":9586:9708   */\n      pop\n      jump\t// out\n        /* \"#utility.yul\":9714:9836   */\n    tag_150:\n        /* \"#utility.yul\":9787:9811   */\n      tag_258\n        /* \"#utility.yul\":9805:9810   */\n      dup2\n        /* \"#utility.yul\":9787:9811   */\n      tag_193\n      jump\t// in\n    tag_258:\n        /* \"#utility.yul\":9780:9785   */\n      dup2\n        /* \"#utility.yul\":9777:9812   */\n      eq\n        /* \"#utility.yul\":9767:9830   */\n      tag_259\n      jumpi\n        /* \"#utility.yul\":9826:9827   */\n      0x00\n        /* \"#utility.yul\":9823:9824   */\n      dup1\n        /* \"#utility.yul\":9816:9828   */\n      revert\n        /* \"#utility.yul\":9767:9830   */\n    tag_259:\n        /* \"#utility.yul\":9714:9836   */\n      pop\n      jump\t// out\n\n    auxdata: 0xa26469706673582212203ab99da33d3d667e3006a920a3ce6fd7f14ce132b840c9dc4eb62ae07efd31de64736f6c63430008070033\n}\n",
				"bytecode": {
					"linkReferences": {},
					"object": "608060405261002061001561003460201b60201c565b61003c60201b60201c565b600160028190555060018081905550610100565b600033905090565b60008060009054906101000a900473ffffffffffffffffffffffffffffffffffffffff169050816000806101000a81548173ffffffffffffffffffffffffffffffffffffffff021916908373ffffffffffffffffffffffffffffffffffffffff1602179055508173ffffffffffffffffffffffffffffffffffffffff168173ffffffffffffffffffffffffffffffffffffffff167f8be0079c531659141344cd1fd0a4f28419497f9722a3daafe3b4186f6b6457e060405160405180910390a35050565b61148c8061010f6000396000f3fe608060405234801561001057600080fd5b506004361061007d5760003560e01c8063f2fde38b1161005b578063f2fde38b146100c6578063f514ce36146100e2578063f61104b814610100578063fcec18bf1461011c5761007d565b8063715018a6146100825780638da5cb5b1461008c578063bddf0d16146100aa575b600080fd5b61008a61014c565b005b610094610160565b6040516100a191906110a0565b60405180910390f35b6100c460048036038101906100bf9190610f5e565b610189565b005b6100e060048036038101906100db9190610f31565b610838565b005b6100ea6108bc565b6040516100f79190611116565b60405180910390f35b61011a60048036038101906101159190610f31565b6108c2565b005b61013660048036038101906101319190610f31565b6109b0565b60405161014391906110bb565b60405180910390f35b610154610a42565b61015e6000610ac0565b565b60008060009054906101000a900473ffffffffffffffffffffffffffffffffffffffff16905090565b610192336109b0565b61019b57600080fd5b6101a3610c88565b60025481602001818152505060015481600001818152505033816040019073ffffffffffffffffffffffffffffffffffffffff16908173ffffffffffffffffffffffffffffffffffffffff1681525050338160a001516000019073ffffffffffffffffffffffffffffffffffffffff16908173ffffffffffffffffffffffffffffffffffffffff1681525050858160a0015160200181905250848160a001516040018190525061025281610b84565b61025e81858585610c51565b600081606001906002811115610277576102766112fe565b5b9081600281111561028b5761028a6112fe565b5b8152505080600360006001548152602001908152602001600020600082015181600001556020820151816001015560408201518160020160006101000a81548173ffffffffffffffffffffffffffffffffffffffff021916908373ffffffffffffffffffffffffffffffffffffffff16021790555060608201518160020160146101000a81548160ff0219169083600281111561032b5761032a6112fe565b5b02179055506080820151816003016000820151816000019080519060200190610355929190610d21565b506020820151816001015560408201518160020155505060a08201518160060160008201518160000160006101000a81548173ffffffffffffffffffffffffffffffffffffffff021916908373ffffffffffffffffffffffffffffffffffffffff16021790555060208201518160010190805190602001906103d8929190610d21565b5060408201518160020190805190602001906103f5929190610d21565b50505060c08201518160090160008201518160000160006101000a81548173ffffffffffffffffffffffffffffffffffffffff021916908373ffffffffffffffffffffffffffffffffffffffff160217905550505060e082015181600a0160008201518160000160006101000a81548173ffffffffffffffffffffffffffffffffffffffff021916908373ffffffffffffffffffffffffffffffffffffffff160217905550505061010082015181600b0160008201518160000160006101000a81548173ffffffffffffffffffffffffffffffffffffffff021916908373ffffffffffffffffffffffffffffffffffffffff160217905550505061012082015181600c01908051906020019061050c929190610d21565b509050506004600060015481526020019081526020016000206000018190806001815401808255809150506001900390600052602060002090600d0201600090919091909150600082015181600001556020820151816001015560408201518160020160006101000a81548173ffffffffffffffffffffffffffffffffffffffff021916908373ffffffffffffffffffffffffffffffffffffffff16021790555060608201518160020160146101000a81548160ff021916908360028111156105d8576105d76112fe565b5b02179055506080820151816003016000820151816000019080519060200190610602929190610d21565b506020820151816001015560408201518160020155505060a08201518160060160008201518160000160006101000a81548173ffffffffffffffffffffffffffffffffffffffff021916908373ffffffffffffffffffffffffffffffffffffffff1602179055506020820151816001019080519060200190610685929190610d21565b5060408201518160020190805190602001906106a2929190610d21565b50505060c08201518160090160008201518160000160006101000a81548173ffffffffffffffffffffffffffffffffffffffff021916908373ffffffffffffffffffffffffffffffffffffffff160217905550505060e082015181600a0160008201518160000160006101000a81548173ffffffffffffffffffffffffffffffffffffffff021916908373ffffffffffffffffffffffffffffffffffffffff160217905550505061010082015181600b0160008201518160000160006101000a81548173ffffffffffffffffffffffffffffffffffffffff021916908373ffffffffffffffffffffffffffffffffffffffff160217905550505061012082015181600c0190805190602001906107b9929190610d21565b505050600260008154809291906107cf90611286565b9190505550600160008154809291906107e790611286565b91905055507fb55ecf2eb9ce3c54a45708010da84a35a897635e97a936f98c9804c5847b4d226001805461081b9190611198565b6040516108289190611116565b60405180910390a1505050505050565b610840610a42565b600073ffffffffffffffffffffffffffffffffffffffff168173ffffffffffffffffffffffffffffffffffffffff1614156108b0576040517f08c379a00000000000000000000000000000000000000000000000000000000081526004016108a7906110d6565b60405180910390fd5b6108b981610ac0565b50565b60015481565b600073ffffffffffffffffffffffffffffffffffffffff168173ffffffffffffffffffffffffffffffffffffffff1614156108fc57600080fd5b610905816109b0565b1561090f57600080fd5b6001600560008373ffffffffffffffffffffffffffffffffffffffff1673ffffffffffffffffffffffffffffffffffffffff16815260200190815260200160002060000160006101000a81548160ff0219169083151502179055508073ffffffffffffffffffffffffffffffffffffffff167f2e0ded4123377a3c2bc9a26f1717655a129e2f20752924d42e730ec89c83dbd060405160405180910390a250565b60008073ffffffffffffffffffffffffffffffffffffffff168273ffffffffffffffffffffffffffffffffffffffff1614156109eb57600080fd5b600560008373ffffffffffffffffffffffffffffffffffffffff1673ffffffffffffffffffffffffffffffffffffffff16815260200190815260200160002060000160009054906101000a900460ff169050919050565b610a4a610c80565b73ffffffffffffffffffffffffffffffffffffffff16610a68610160565b73ffffffffffffffffffffffffffffffffffffffff1614610abe576040517f08c379a0000000000000000000000000000000000000000000000000000000008152600401610ab5906110f6565b60405180910390fd5b565b60008060009054906101000a900473ffffffffffffffffffffffffffffffffffffffff169050816000806101000a81548173ffffffffffffffffffffffffffffffffffffffff021916908373ffffffffffffffffffffffffffffffffffffffff1602179055508173ffffffffffffffffffffffffffffffffffffffff168173ffffffffffffffffffffffffffffffffffffffff167f8be0079c531659141344cd1fd0a4f28419497f9722a3daafe3b4186f6b6457e060405160405180910390a35050565b60008060006060838560c001516000019073ffffffffffffffffffffffffffffffffffffffff16908173ffffffffffffffffffffffffffffffffffffffff1681525050828560e001516000019073ffffffffffffffffffffffffffffffffffffffff16908173ffffffffffffffffffffffffffffffffffffffff1681525050818561010001516000019073ffffffffffffffffffffffffffffffffffffffff16908173ffffffffffffffffffffffffffffffffffffffff1681525050808561012001819052505050505050565b828460800151600001819052508184608001516020018181525050808460800151604001818152505050505050565b600033905090565b6040518061014001604052806000815260200160008152602001600073ffffffffffffffffffffffffffffffffffffffff16815260200160006002811115610cd357610cd26112fe565b5b8152602001610ce0610da7565b8152602001610ced610dc8565b8152602001610cfa610dff565b8152602001610d07610e28565b8152602001610d14610e51565b8152602001606081525090565b828054610d2d90611223565b90600052602060002090601f016020900481019282610d4f5760008555610d96565b82601f10610d6857805160ff1916838001178555610d96565b82800160010185558215610d96579182015b82811115610d95578251825591602001919060010190610d7a565b5b509050610da39190610e7a565b5090565b60405180606001604052806060815260200160008152602001600081525090565b6040518060600160405280600073ffffffffffffffffffffffffffffffffffffffff16815260200160608152602001606081525090565b6040518060200160405280600073ffffffffffffffffffffffffffffffffffffffff1681525090565b6040518060200160405280600073ffffffffffffffffffffffffffffffffffffffff1681525090565b6040518060200160405280600073ffffffffffffffffffffffffffffffffffffffff1681525090565b5b80821115610e93576000816000905550600101610e7b565b5090565b6000610eaa610ea584611156565b611131565b905082815260208101848484011115610ec657610ec5611390565b5b610ed1848285611214565b509392505050565b600081359050610ee881611428565b92915050565b600082601f830112610f0357610f0261138b565b5b8135610f13848260208601610e97565b91505092915050565b600081359050610f2b8161143f565b92915050565b600060208284031215610f4757610f4661139a565b5b6000610f5584828501610ed9565b91505092915050565b600080600080600060a08688031215610f7a57610f7961139a565b5b600086013567ffffffffffffffff811115610f9857610f97611395565b5b610fa488828901610eee565b955050602086013567ffffffffffffffff811115610fc557610fc4611395565b5b610fd188828901610eee565b945050604086013567ffffffffffffffff811115610ff257610ff1611395565b5b610ffe88828901610eee565b935050606061100f88828901610f1c565b925050608061102088828901610f1c565b9150509295509295909350565b611036816111cc565b82525050565b611045816111de565b82525050565b6000611058602683611187565b9150611063826113b0565b604082019050919050565b600061107b602083611187565b9150611086826113ff565b602082019050919050565b61109a8161120a565b82525050565b60006020820190506110b5600083018461102d565b92915050565b60006020820190506110d0600083018461103c565b92915050565b600060208201905081810360008301526110ef8161104b565b9050919050565b6000602082019050818103600083015261110f8161106e565b9050919050565b600060208201905061112b6000830184611091565b92915050565b600061113b61114c565b90506111478282611255565b919050565b6000604051905090565b600067ffffffffffffffff8211156111715761117061135c565b5b61117a8261139f565b9050602081019050919050565b600082825260208201905092915050565b60006111a38261120a565b91506111ae8361120a565b9250828210156111c1576111c06112cf565b5b828203905092915050565b60006111d7826111ea565b9050919050565b60008115159050919050565b600073ffffffffffffffffffffffffffffffffffffffff82169050919050565b6000819050919050565b82818337600083830152505050565b6000600282049050600182168061123b57607f821691505b6020821081141561124f5761124e61132d565b5b50919050565b61125e8261139f565b810181811067ffffffffffffffff8211171561127d5761127c61135c565b5b80604052505050565b60006112918261120a565b91507fffffffffffffffffffffffffffffffffffffffffffffffffffffffffffffffff8214156112c4576112c36112cf565b5b600182019050919050565b7f4e487b7100000000000000000000000000000000000000000000000000000000600052601160045260246000fd5b7f4e487b7100000000000000000000000000000000000000000000000000000000600052602160045260246000fd5b7f4e487b7100000000000000000000000000000000000000000000000000000000600052602260045260246000fd5b7f4e487b7100000000000000000000000000000000000000000000000000000000600052604160045260246000fd5b600080fd5b600080fd5b600080fd5b600080fd5b6000601f19601f8301169050919050565b7f4f776e61626c653a206e6577206f776e657220697320746865207a65726f206160008201527f6464726573730000000000000000000000000000000000000000000000000000602082015250565b7f4f776e61626c653a2063616c6c6572206973206e6f7420746865206f776e6572600082015250565b611431816111cc565b811461143c57600080fd5b50565b6114488161120a565b811461145357600080fd5b5056fea26469706673582212203ab99da33d3d667e3006a920a3ce6fd7f14ce132b840c9dc4eb62ae07efd31de64736f6c63430008070033",
					"opcodes": "PUSH1 0x80 PUSH1 0x40 MSTORE PUSH2 0x20 PUSH2 0x15 PUSH2 0x34 PUSH1 0x20 SHL PUSH1 0x20 SHR JUMP JUMPDEST PUSH2 0x3C PUSH1 0x20 SHL PUSH1 0x20 SHR JUMP JUMPDEST PUSH1 0x1 PUSH1 0x2 DUP2 SWAP1 SSTORE POP PUSH1 0x1 DUP1 DUP2 SWAP1 SSTORE POP PUSH2 0x100 JUMP JUMPDEST PUSH1 0x0 CALLER SWAP1 POP SWAP1 JUMP JUMPDEST PUSH1 0x0 DUP1 PUSH1 0x0 SWAP1 SLOAD SWAP1 PUSH2 0x100 EXP SWAP1 DIV PUSH20 0xFFFFFFFFFFFFFFFFFFFFFFFFFFFFFFFFFFFFFFFF AND SWAP1 POP DUP2 PUSH1 0x0 DUP1 PUSH2 0x100 EXP DUP2 SLOAD DUP2 PUSH20 0xFFFFFFFFFFFFFFFFFFFFFFFFFFFFFFFFFFFFFFFF MUL NOT AND SWAP1 DUP4 PUSH20 0xFFFFFFFFFFFFFFFFFFFFFFFFFFFFFFFFFFFFFFFF AND MUL OR SWAP1 SSTORE POP DUP2 PUSH20 0xFFFFFFFFFFFFFFFFFFFFFFFFFFFFFFFFFFFFFFFF AND DUP2 PUSH20 0xFFFFFFFFFFFFFFFFFFFFFFFFFFFFFFFFFFFFFFFF AND PUSH32 0x8BE0079C531659141344CD1FD0A4F28419497F9722A3DAAFE3B4186F6B6457E0 PUSH1 0x40 MLOAD PUSH1 0x40 MLOAD DUP1 SWAP2 SUB SWAP1 LOG3 POP POP JUMP JUMPDEST PUSH2 0x148C DUP1 PUSH2 0x10F PUSH1 0x0 CODECOPY PUSH1 0x0 RETURN INVALID PUSH1 0x80 PUSH1 0x40 MSTORE CALLVALUE DUP1 ISZERO PUSH2 0x10 JUMPI PUSH1 0x0 DUP1 REVERT JUMPDEST POP PUSH1 0x4 CALLDATASIZE LT PUSH2 0x7D JUMPI PUSH1 0x0 CALLDATALOAD PUSH1 0xE0 SHR DUP1 PUSH4 0xF2FDE38B GT PUSH2 0x5B JUMPI DUP1 PUSH4 0xF2FDE38B EQ PUSH2 0xC6 JUMPI DUP1 PUSH4 0xF514CE36 EQ PUSH2 0xE2 JUMPI DUP1 PUSH4 0xF61104B8 EQ PUSH2 0x100 JUMPI DUP1 PUSH4 0xFCEC18BF EQ PUSH2 0x11C JUMPI PUSH2 0x7D JUMP JUMPDEST DUP1 PUSH4 0x715018A6 EQ PUSH2 0x82 JUMPI DUP1 PUSH4 0x8DA5CB5B EQ PUSH2 0x8C JUMPI DUP1 PUSH4 0xBDDF0D16 EQ PUSH2 0xAA JUMPI JUMPDEST PUSH1 0x0 DUP1 REVERT JUMPDEST PUSH2 0x8A PUSH2 0x14C JUMP JUMPDEST STOP JUMPDEST PUSH2 0x94 PUSH2 0x160 JUMP JUMPDEST PUSH1 0x40 MLOAD PUSH2 0xA1 SWAP2 SWAP1 PUSH2 0x10A0 JUMP JUMPDEST PUSH1 0x40 MLOAD DUP1 SWAP2 SUB SWAP1 RETURN JUMPDEST PUSH2 0xC4 PUSH1 0x4 DUP1 CALLDATASIZE SUB DUP2 ADD SWAP1 PUSH2 0xBF SWAP2 SWAP1 PUSH2 0xF5E JUMP JUMPDEST PUSH2 0x189 JUMP JUMPDEST STOP JUMPDEST PUSH2 0xE0 PUSH1 0x4 DUP1 CALLDATASIZE SUB DUP2 ADD SWAP1 PUSH2 0xDB SWAP2 SWAP1 PUSH2 0xF31 JUMP JUMPDEST PUSH2 0x838 JUMP JUMPDEST STOP JUMPDEST PUSH2 0xEA PUSH2 0x8BC JUMP JUMPDEST PUSH1 0x40 MLOAD PUSH2 0xF7 SWAP2 SWAP1 PUSH2 0x1116 JUMP JUMPDEST PUSH1 0x40 MLOAD DUP1 SWAP2 SUB SWAP1 RETURN JUMPDEST PUSH2 0x11A PUSH1 0x4 DUP1 CALLDATASIZE SUB DUP2 ADD SWAP1 PUSH2 0x115 SWAP2 SWAP1 PUSH2 0xF31 JUMP JUMPDEST PUSH2 0x8C2 JUMP JUMPDEST STOP JUMPDEST PUSH2 0x136 PUSH1 0x4 DUP1 CALLDATASIZE SUB DUP2 ADD SWAP1 PUSH2 0x131 SWAP2 SWAP1 PUSH2 0xF31 JUMP JUMPDEST PUSH2 0x9B0 JUMP JUMPDEST PUSH1 0x40 MLOAD PUSH2 0x143 SWAP2 SWAP1 PUSH2 0x10BB JUMP JUMPDEST PUSH1 0x40 MLOAD DUP1 SWAP2 SUB SWAP1 RETURN JUMPDEST PUSH2 0x154 PUSH2 0xA42 JUMP JUMPDEST PUSH2 0x15E PUSH1 0x0 PUSH2 0xAC0 JUMP JUMPDEST JUMP JUMPDEST PUSH1 0x0 DUP1 PUSH1 0x0 SWAP1 SLOAD SWAP1 PUSH2 0x100 EXP SWAP1 DIV PUSH20 0xFFFFFFFFFFFFFFFFFFFFFFFFFFFFFFFFFFFFFFFF AND SWAP1 POP SWAP1 JUMP JUMPDEST PUSH2 0x192 CALLER PUSH2 0x9B0 JUMP JUMPDEST PUSH2 0x19B JUMPI PUSH1 0x0 DUP1 REVERT JUMPDEST PUSH2 0x1A3 PUSH2 0xC88 JUMP JUMPDEST PUSH1 0x2 SLOAD DUP2 PUSH1 0x20 ADD DUP2 DUP2 MSTORE POP POP PUSH1 0x1 SLOAD DUP2 PUSH1 0x0 ADD DUP2 DUP2 MSTORE POP POP CALLER DUP2 PUSH1 0x40 ADD SWAP1 PUSH20 0xFFFFFFFFFFFFFFFFFFFFFFFFFFFFFFFFFFFFFFFF AND SWAP1 DUP2 PUSH20 0xFFFFFFFFFFFFFFFFFFFFFFFFFFFFFFFFFFFFFFFF AND DUP2 MSTORE POP POP CALLER DUP2 PUSH1 0xA0 ADD MLOAD PUSH1 0x0 ADD SWAP1 PUSH20 0xFFFFFFFFFFFFFFFFFFFFFFFFFFFFFFFFFFFFFFFF AND SWAP1 DUP2 PUSH20 0xFFFFFFFFFFFFFFFFFFFFFFFFFFFFFFFFFFFFFFFF AND DUP2 MSTORE POP POP DUP6 DUP2 PUSH1 0xA0 ADD MLOAD PUSH1 0x20 ADD DUP2 SWAP1 MSTORE POP DUP5 DUP2 PUSH1 0xA0 ADD MLOAD PUSH1 0x40 ADD DUP2 SWAP1 MSTORE POP PUSH2 0x252 DUP2 PUSH2 0xB84 JUMP JUMPDEST PUSH2 0x25E DUP2 DUP6 DUP6 DUP6 PUSH2 0xC51 JUMP JUMPDEST PUSH1 0x0 DUP2 PUSH1 0x60 ADD SWAP1 PUSH1 0x2 DUP2 GT ISZERO PUSH2 0x277 JUMPI PUSH2 0x276 PUSH2 0x12FE JUMP JUMPDEST JUMPDEST SWAP1 DUP2 PUSH1 0x2 DUP2 GT ISZERO PUSH2 0x28B JUMPI PUSH2 0x28A PUSH2 0x12FE JUMP JUMPDEST JUMPDEST DUP2 MSTORE POP POP DUP1 PUSH1 0x3 PUSH1 0x0 PUSH1 0x1 SLOAD DUP2 MSTORE PUSH1 0x20 ADD SWAP1 DUP2 MSTORE PUSH1 0x20 ADD PUSH1 0x0 KECCAK256 PUSH1 0x0 DUP3 ADD MLOAD DUP2 PUSH1 0x0 ADD SSTORE PUSH1 0x20 DUP3 ADD MLOAD DUP2 PUSH1 0x1 ADD SSTORE PUSH1 0x40 DUP3 ADD MLOAD DUP2 PUSH1 0x2 ADD PUSH1 0x0 PUSH2 0x100 EXP DUP2 SLOAD DUP2 PUSH20 0xFFFFFFFFFFFFFFFFFFFFFFFFFFFFFFFFFFFFFFFF MUL NOT AND SWAP1 DUP4 PUSH20 0xFFFFFFFFFFFFFFFFFFFFFFFFFFFFFFFFFFFFFFFF AND MUL OR SWAP1 SSTORE POP PUSH1 0x60 DUP3 ADD MLOAD DUP2 PUSH1 0x2 ADD PUSH1 0x14 PUSH2 0x100 EXP DUP2 SLOAD DUP2 PUSH1 0xFF MUL NOT AND SWAP1 DUP4 PUSH1 0x2 DUP2 GT ISZERO PUSH2 0x32B JUMPI PUSH2 0x32A PUSH2 0x12FE JUMP JUMPDEST JUMPDEST MUL OR SWAP1 SSTORE POP PUSH1 0x80 DUP3 ADD MLOAD DUP2 PUSH1 0x3 ADD PUSH1 0x0 DUP3 ADD MLOAD DUP2 PUSH1 0x0 ADD SWAP1 DUP1 MLOAD SWAP1 PUSH1 0x20 ADD SWAP1 PUSH2 0x355 SWAP3 SWAP2 SWAP1 PUSH2 0xD21 JUMP JUMPDEST POP PUSH1 0x20 DUP3 ADD MLOAD DUP2 PUSH1 0x1 ADD SSTORE PUSH1 0x40 DUP3 ADD MLOAD DUP2 PUSH1 0x2 ADD SSTORE POP POP PUSH1 0xA0 DUP3 ADD MLOAD DUP2 PUSH1 0x6 ADD PUSH1 0x0 DUP3 ADD MLOAD DUP2 PUSH1 0x0 ADD PUSH1 0x0 PUSH2 0x100 EXP DUP2 SLOAD DUP2 PUSH20 0xFFFFFFFFFFFFFFFFFFFFFFFFFFFFFFFFFFFFFFFF MUL NOT AND SWAP1 DUP4 PUSH20 0xFFFFFFFFFFFFFFFFFFFFFFFFFFFFFFFFFFFFFFFF AND MUL OR SWAP1 SSTORE POP PUSH1 0x20 DUP3 ADD MLOAD DUP2 PUSH1 0x1 ADD SWAP1 DUP1 MLOAD SWAP1 PUSH1 0x20 ADD SWAP1 PUSH2 0x3D8 SWAP3 SWAP2 SWAP1 PUSH2 0xD21 JUMP JUMPDEST POP PUSH1 0x40 DUP3 ADD MLOAD DUP2 PUSH1 0x2 ADD SWAP1 DUP1 MLOAD SWAP1 PUSH1 0x20 ADD SWAP1 PUSH2 0x3F5 SWAP3 SWAP2 SWAP1 PUSH2 0xD21 JUMP JUMPDEST POP POP POP PUSH1 0xC0 DUP3 ADD MLOAD DUP2 PUSH1 0x9 ADD PUSH1 0x0 DUP3 ADD MLOAD DUP2 PUSH1 0x0 ADD PUSH1 0x0 PUSH2 0x100 EXP DUP2 SLOAD DUP2 PUSH20 0xFFFFFFFFFFFFFFFFFFFFFFFFFFFFFFFFFFFFFFFF MUL NOT AND SWAP1 DUP4 PUSH20 0xFFFFFFFFFFFFFFFFFFFFFFFFFFFFFFFFFFFFFFFF AND MUL OR SWAP1 SSTORE POP POP POP PUSH1 0xE0 DUP3 ADD MLOAD DUP2 PUSH1 0xA ADD PUSH1 0x0 DUP3 ADD MLOAD DUP2 PUSH1 0x0 ADD PUSH1 0x0 PUSH2 0x100 EXP DUP2 SLOAD DUP2 PUSH20 0xFFFFFFFFFFFFFFFFFFFFFFFFFFFFFFFFFFFFFFFF MUL NOT AND SWAP1 DUP4 PUSH20 0xFFFFFFFFFFFFFFFFFFFFFFFFFFFFFFFFFFFFFFFF AND MUL OR SWAP1 SSTORE POP POP POP PUSH2 0x100 DUP3 ADD MLOAD DUP2 PUSH1 0xB ADD PUSH1 0x0 DUP3 ADD MLOAD DUP2 PUSH1 0x0 ADD PUSH1 0x0 PUSH2 0x100 EXP DUP2 SLOAD DUP2 PUSH20 0xFFFFFFFFFFFFFFFFFFFFFFFFFFFFFFFFFFFFFFFF MUL NOT AND SWAP1 DUP4 PUSH20 0xFFFFFFFFFFFFFFFFFFFFFFFFFFFFFFFFFFFFFFFF AND MUL OR SWAP1 SSTORE POP POP POP PUSH2 0x120 DUP3 ADD MLOAD DUP2 PUSH1 0xC ADD SWAP1 DUP1 MLOAD SWAP1 PUSH1 0x20 ADD SWAP1 PUSH2 0x50C SWAP3 SWAP2 SWAP1 PUSH2 0xD21 JUMP JUMPDEST POP SWAP1 POP POP PUSH1 0x4 PUSH1 0x0 PUSH1 0x1 SLOAD DUP2 MSTORE PUSH1 0x20 ADD SWAP1 DUP2 MSTORE PUSH1 0x20 ADD PUSH1 0x0 KECCAK256 PUSH1 0x0 ADD DUP2 SWAP1 DUP1 PUSH1 0x1 DUP2 SLOAD ADD DUP1 DUP3 SSTORE DUP1 SWAP2 POP POP PUSH1 0x1 SWAP1 SUB SWAP1 PUSH1 0x0 MSTORE PUSH1 0x20 PUSH1 0x0 KECCAK256 SWAP1 PUSH1 0xD MUL ADD PUSH1 0x0 SWAP1 SWAP2 SWAP1 SWAP2 SWAP1 SWAP2 POP PUSH1 0x0 DUP3 ADD MLOAD DUP2 PUSH1 0x0 ADD SSTORE PUSH1 0x20 DUP3 ADD MLOAD DUP2 PUSH1 0x1 ADD SSTORE PUSH1 0x40 DUP3 ADD MLOAD DUP2 PUSH1 0x2 ADD PUSH1 0x0 PUSH2 0x100 EXP DUP2 SLOAD DUP2 PUSH20 0xFFFFFFFFFFFFFFFFFFFFFFFFFFFFFFFFFFFFFFFF MUL NOT AND SWAP1 DUP4 PUSH20 0xFFFFFFFFFFFFFFFFFFFFFFFFFFFFFFFFFFFFFFFF AND MUL OR SWAP1 SSTORE POP PUSH1 0x60 DUP3 ADD MLOAD DUP2 PUSH1 0x2 ADD PUSH1 0x14 PUSH2 0x100 EXP DUP2 SLOAD DUP2 PUSH1 0xFF MUL NOT AND SWAP1 DUP4 PUSH1 0x2 DUP2 GT ISZERO PUSH2 0x5D8 JUMPI PUSH2 0x5D7 PUSH2 0x12FE JUMP JUMPDEST JUMPDEST MUL OR SWAP1 SSTORE POP PUSH1 0x80 DUP3 ADD MLOAD DUP2 PUSH1 0x3 ADD PUSH1 0x0 DUP3 ADD MLOAD DUP2 PUSH1 0x0 ADD SWAP1 DUP1 MLOAD SWAP1 PUSH1 0x20 ADD SWAP1 PUSH2 0x602 SWAP3 SWAP2 SWAP1 PUSH2 0xD21 JUMP JUMPDEST POP PUSH1 0x20 DUP3 ADD MLOAD DUP2 PUSH1 0x1 ADD SSTORE PUSH1 0x40 DUP3 ADD MLOAD DUP2 PUSH1 0x2 ADD SSTORE POP POP PUSH1 0xA0 DUP3 ADD MLOAD DUP2 PUSH1 0x6 ADD PUSH1 0x0 DUP3 ADD MLOAD DUP2 PUSH1 0x0 ADD PUSH1 0x0 PUSH2 0x100 EXP DUP2 SLOAD DUP2 PUSH20 0xFFFFFFFFFFFFFFFFFFFFFFFFFFFFFFFFFFFFFFFF MUL NOT AND SWAP1 DUP4 PUSH20 0xFFFFFFFFFFFFFFFFFFFFFFFFFFFFFFFFFFFFFFFF AND MUL OR SWAP1 SSTORE POP PUSH1 0x20 DUP3 ADD MLOAD DUP2 PUSH1 0x1 ADD SWAP1 DUP1 MLOAD SWAP1 PUSH1 0x20 ADD SWAP1 PUSH2 0x685 SWAP3 SWAP2 SWAP1 PUSH2 0xD21 JUMP JUMPDEST POP PUSH1 0x40 DUP3 ADD MLOAD DUP2 PUSH1 0x2 ADD SWAP1 DUP1 MLOAD SWAP1 PUSH1 0x20 ADD SWAP1 PUSH2 0x6A2 SWAP3 SWAP2 SWAP1 PUSH2 0xD21 JUMP JUMPDEST POP POP POP PUSH1 0xC0 DUP3 ADD MLOAD DUP2 PUSH1 0x9 ADD PUSH1 0x0 DUP3 ADD MLOAD DUP2 PUSH1 0x0 ADD PUSH1 0x0 PUSH2 0x100 EXP DUP2 SLOAD DUP2 PUSH20 0xFFFFFFFFFFFFFFFFFFFFFFFFFFFFFFFFFFFFFFFF MUL NOT AND SWAP1 DUP4 PUSH20 0xFFFFFFFFFFFFFFFFFFFFFFFFFFFFFFFFFFFFFFFF AND MUL OR SWAP1 SSTORE POP POP POP PUSH1 0xE0 DUP3 ADD MLOAD DUP2 PUSH1 0xA ADD PUSH1 0x0 DUP3 ADD MLOAD DUP2 PUSH1 0x0 ADD PUSH1 0x0 PUSH2 0x100 EXP DUP2 SLOAD DUP2 PUSH20 0xFFFFFFFFFFFFFFFFFFFFFFFFFFFFFFFFFFFFFFFF MUL NOT AND SWAP1 DUP4 PUSH20 0xFFFFFFFFFFFFFFFFFFFFFFFFFFFFFFFFFFFFFFFF AND MUL OR SWAP1 SSTORE POP POP POP PUSH2 0x100 DUP3 ADD MLOAD DUP2 PUSH1 0xB ADD PUSH1 0x0 DUP3 ADD MLOAD DUP2 PUSH1 0x0 ADD PUSH1 0x0 PUSH2 0x100 EXP DUP2 SLOAD DUP2 PUSH20 0xFFFFFFFFFFFFFFFFFFFFFFFFFFFFFFFFFFFFFFFF MUL NOT AND SWAP1 DUP4 PUSH20 0xFFFFFFFFFFFFFFFFFFFFFFFFFFFFFFFFFFFFFFFF AND MUL OR SWAP1 SSTORE POP POP POP PUSH2 0x120 DUP3 ADD MLOAD DUP2 PUSH1 0xC ADD SWAP1 DUP1 MLOAD SWAP1 PUSH1 0x20 ADD SWAP1 PUSH2 0x7B9 SWAP3 SWAP2 SWAP1 PUSH2 0xD21 JUMP JUMPDEST POP POP POP PUSH1 0x2 PUSH1 0x0 DUP2 SLOAD DUP1 SWAP3 SWAP2 SWAP1 PUSH2 0x7CF SWAP1 PUSH2 0x1286 JUMP JUMPDEST SWAP2 SWAP1 POP SSTORE POP PUSH1 0x1 PUSH1 0x0 DUP2 SLOAD DUP1 SWAP3 SWAP2 SWAP1 PUSH2 0x7E7 SWAP1 PUSH2 0x1286 JUMP JUMPDEST SWAP2 SWAP1 POP SSTORE POP PUSH32 0xB55ECF2EB9CE3C54A45708010DA84A35A897635E97A936F98C9804C5847B4D22 PUSH1 0x1 DUP1 SLOAD PUSH2 0x81B SWAP2 SWAP1 PUSH2 0x1198 JUMP JUMPDEST PUSH1 0x40 MLOAD PUSH2 0x828 SWAP2 SWAP1 PUSH2 0x1116 JUMP JUMPDEST PUSH1 0x40 MLOAD DUP1 SWAP2 SUB SWAP1 LOG1 POP POP POP POP POP POP JUMP JUMPDEST PUSH2 0x840 PUSH2 0xA42 JUMP JUMPDEST PUSH1 0x0 PUSH20 0xFFFFFFFFFFFFFFFFFFFFFFFFFFFFFFFFFFFFFFFF AND DUP2 PUSH20 0xFFFFFFFFFFFFFFFFFFFFFFFFFFFFFFFFFFFFFFFF AND EQ ISZERO PUSH2 0x8B0 JUMPI PUSH1 0x40 MLOAD PUSH32 0x8C379A000000000000000000000000000000000000000000000000000000000 DUP2 MSTORE PUSH1 0x4 ADD PUSH2 0x8A7 SWAP1 PUSH2 0x10D6 JUMP JUMPDEST PUSH1 0x40 MLOAD DUP1 SWAP2 SUB SWAP1 REVERT JUMPDEST PUSH2 0x8B9 DUP2 PUSH2 0xAC0 JUMP JUMPDEST POP JUMP JUMPDEST PUSH1 0x1 SLOAD DUP2 JUMP JUMPDEST PUSH1 0x0 PUSH20 0xFFFFFFFFFFFFFFFFFFFFFFFFFFFFFFFFFFFFFFFF AND DUP2 PUSH20 0xFFFFFFFFFFFFFFFFFFFFFFFFFFFFFFFFFFFFFFFF AND EQ ISZERO PUSH2 0x8FC JUMPI PUSH1 0x0 DUP1 REVERT JUMPDEST PUSH2 0x905 DUP2 PUSH2 0x9B0 JUMP JUMPDEST ISZERO PUSH2 0x90F JUMPI PUSH1 0x0 DUP1 REVERT JUMPDEST PUSH1 0x1 PUSH1 0x5 PUSH1 0x0 DUP4 PUSH20 0xFFFFFFFFFFFFFFFFFFFFFFFFFFFFFFFFFFFFFFFF AND PUSH20 0xFFFFFFFFFFFFFFFFFFFFFFFFFFFFFFFFFFFFFFFF AND DUP2 MSTORE PUSH1 0x20 ADD SWAP1 DUP2 MSTORE PUSH1 0x20 ADD PUSH1 0x0 KECCAK256 PUSH1 0x0 ADD PUSH1 0x0 PUSH2 0x100 EXP DUP2 SLOAD DUP2 PUSH1 0xFF MUL NOT AND SWAP1 DUP4 ISZERO ISZERO MUL OR SWAP1 SSTORE POP DUP1 PUSH20 0xFFFFFFFFFFFFFFFFFFFFFFFFFFFFFFFFFFFFFFFF AND PUSH32 0x2E0DED4123377A3C2BC9A26F1717655A129E2F20752924D42E730EC89C83DBD0 PUSH1 0x40 MLOAD PUSH1 0x40 MLOAD DUP1 SWAP2 SUB SWAP1 LOG2 POP JUMP JUMPDEST PUSH1 0x0 DUP1 PUSH20 0xFFFFFFFFFFFFFFFFFFFFFFFFFFFFFFFFFFFFFFFF AND DUP3 PUSH20 0xFFFFFFFFFFFFFFFFFFFFFFFFFFFFFFFFFFFFFFFF AND EQ ISZERO PUSH2 0x9EB JUMPI PUSH1 0x0 DUP1 REVERT JUMPDEST PUSH1 0x5 PUSH1 0x0 DUP4 PUSH20 0xFFFFFFFFFFFFFFFFFFFFFFFFFFFFFFFFFFFFFFFF AND PUSH20 0xFFFFFFFFFFFFFFFFFFFFFFFFFFFFFFFFFFFFFFFF AND DUP2 MSTORE PUSH1 0x20 ADD SWAP1 DUP2 MSTORE PUSH1 0x20 ADD PUSH1 0x0 KECCAK256 PUSH1 0x0 ADD PUSH1 0x0 SWAP1 SLOAD SWAP1 PUSH2 0x100 EXP SWAP1 DIV PUSH1 0xFF AND SWAP1 POP SWAP2 SWAP1 POP JUMP JUMPDEST PUSH2 0xA4A PUSH2 0xC80 JUMP JUMPDEST PUSH20 0xFFFFFFFFFFFFFFFFFFFFFFFFFFFFFFFFFFFFFFFF AND PUSH2 0xA68 PUSH2 0x160 JUMP JUMPDEST PUSH20 0xFFFFFFFFFFFFFFFFFFFFFFFFFFFFFFFFFFFFFFFF AND EQ PUSH2 0xABE JUMPI PUSH1 0x40 MLOAD PUSH32 0x8C379A000000000000000000000000000000000000000000000000000000000 DUP2 MSTORE PUSH1 0x4 ADD PUSH2 0xAB5 SWAP1 PUSH2 0x10F6 JUMP JUMPDEST PUSH1 0x40 MLOAD DUP1 SWAP2 SUB SWAP1 REVERT JUMPDEST JUMP JUMPDEST PUSH1 0x0 DUP1 PUSH1 0x0 SWAP1 SLOAD SWAP1 PUSH2 0x100 EXP SWAP1 DIV PUSH20 0xFFFFFFFFFFFFFFFFFFFFFFFFFFFFFFFFFFFFFFFF AND SWAP1 POP DUP2 PUSH1 0x0 DUP1 PUSH2 0x100 EXP DUP2 SLOAD DUP2 PUSH20 0xFFFFFFFFFFFFFFFFFFFFFFFFFFFFFFFFFFFFFFFF MUL NOT AND SWAP1 DUP4 PUSH20 0xFFFFFFFFFFFFFFFFFFFFFFFFFFFFFFFFFFFFFFFF AND MUL OR SWAP1 SSTORE POP DUP2 PUSH20 0xFFFFFFFFFFFFFFFFFFFFFFFFFFFFFFFFFFFFFFFF AND DUP2 PUSH20 0xFFFFFFFFFFFFFFFFFFFFFFFFFFFFFFFFFFFFFFFF AND PUSH32 0x8BE0079C531659141344CD1FD0A4F28419497F9722A3DAAFE3B4186F6B6457E0 PUSH1 0x40 MLOAD PUSH1 0x40 MLOAD DUP1 SWAP2 SUB SWAP1 LOG3 POP POP JUMP JUMPDEST PUSH1 0x0 DUP1 PUSH1 0x0 PUSH1 0x60 DUP4 DUP6 PUSH1 0xC0 ADD MLOAD PUSH1 0x0 ADD SWAP1 PUSH20 0xFFFFFFFFFFFFFFFFFFFFFFFFFFFFFFFFFFFFFFFF AND SWAP1 DUP2 PUSH20 0xFFFFFFFFFFFFFFFFFFFFFFFFFFFFFFFFFFFFFFFF AND DUP2 MSTORE POP POP DUP3 DUP6 PUSH1 0xE0 ADD MLOAD PUSH1 0x0 ADD SWAP1 PUSH20 0xFFFFFFFFFFFFFFFFFFFFFFFFFFFFFFFFFFFFFFFF AND SWAP1 DUP2 PUSH20 0xFFFFFFFFFFFFFFFFFFFFFFFFFFFFFFFFFFFFFFFF AND DUP2 MSTORE POP POP DUP2 DUP6 PUSH2 0x100 ADD MLOAD PUSH1 0x0 ADD SWAP1 PUSH20 0xFFFFFFFFFFFFFFFFFFFFFFFFFFFFFFFFFFFFFFFF AND SWAP1 DUP2 PUSH20 0xFFFFFFFFFFFFFFFFFFFFFFFFFFFFFFFFFFFFFFFF AND DUP2 MSTORE POP POP DUP1 DUP6 PUSH2 0x120 ADD DUP2 SWAP1 MSTORE POP POP POP POP POP POP JUMP JUMPDEST DUP3 DUP5 PUSH1 0x80 ADD MLOAD PUSH1 0x0 ADD DUP2 SWAP1 MSTORE POP DUP2 DUP5 PUSH1 0x80 ADD MLOAD PUSH1 0x20 ADD DUP2 DUP2 MSTORE POP POP DUP1 DUP5 PUSH1 0x80 ADD MLOAD PUSH1 0x40 ADD DUP2 DUP2 MSTORE POP POP POP POP POP POP JUMP JUMPDEST PUSH1 0x0 CALLER SWAP1 POP SWAP1 JUMP JUMPDEST PUSH1 0x40 MLOAD DUP1 PUSH2 0x140 ADD PUSH1 0x40 MSTORE DUP1 PUSH1 0x0 DUP2 MSTORE PUSH1 0x20 ADD PUSH1 0x0 DUP2 MSTORE PUSH1 0x20 ADD PUSH1 0x0 PUSH20 0xFFFFFFFFFFFFFFFFFFFFFFFFFFFFFFFFFFFFFFFF AND DUP2 MSTORE PUSH1 0x20 ADD PUSH1 0x0 PUSH1 0x2 DUP2 GT ISZERO PUSH2 0xCD3 JUMPI PUSH2 0xCD2 PUSH2 0x12FE JUMP JUMPDEST JUMPDEST DUP2 MSTORE PUSH1 0x20 ADD PUSH2 0xCE0 PUSH2 0xDA7 JUMP JUMPDEST DUP2 MSTORE PUSH1 0x20 ADD PUSH2 0xCED PUSH2 0xDC8 JUMP JUMPDEST DUP2 MSTORE PUSH1 0x20 ADD PUSH2 0xCFA PUSH2 0xDFF JUMP JUMPDEST DUP2 MSTORE PUSH1 0x20 ADD PUSH2 0xD07 PUSH2 0xE28 JUMP JUMPDEST DUP2 MSTORE PUSH1 0x20 ADD PUSH2 0xD14 PUSH2 0xE51 JUMP JUMPDEST DUP2 MSTORE PUSH1 0x20 ADD PUSH1 0x60 DUP2 MSTORE POP SWAP1 JUMP JUMPDEST DUP3 DUP1 SLOAD PUSH2 0xD2D SWAP1 PUSH2 0x1223 JUMP JUMPDEST SWAP1 PUSH1 0x0 MSTORE PUSH1 0x20 PUSH1 0x0 KECCAK256 SWAP1 PUSH1 0x1F ADD PUSH1 0x20 SWAP1 DIV DUP2 ADD SWAP3 DUP3 PUSH2 0xD4F JUMPI PUSH1 0x0 DUP6 SSTORE PUSH2 0xD96 JUMP JUMPDEST DUP3 PUSH1 0x1F LT PUSH2 0xD68 JUMPI DUP1 MLOAD PUSH1 0xFF NOT AND DUP4 DUP1 ADD OR DUP6 SSTORE PUSH2 0xD96 JUMP JUMPDEST DUP3 DUP1 ADD PUSH1 0x1 ADD DUP6 SSTORE DUP3 ISZERO PUSH2 0xD96 JUMPI SWAP2 DUP3 ADD JUMPDEST DUP3 DUP2 GT ISZERO PUSH2 0xD95 JUMPI DUP3 MLOAD DUP3 SSTORE SWAP2 PUSH1 0x20 ADD SWAP2 SWAP1 PUSH1 0x1 ADD SWAP1 PUSH2 0xD7A JUMP JUMPDEST JUMPDEST POP SWAP1 POP PUSH2 0xDA3 SWAP2 SWAP1 PUSH2 0xE7A JUMP JUMPDEST POP SWAP1 JUMP JUMPDEST PUSH1 0x40 MLOAD DUP1 PUSH1 0x60 ADD PUSH1 0x40 MSTORE DUP1 PUSH1 0x60 DUP2 MSTORE PUSH1 0x20 ADD PUSH1 0x0 DUP2 MSTORE PUSH1 0x20 ADD PUSH1 0x0 DUP2 MSTORE POP SWAP1 JUMP JUMPDEST PUSH1 0x40 MLOAD DUP1 PUSH1 0x60 ADD PUSH1 0x40 MSTORE DUP1 PUSH1 0x0 PUSH20 0xFFFFFFFFFFFFFFFFFFFFFFFFFFFFFFFFFFFFFFFF AND DUP2 MSTORE PUSH1 0x20 ADD PUSH1 0x60 DUP2 MSTORE PUSH1 0x20 ADD PUSH1 0x60 DUP2 MSTORE POP SWAP1 JUMP JUMPDEST PUSH1 0x40 MLOAD DUP1 PUSH1 0x20 ADD PUSH1 0x40 MSTORE DUP1 PUSH1 0x0 PUSH20 0xFFFFFFFFFFFFFFFFFFFFFFFFFFFFFFFFFFFFFFFF AND DUP2 MSTORE POP SWAP1 JUMP JUMPDEST PUSH1 0x40 MLOAD DUP1 PUSH1 0x20 ADD PUSH1 0x40 MSTORE DUP1 PUSH1 0x0 PUSH20 0xFFFFFFFFFFFFFFFFFFFFFFFFFFFFFFFFFFFFFFFF AND DUP2 MSTORE POP SWAP1 JUMP JUMPDEST PUSH1 0x40 MLOAD DUP1 PUSH1 0x20 ADD PUSH1 0x40 MSTORE DUP1 PUSH1 0x0 PUSH20 0xFFFFFFFFFFFFFFFFFFFFFFFFFFFFFFFFFFFFFFFF AND DUP2 MSTORE POP SWAP1 JUMP JUMPDEST JUMPDEST DUP1 DUP3 GT ISZERO PUSH2 0xE93 JUMPI PUSH1 0x0 DUP2 PUSH1 0x0 SWAP1 SSTORE POP PUSH1 0x1 ADD PUSH2 0xE7B JUMP JUMPDEST POP SWAP1 JUMP JUMPDEST PUSH1 0x0 PUSH2 0xEAA PUSH2 0xEA5 DUP5 PUSH2 0x1156 JUMP JUMPDEST PUSH2 0x1131 JUMP JUMPDEST SWAP1 POP DUP3 DUP2 MSTORE PUSH1 0x20 DUP2 ADD DUP5 DUP5 DUP5 ADD GT ISZERO PUSH2 0xEC6 JUMPI PUSH2 0xEC5 PUSH2 0x1390 JUMP JUMPDEST JUMPDEST PUSH2 0xED1 DUP5 DUP3 DUP6 PUSH2 0x1214 JUMP JUMPDEST POP SWAP4 SWAP3 POP POP POP JUMP JUMPDEST PUSH1 0x0 DUP2 CALLDATALOAD SWAP1 POP PUSH2 0xEE8 DUP2 PUSH2 0x1428 JUMP JUMPDEST SWAP3 SWAP2 POP POP JUMP JUMPDEST PUSH1 0x0 DUP3 PUSH1 0x1F DUP4 ADD SLT PUSH2 0xF03 JUMPI PUSH2 0xF02 PUSH2 0x138B JUMP JUMPDEST JUMPDEST DUP2 CALLDATALOAD PUSH2 0xF13 DUP5 DUP3 PUSH1 0x20 DUP7 ADD PUSH2 0xE97 JUMP JUMPDEST SWAP2 POP POP SWAP3 SWAP2 POP POP JUMP JUMPDEST PUSH1 0x0 DUP2 CALLDATALOAD SWAP1 POP PUSH2 0xF2B DUP2 PUSH2 0x143F JUMP JUMPDEST SWAP3 SWAP2 POP POP JUMP JUMPDEST PUSH1 0x0 PUSH1 0x20 DUP3 DUP5 SUB SLT ISZERO PUSH2 0xF47 JUMPI PUSH2 0xF46 PUSH2 0x139A JUMP JUMPDEST JUMPDEST PUSH1 0x0 PUSH2 0xF55 DUP5 DUP3 DUP6 ADD PUSH2 0xED9 JUMP JUMPDEST SWAP2 POP POP SWAP3 SWAP2 POP POP JUMP JUMPDEST PUSH1 0x0 DUP1 PUSH1 0x0 DUP1 PUSH1 0x0 PUSH1 0xA0 DUP7 DUP9 SUB SLT ISZERO PUSH2 0xF7A JUMPI PUSH2 0xF79 PUSH2 0x139A JUMP JUMPDEST JUMPDEST PUSH1 0x0 DUP7 ADD CALLDATALOAD PUSH8 0xFFFFFFFFFFFFFFFF DUP2 GT ISZERO PUSH2 0xF98 JUMPI PUSH2 0xF97 PUSH2 0x1395 JUMP JUMPDEST JUMPDEST PUSH2 0xFA4 DUP9 DUP3 DUP10 ADD PUSH2 0xEEE JUMP JUMPDEST SWAP6 POP POP PUSH1 0x20 DUP7 ADD CALLDATALOAD PUSH8 0xFFFFFFFFFFFFFFFF DUP2 GT ISZERO PUSH2 0xFC5 JUMPI PUSH2 0xFC4 PUSH2 0x1395 JUMP JUMPDEST JUMPDEST PUSH2 0xFD1 DUP9 DUP3 DUP10 ADD PUSH2 0xEEE JUMP JUMPDEST SWAP5 POP POP PUSH1 0x40 DUP7 ADD CALLDATALOAD PUSH8 0xFFFFFFFFFFFFFFFF DUP2 GT ISZERO PUSH2 0xFF2 JUMPI PUSH2 0xFF1 PUSH2 0x1395 JUMP JUMPDEST JUMPDEST PUSH2 0xFFE DUP9 DUP3 DUP10 ADD PUSH2 0xEEE JUMP JUMPDEST SWAP4 POP POP PUSH1 0x60 PUSH2 0x100F DUP9 DUP3 DUP10 ADD PUSH2 0xF1C JUMP JUMPDEST SWAP3 POP POP PUSH1 0x80 PUSH2 0x1020 DUP9 DUP3 DUP10 ADD PUSH2 0xF1C JUMP JUMPDEST SWAP2 POP POP SWAP3 SWAP6 POP SWAP3 SWAP6 SWAP1 SWAP4 POP JUMP JUMPDEST PUSH2 0x1036 DUP2 PUSH2 0x11CC JUMP JUMPDEST DUP3 MSTORE POP POP JUMP JUMPDEST PUSH2 0x1045 DUP2 PUSH2 0x11DE JUMP JUMPDEST DUP3 MSTORE POP POP JUMP JUMPDEST PUSH1 0x0 PUSH2 0x1058 PUSH1 0x26 DUP4 PUSH2 0x1187 JUMP JUMPDEST SWAP2 POP PUSH2 0x1063 DUP3 PUSH2 0x13B0 JUMP JUMPDEST PUSH1 0x40 DUP3 ADD SWAP1 POP SWAP2 SWAP1 POP JUMP JUMPDEST PUSH1 0x0 PUSH2 0x107B PUSH1 0x20 DUP4 PUSH2 0x1187 JUMP JUMPDEST SWAP2 POP PUSH2 0x1086 DUP3 PUSH2 0x13FF JUMP JUMPDEST PUSH1 0x20 DUP3 ADD SWAP1 POP SWAP2 SWAP1 POP JUMP JUMPDEST PUSH2 0x109A DUP2 PUSH2 0x120A JUMP JUMPDEST DUP3 MSTORE POP POP JUMP JUMPDEST PUSH1 0x0 PUSH1 0x20 DUP3 ADD SWAP1 POP PUSH2 0x10B5 PUSH1 0x0 DUP4 ADD DUP5 PUSH2 0x102D JUMP JUMPDEST SWAP3 SWAP2 POP POP JUMP JUMPDEST PUSH1 0x0 PUSH1 0x20 DUP3 ADD SWAP1 POP PUSH2 0x10D0 PUSH1 0x0 DUP4 ADD DUP5 PUSH2 0x103C JUMP JUMPDEST SWAP3 SWAP2 POP POP JUMP JUMPDEST PUSH1 0x0 PUSH1 0x20 DUP3 ADD SWAP1 POP DUP2 DUP2 SUB PUSH1 0x0 DUP4 ADD MSTORE PUSH2 0x10EF DUP2 PUSH2 0x104B JUMP JUMPDEST SWAP1 POP SWAP2 SWAP1 POP JUMP JUMPDEST PUSH1 0x0 PUSH1 0x20 DUP3 ADD SWAP1 POP DUP2 DUP2 SUB PUSH1 0x0 DUP4 ADD MSTORE PUSH2 0x110F DUP2 PUSH2 0x106E JUMP JUMPDEST SWAP1 POP SWAP2 SWAP1 POP JUMP JUMPDEST PUSH1 0x0 PUSH1 0x20 DUP3 ADD SWAP1 POP PUSH2 0x112B PUSH1 0x0 DUP4 ADD DUP5 PUSH2 0x1091 JUMP JUMPDEST SWAP3 SWAP2 POP POP JUMP JUMPDEST PUSH1 0x0 PUSH2 0x113B PUSH2 0x114C JUMP JUMPDEST SWAP1 POP PUSH2 0x1147 DUP3 DUP3 PUSH2 0x1255 JUMP JUMPDEST SWAP2 SWAP1 POP JUMP JUMPDEST PUSH1 0x0 PUSH1 0x40 MLOAD SWAP1 POP SWAP1 JUMP JUMPDEST PUSH1 0x0 PUSH8 0xFFFFFFFFFFFFFFFF DUP3 GT ISZERO PUSH2 0x1171 JUMPI PUSH2 0x1170 PUSH2 0x135C JUMP JUMPDEST JUMPDEST PUSH2 0x117A DUP3 PUSH2 0x139F JUMP JUMPDEST SWAP1 POP PUSH1 0x20 DUP2 ADD SWAP1 POP SWAP2 SWAP1 POP JUMP JUMPDEST PUSH1 0x0 DUP3 DUP3 MSTORE PUSH1 0x20 DUP3 ADD SWAP1 POP SWAP3 SWAP2 POP POP JUMP JUMPDEST PUSH1 0x0 PUSH2 0x11A3 DUP3 PUSH2 0x120A JUMP JUMPDEST SWAP2 POP PUSH2 0x11AE DUP4 PUSH2 0x120A JUMP JUMPDEST SWAP3 POP DUP3 DUP3 LT ISZERO PUSH2 0x11C1 JUMPI PUSH2 0x11C0 PUSH2 0x12CF JUMP JUMPDEST JUMPDEST DUP3 DUP3 SUB SWAP1 POP SWAP3 SWAP2 POP POP JUMP JUMPDEST PUSH1 0x0 PUSH2 0x11D7 DUP3 PUSH2 0x11EA JUMP JUMPDEST SWAP1 POP SWAP2 SWAP1 POP JUMP JUMPDEST PUSH1 0x0 DUP2 ISZERO ISZERO SWAP1 POP SWAP2 SWAP1 POP JUMP JUMPDEST PUSH1 0x0 PUSH20 0xFFFFFFFFFFFFFFFFFFFFFFFFFFFFFFFFFFFFFFFF DUP3 AND SWAP1 POP SWAP2 SWAP1 POP JUMP JUMPDEST PUSH1 0x0 DUP2 SWAP1 POP SWAP2 SWAP1 POP JUMP JUMPDEST DUP3 DUP2 DUP4 CALLDATACOPY PUSH1 0x0 DUP4 DUP4 ADD MSTORE POP POP POP JUMP JUMPDEST PUSH1 0x0 PUSH1 0x2 DUP3 DIV SWAP1 POP PUSH1 0x1 DUP3 AND DUP1 PUSH2 0x123B JUMPI PUSH1 0x7F DUP3 AND SWAP2 POP JUMPDEST PUSH1 0x20 DUP3 LT DUP2 EQ ISZERO PUSH2 0x124F JUMPI PUSH2 0x124E PUSH2 0x132D JUMP JUMPDEST JUMPDEST POP SWAP2 SWAP1 POP JUMP JUMPDEST PUSH2 0x125E DUP3 PUSH2 0x139F JUMP JUMPDEST DUP2 ADD DUP2 DUP2 LT PUSH8 0xFFFFFFFFFFFFFFFF DUP3 GT OR ISZERO PUSH2 0x127D JUMPI PUSH2 0x127C PUSH2 0x135C JUMP JUMPDEST JUMPDEST DUP1 PUSH1 0x40 MSTORE POP POP POP JUMP JUMPDEST PUSH1 0x0 PUSH2 0x1291 DUP3 PUSH2 0x120A JUMP JUMPDEST SWAP2 POP PUSH32 0xFFFFFFFFFFFFFFFFFFFFFFFFFFFFFFFFFFFFFFFFFFFFFFFFFFFFFFFFFFFFFFFF DUP3 EQ ISZERO PUSH2 0x12C4 JUMPI PUSH2 0x12C3 PUSH2 0x12CF JUMP JUMPDEST JUMPDEST PUSH1 0x1 DUP3 ADD SWAP1 POP SWAP2 SWAP1 POP JUMP JUMPDEST PUSH32 0x4E487B7100000000000000000000000000000000000000000000000000000000 PUSH1 0x0 MSTORE PUSH1 0x11 PUSH1 0x4 MSTORE PUSH1 0x24 PUSH1 0x0 REVERT JUMPDEST PUSH32 0x4E487B7100000000000000000000000000000000000000000000000000000000 PUSH1 0x0 MSTORE PUSH1 0x21 PUSH1 0x4 MSTORE PUSH1 0x24 PUSH1 0x0 REVERT JUMPDEST PUSH32 0x4E487B7100000000000000000000000000000000000000000000000000000000 PUSH1 0x0 MSTORE PUSH1 0x22 PUSH1 0x4 MSTORE PUSH1 0x24 PUSH1 0x0 REVERT JUMPDEST PUSH32 0x4E487B7100000000000000000000000000000000000000000000000000000000 PUSH1 0x0 MSTORE PUSH1 0x41 PUSH1 0x4 MSTORE PUSH1 0x24 PUSH1 0x0 REVERT JUMPDEST PUSH1 0x0 DUP1 REVERT JUMPDEST PUSH1 0x0 DUP1 REVERT JUMPDEST PUSH1 0x0 DUP1 REVERT JUMPDEST PUSH1 0x0 DUP1 REVERT JUMPDEST PUSH1 0x0 PUSH1 0x1F NOT PUSH1 0x1F DUP4 ADD AND SWAP1 POP SWAP2 SWAP1 POP JUMP JUMPDEST PUSH32 0x4F776E61626C653A206E6577206F776E657220697320746865207A65726F2061 PUSH1 0x0 DUP3 ADD MSTORE PUSH32 0x6464726573730000000000000000000000000000000000000000000000000000 PUSH1 0x20 DUP3 ADD MSTORE POP JUMP JUMPDEST PUSH32 0x4F776E61626C653A2063616C6C6572206973206E6F7420746865206F776E6572 PUSH1 0x0 DUP3 ADD MSTORE POP JUMP JUMPDEST PUSH2 0x1431 DUP2 PUSH2 0x11CC JUMP JUMPDEST DUP2 EQ PUSH2 0x143C JUMPI PUSH1 0x0 DUP1 REVERT JUMPDEST POP JUMP JUMPDEST PUSH2 0x1448 DUP2 PUSH2 0x120A JUMP JUMPDEST DUP2 EQ PUSH2 0x1453 JUMPI PUSH1 0x0 DUP1 REVERT JUMPDEST POP JUMP INVALID LOG2 PUSH5 0x6970667358 0x22 SLT KECCAK256 GASPRICE 0xB9 SWAP14 LOG3 RETURNDATASIZE RETURNDATASIZE PUSH7 0x7E3006A920A3CE PUSH16 0xD7F14CE132B840C9DC4EB62AE07EFD31 0xDE PUSH5 0x736F6C6343 STOP ADDMOD SMOD STOP CALLER "
				},
				"gasEstimates": {
					"creation": {
						"codeDepositCost": "1052000",
						"executionCost": "infinite",
						"totalCost": "infinite"
					},
					"external": {
						"addFarmerRole(address)": "28394",
						"hasFarmerRole(address)": "2993",
						"owner()": "2545",
						"produceProduct(string,string,string,uint256,uint256)": "infinite",
						"renounceOwnership()": "30399",
						"transferOwnership(address)": "30747",
						"uid()": "2451"
					},
					"internal": {
						"initEmptyProductInfo(struct Structure.Product memory)": "infinite",
						"setProductDetailInfo(struct Structure.Product memory,string memory,uint256,uint256)": "infinite"
					}
				},
				"methodIdentifiers": {
					"addFarmerRole(address)": "f61104b8",
					"hasFarmerRole(address)": "fcec18bf",
					"owner()": "8da5cb5b",
					"produceProduct(string,string,string,uint256,uint256)": "bddf0d16",
					"renounceOwnership()": "715018a6",
					"transferOwnership(address)": "f2fde38b",
					"uid()": "f514ce36"
				}
			},
			"storageLayout": {
				"storage": [
					{
						"astId": 416,
						"contract": "SupplyChain.sol:SupplyChain",
						"label": "_owner",
						"offset": 0,
						"slot": "0",
						"type": "t_address"
					},
					{
						"astId": 78,
						"contract": "SupplyChain.sol:SupplyChain",
						"label": "uid",
						"offset": 0,
						"slot": "1",
						"type": "t_uint256"
					},
					{
						"astId": 80,
						"contract": "SupplyChain.sol:SupplyChain",
						"label": "sku",
						"offset": 0,
						"slot": "2",
						"type": "t_uint256"
					},
					{
						"astId": 85,
						"contract": "SupplyChain.sol:SupplyChain",
						"label": "products",
						"offset": 0,
						"slot": "3",
						"type": "t_mapping(t_uint256,t_struct(Product)55_storage)"
					},
					{
						"astId": 90,
						"contract": "SupplyChain.sol:SupplyChain",
						"label": "productHistory",
						"offset": 0,
						"slot": "4",
						"type": "t_mapping(t_uint256,t_struct(ProductHistory)60_storage)"
					},
					{
						"astId": 95,
						"contract": "SupplyChain.sol:SupplyChain",
						"label": "roles",
						"offset": 0,
						"slot": "5",
						"type": "t_mapping(t_address,t_struct(Roles)69_storage)"
					}
				],
				"types": {
					"t_address": {
						"encoding": "inplace",
						"label": "address",
						"numberOfBytes": "20"
					},
					"t_array(t_struct(Product)55_storage)dyn_storage": {
						"base": "t_struct(Product)55_storage",
						"encoding": "dynamic_array",
						"label": "struct Structure.Product[]",
						"numberOfBytes": "32"
					},
					"t_bool": {
						"encoding": "inplace",
						"label": "bool",
						"numberOfBytes": "1"
					},
					"t_enum(State)5": {
						"encoding": "inplace",
						"label": "enum Structure.State",
						"numberOfBytes": "1"
					},
					"t_mapping(t_address,t_struct(Roles)69_storage)": {
						"encoding": "mapping",
						"key": "t_address",
						"label": "mapping(address => struct Structure.Roles)",
						"numberOfBytes": "32",
						"value": "t_struct(Roles)69_storage"
					},
					"t_mapping(t_uint256,t_struct(Product)55_storage)": {
						"encoding": "mapping",
						"key": "t_uint256",
						"label": "mapping(uint256 => struct Structure.Product)",
						"numberOfBytes": "32",
						"value": "t_struct(Product)55_storage"
					},
					"t_mapping(t_uint256,t_struct(ProductHistory)60_storage)": {
						"encoding": "mapping",
						"key": "t_uint256",
						"label": "mapping(uint256 => struct Structure.ProductHistory)",
						"numberOfBytes": "32",
						"value": "t_struct(ProductHistory)60_storage"
					},
					"t_string_storage": {
						"encoding": "bytes",
						"label": "string",
						"numberOfBytes": "32"
					},
					"t_struct(CustomerDetail)21_storage": {
						"encoding": "inplace",
						"label": "struct Structure.CustomerDetail",
						"members": [
							{
								"astId": 20,
								"contract": "SupplyChain.sol:SupplyChain",
								"label": "customer",
								"offset": 0,
								"slot": "0",
								"type": "t_address"
							}
						],
						"numberOfBytes": "32"
					},
					"t_struct(DistributorDetail)15_storage": {
						"encoding": "inplace",
						"label": "struct Structure.DistributorDetail",
						"members": [
							{
								"astId": 14,
								"contract": "SupplyChain.sol:SupplyChain",
								"label": "distributor",
								"offset": 0,
								"slot": "0",
								"type": "t_address"
							}
						],
						"numberOfBytes": "32"
					},
					"t_struct(FarmerDetail)12_storage": {
						"encoding": "inplace",
						"label": "struct Structure.FarmerDetail",
						"members": [
							{
								"astId": 7,
								"contract": "SupplyChain.sol:SupplyChain",
								"label": "farmer",
								"offset": 0,
								"slot": "0",
								"type": "t_address"
							},
							{
								"astId": 9,
								"contract": "SupplyChain.sol:SupplyChain",
								"label": "farmerName",
								"offset": 0,
								"slot": "1",
								"type": "t_string_storage"
							},
							{
								"astId": 11,
								"contract": "SupplyChain.sol:SupplyChain",
								"label": "farmerAddress",
								"offset": 0,
								"slot": "2",
								"type": "t_string_storage"
							}
						],
						"numberOfBytes": "96"
					},
					"t_struct(Product)55_storage": {
						"encoding": "inplace",
						"label": "struct Structure.Product",
						"members": [
							{
								"astId": 30,
								"contract": "SupplyChain.sol:SupplyChain",
								"label": "uid",
								"offset": 0,
								"slot": "0",
								"type": "t_uint256"
							},
							{
								"astId": 32,
								"contract": "SupplyChain.sol:SupplyChain",
								"label": "sku",
								"offset": 0,
								"slot": "1",
								"type": "t_uint256"
							},
							{
								"astId": 34,
								"contract": "SupplyChain.sol:SupplyChain",
								"label": "owner",
								"offset": 0,
								"slot": "2",
								"type": "t_address"
							},
							{
								"astId": 37,
								"contract": "SupplyChain.sol:SupplyChain",
								"label": "productState",
								"offset": 20,
								"slot": "2",
								"type": "t_enum(State)5"
							},
							{
								"astId": 40,
								"contract": "SupplyChain.sol:SupplyChain",
								"label": "productDetail",
								"offset": 0,
								"slot": "3",
								"type": "t_struct(ProductDetail)28_storage"
							},
							{
								"astId": 43,
								"contract": "SupplyChain.sol:SupplyChain",
								"label": "farmer",
								"offset": 0,
								"slot": "6",
								"type": "t_struct(FarmerDetail)12_storage"
							},
							{
								"astId": 46,
								"contract": "SupplyChain.sol:SupplyChain",
								"label": "distributor",
								"offset": 0,
								"slot": "9",
								"type": "t_struct(DistributorDetail)15_storage"
							},
							{
								"astId": 49,
								"contract": "SupplyChain.sol:SupplyChain",
								"label": "retailer",
								"offset": 0,
								"slot": "10",
								"type": "t_struct(RetailerDetail)18_storage"
							},
							{
								"astId": 52,
								"contract": "SupplyChain.sol:SupplyChain",
								"label": "customer",
								"offset": 0,
								"slot": "11",
								"type": "t_struct(CustomerDetail)21_storage"
							},
							{
								"astId": 54,
								"contract": "SupplyChain.sol:SupplyChain",
								"label": "transaction",
								"offset": 0,
								"slot": "12",
								"type": "t_string_storage"
							}
						],
						"numberOfBytes": "416"
					},
					"t_struct(ProductDetail)28_storage": {
						"encoding": "inplace",
						"label": "struct Structure.ProductDetail",
						"members": [
							{
								"astId": 23,
								"contract": "SupplyChain.sol:SupplyChain",
								"label": "productName",
								"offset": 0,
								"slot": "0",
								"type": "t_string_storage"
							},
							{
								"astId": 25,
								"contract": "SupplyChain.sol:SupplyChain",
								"label": "productCode",
								"offset": 0,
								"slot": "1",
								"type": "t_uint256"
							},
							{
								"astId": 27,
								"contract": "SupplyChain.sol:SupplyChain",
								"label": "productPrice",
								"offset": 0,
								"slot": "2",
								"type": "t_uint256"
							}
						],
						"numberOfBytes": "96"
					},
					"t_struct(ProductHistory)60_storage": {
						"encoding": "inplace",
						"label": "struct Structure.ProductHistory",
						"members": [
							{
								"astId": 59,
								"contract": "SupplyChain.sol:SupplyChain",
								"label": "history",
								"offset": 0,
								"slot": "0",
								"type": "t_array(t_struct(Product)55_storage)dyn_storage"
							}
						],
						"numberOfBytes": "32"
					},
					"t_struct(RetailerDetail)18_storage": {
						"encoding": "inplace",
						"label": "struct Structure.RetailerDetail",
						"members": [
							{
								"astId": 17,
								"contract": "SupplyChain.sol:SupplyChain",
								"label": "retailer",
								"offset": 0,
								"slot": "0",
								"type": "t_address"
							}
						],
						"numberOfBytes": "32"
					},
					"t_struct(Roles)69_storage": {
						"encoding": "inplace",
						"label": "struct Structure.Roles",
						"members": [
							{
								"astId": 62,
								"contract": "SupplyChain.sol:SupplyChain",
								"label": "Farmer",
								"offset": 0,
								"slot": "0",
								"type": "t_bool"
							},
							{
								"astId": 64,
								"contract": "SupplyChain.sol:SupplyChain",
								"label": "Distributor",
								"offset": 1,
								"slot": "0",
								"type": "t_bool"
							},
							{
								"astId": 66,
								"contract": "SupplyChain.sol:SupplyChain",
								"label": "Retailer",
								"offset": 2,
								"slot": "0",
								"type": "t_bool"
							},
							{
								"astId": 68,
								"contract": "SupplyChain.sol:SupplyChain",
								"label": "Customer",
								"offset": 3,
								"slot": "0",
								"type": "t_bool"
							}
						],
						"numberOfBytes": "32"
					},
					"t_uint256": {
						"encoding": "inplace",
						"label": "uint256",
						"numberOfBytes": "32"
					}
				}
			},
			"userdoc": {
				"kind": "user",
				"methods": {},
				"version": 1
			}
		}
	}
}