{
  "_format": "hh-sol-artifact-1",
  "contractName": "SupplyChain",
  "sourceName": "Contracts/SupplyChain.sol",
  "abi": [
    {
      "inputs": [],
      "stateMutability": "payable",
      "type": "constructor"
    },
    {
      "anonymous": false,
      "inputs": [
        {
          "indexed": true,
          "internalType": "address",
          "name": "account",
          "type": "address"
        }
      ],
      "name": "CustomerAdded",
      "type": "event"
    },
    {
      "anonymous": false,
      "inputs": [
        {
          "indexed": true,
          "internalType": "address",
          "name": "account",
          "type": "address"
        }
      ],
      "name": "CustomerRemoved",
      "type": "event"
    },
    {
      "anonymous": false,
      "inputs": [
        {
          "indexed": true,
          "internalType": "address",
          "name": "account",
          "type": "address"
        }
      ],
      "name": "DistributorAdded",
      "type": "event"
    },
    {
      "anonymous": false,
      "inputs": [
        {
          "indexed": true,
          "internalType": "address",
          "name": "account",
          "type": "address"
        }
      ],
      "name": "DistributorRemoved",
      "type": "event"
    },
    {
      "anonymous": false,
      "inputs": [
        {
          "indexed": true,
          "internalType": "address",
          "name": "account",
          "type": "address"
        }
      ],
      "name": "FarmerAdded",
      "type": "event"
    },
    {
      "anonymous": false,
      "inputs": [
        {
          "indexed": true,
          "internalType": "address",
          "name": "account",
          "type": "address"
        }
      ],
      "name": "FarmerRemoved",
      "type": "event"
    },
    {
      "anonymous": false,
      "inputs": [
        {
          "indexed": true,
          "internalType": "address",
          "name": "previousOwner",
          "type": "address"
        },
        {
          "indexed": true,
          "internalType": "address",
          "name": "newOwner",
          "type": "address"
        }
      ],
      "name": "OwnershipTransferred",
      "type": "event"
    },
    {
      "anonymous": false,
      "inputs": [
        {
          "indexed": false,
          "internalType": "uint256",
          "name": "uid",
          "type": "uint256"
        }
      ],
      "name": "ProducedByFarmer",
      "type": "event"
    },
    {
      "anonymous": false,
      "inputs": [
        {
          "indexed": false,
          "internalType": "uint256",
          "name": "uid",
          "type": "uint256"
        }
      ],
      "name": "PurchasedByCustomer",
      "type": "event"
    },
    {
      "anonymous": false,
      "inputs": [
        {
          "indexed": false,
          "internalType": "uint256",
          "name": "uid",
          "type": "uint256"
        }
      ],
      "name": "PurchasedByDistributor",
      "type": "event"
    },
    {
      "anonymous": false,
      "inputs": [
        {
          "indexed": false,
          "internalType": "uint256",
          "name": "uid",
          "type": "uint256"
        }
      ],
      "name": "PurchasedByRetailer",
      "type": "event"
    },
    {
      "anonymous": false,
      "inputs": [
        {
          "indexed": false,
          "internalType": "uint256",
          "name": "uid",
          "type": "uint256"
        }
      ],
      "name": "ReceivedByCustomer",
      "type": "event"
    },
    {
      "anonymous": false,
      "inputs": [
        {
          "indexed": false,
          "internalType": "uint256",
          "name": "uid",
          "type": "uint256"
        }
      ],
      "name": "ReceivedByDistributor",
      "type": "event"
    },
    {
      "anonymous": false,
      "inputs": [
        {
          "indexed": false,
          "internalType": "uint256",
          "name": "uid",
          "type": "uint256"
        }
      ],
      "name": "ReceivedByRetailer",
      "type": "event"
    },
    {
      "anonymous": false,
      "inputs": [
        {
          "indexed": true,
          "internalType": "address",
          "name": "account",
          "type": "address"
        }
      ],
      "name": "RetailerAdded",
      "type": "event"
    },
    {
      "anonymous": false,
      "inputs": [
        {
          "indexed": true,
          "internalType": "address",
          "name": "account",
          "type": "address"
        }
      ],
      "name": "RetailerRemoved",
      "type": "event"
    },
    {
      "anonymous": false,
      "inputs": [
        {
          "indexed": false,
          "internalType": "uint256",
          "name": "uid",
          "type": "uint256"
        }
      ],
      "name": "ShippedByDistributor",
      "type": "event"
    },
    {
      "anonymous": false,
      "inputs": [
        {
          "indexed": false,
          "internalType": "uint256",
          "name": "uid",
          "type": "uint256"
        }
      ],
      "name": "ShippedByFarmer",
      "type": "event"
    },
    {
      "anonymous": false,
      "inputs": [
        {
          "indexed": false,
          "internalType": "uint256",
          "name": "uid",
          "type": "uint256"
        }
      ],
      "name": "ShippedByRetailer",
      "type": "event"
    },
    {
      "inputs": [
        {
          "internalType": "address",
          "name": "account",
          "type": "address"
        }
      ],
      "name": "addCustomer",
      "outputs": [],
      "stateMutability": "nonpayable",
      "type": "function"
    },
    {
      "inputs": [
        {
          "internalType": "address",
          "name": "account",
          "type": "address"
        },
        {
          "internalType": "string",
          "name": "name",
          "type": "string"
        },
        {
          "internalType": "string",
          "name": "realAddress",
          "type": "string"
        }
      ],
      "name": "addDistributor",
      "outputs": [],
      "stateMutability": "nonpayable",
      "type": "function"
    },
    {
      "inputs": [
        {
          "internalType": "address",
          "name": "account",
          "type": "address"
        },
        {
          "internalType": "string",
          "name": "name",
          "type": "string"
        },
        {
          "internalType": "string",
          "name": "realAddress",
          "type": "string"
        }
      ],
      "name": "addFarmer",
      "outputs": [],
      "stateMutability": "nonpayable",
      "type": "function"
    },
    {
      "inputs": [
        {
          "internalType": "address",
          "name": "account",
          "type": "address"
        },
        {
          "internalType": "string",
          "name": "name",
          "type": "string"
        },
        {
          "internalType": "string",
          "name": "realAddress",
          "type": "string"
        }
      ],
      "name": "addRetailer",
      "outputs": [],
      "stateMutability": "nonpayable",
      "type": "function"
    },
    {
      "inputs": [
        {
          "internalType": "string",
          "name": "name",
          "type": "string"
        }
      ],
      "name": "changeDistributorName",
      "outputs": [],
      "stateMutability": "nonpayable",
      "type": "function"
    },
    {
      "inputs": [
        {
          "internalType": "string",
          "name": "realAddress",
          "type": "string"
        }
      ],
      "name": "changeDistributorRealAddress",
      "outputs": [],
      "stateMutability": "nonpayable",
      "type": "function"
    },
    {
      "inputs": [
        {
          "internalType": "string",
          "name": "name",
          "type": "string"
        }
      ],
      "name": "changeFarmerName",
      "outputs": [],
      "stateMutability": "nonpayable",
      "type": "function"
    },
    {
      "inputs": [
        {
          "internalType": "string",
          "name": "realAddress",
          "type": "string"
        }
      ],
      "name": "changeFarmerRealAddress",
      "outputs": [],
      "stateMutability": "nonpayable",
      "type": "function"
    },
    {
      "inputs": [
        {
          "internalType": "string",
          "name": "name",
          "type": "string"
        }
      ],
      "name": "changeRetailerName",
      "outputs": [],
      "stateMutability": "nonpayable",
      "type": "function"
    },
    {
      "inputs": [
        {
          "internalType": "string",
          "name": "realAddress",
          "type": "string"
        }
      ],
      "name": "changeRetailerRealAddress",
      "outputs": [],
      "stateMutability": "nonpayable",
      "type": "function"
    },
    {
      "inputs": [
        {
          "internalType": "address",
          "name": "account",
          "type": "address"
        }
      ],
      "name": "getAllCustomerProduct",
      "outputs": [
        {
          "internalType": "uint256[]",
          "name": "",
          "type": "uint256[]"
        }
      ],
      "stateMutability": "view",
      "type": "function"
    },
    {
      "inputs": [
        {
          "internalType": "address",
          "name": "account",
          "type": "address"
        }
      ],
      "name": "getAllDistributorProduct",
      "outputs": [
        {
          "internalType": "uint256[]",
          "name": "",
          "type": "uint256[]"
        }
      ],
      "stateMutability": "view",
      "type": "function"
    },
    {
      "inputs": [
        {
          "internalType": "address",
          "name": "account",
          "type": "address"
        }
      ],
      "name": "getAllFarmerProduct",
      "outputs": [
        {
          "internalType": "uint256[]",
          "name": "",
          "type": "uint256[]"
        }
      ],
      "stateMutability": "view",
      "type": "function"
    },
    {
      "inputs": [
        {
          "internalType": "enum Structure.State",
          "name": "state_",
          "type": "uint8"
        }
      ],
      "name": "getAllProductByState",
      "outputs": [
        {
          "internalType": "uint256[]",
          "name": "",
          "type": "uint256[]"
        }
      ],
      "stateMutability": "view",
      "type": "function"
    },
    {
      "inputs": [
        {
          "internalType": "address",
          "name": "account",
          "type": "address"
        }
      ],
      "name": "getAllRetailerProduct",
      "outputs": [
        {
          "internalType": "uint256[]",
          "name": "",
          "type": "uint256[]"
        }
      ],
      "stateMutability": "view",
      "type": "function"
    },
    {
      "inputs": [],
      "name": "getCustomerProductCount",
      "outputs": [
        {
          "internalType": "uint256",
          "name": "",
          "type": "uint256"
        }
      ],
      "stateMutability": "view",
      "type": "function"
    },
    {
      "inputs": [
        {
          "internalType": "address",
          "name": "account",
          "type": "address"
        }
      ],
      "name": "getDistributorInfo",
      "outputs": [
        {
          "internalType": "string",
          "name": "name",
          "type": "string"
        },
        {
          "internalType": "string",
          "name": "realAddress",
          "type": "string"
        }
      ],
      "stateMutability": "view",
      "type": "function"
    },
    {
      "inputs": [],
      "name": "getDistributorProductCount",
      "outputs": [
        {
          "internalType": "uint256",
          "name": "",
          "type": "uint256"
        }
      ],
      "stateMutability": "view",
      "type": "function"
    },
    {
      "inputs": [
        {
          "internalType": "address",
          "name": "account",
          "type": "address"
        }
      ],
      "name": "getFarmerInfo",
      "outputs": [
        {
          "internalType": "string",
          "name": "name",
          "type": "string"
        },
        {
          "internalType": "string",
          "name": "realAddress",
          "type": "string"
        }
      ],
      "stateMutability": "view",
      "type": "function"
    },
    {
      "inputs": [],
      "name": "getFarmerProductCount",
      "outputs": [
        {
          "internalType": "uint256",
          "name": "",
          "type": "uint256"
        }
      ],
      "stateMutability": "view",
      "type": "function"
    },
    {
      "inputs": [
        {
          "internalType": "uint256",
          "name": "_uid",
          "type": "uint256"
        }
      ],
      "name": "getProductDetail",
      "outputs": [
        {
          "internalType": "uint256",
          "name": "productUid",
          "type": "uint256"
        },
        {
          "internalType": "uint256",
          "name": "productSku",
          "type": "uint256"
        },
        {
          "internalType": "address",
          "name": "productOwner",
          "type": "address"
        },
        {
          "internalType": "enum Structure.State",
          "name": "productState",
          "type": "uint8"
        },
        {
          "internalType": "string",
          "name": "productName",
          "type": "string"
        },
        {
          "internalType": "uint256",
          "name": "productPrice",
          "type": "uint256"
        },
        {
          "internalType": "uint256",
          "name": "productCode",
          "type": "uint256"
        },
        {
          "internalType": "address",
          "name": "farmer",
          "type": "address"
        },
        {
          "internalType": "address",
          "name": "distributor",
          "type": "address"
        },
        {
          "internalType": "address",
          "name": "retailer",
          "type": "address"
        },
        {
          "internalType": "address",
          "name": "customer",
          "type": "address"
        },
        {
          "internalType": "string",
          "name": "transaction",
          "type": "string"
        }
      ],
      "stateMutability": "view",
      "type": "function"
    },
    {
      "inputs": [
        {
          "internalType": "uint256",
          "name": "_uid",
          "type": "uint256"
        },
        {
          "internalType": "uint256",
          "name": "i",
          "type": "uint256"
        }
      ],
      "name": "getProductHistory",
      "outputs": [
        {
          "internalType": "address",
          "name": "productOwner",
          "type": "address"
        },
        {
          "internalType": "enum Structure.State",
          "name": "productState",
          "type": "uint8"
        },
        {
          "internalType": "address",
          "name": "farmer",
          "type": "address"
        },
        {
          "internalType": "address",
          "name": "distributor",
          "type": "address"
        },
        {
          "internalType": "address",
          "name": "retailer",
          "type": "address"
        },
        {
          "internalType": "address",
          "name": "customer",
          "type": "address"
        },
        {
          "internalType": "string",
          "name": "transaction",
          "type": "string"
        }
      ],
      "stateMutability": "view",
      "type": "function"
    },
    {
      "inputs": [
        {
          "internalType": "uint256",
          "name": "_uid",
          "type": "uint256"
        }
      ],
      "name": "getProductHistoryLength",
      "outputs": [
        {
          "internalType": "uint256",
          "name": "",
          "type": "uint256"
        }
      ],
      "stateMutability": "view",
      "type": "function"
    },
    {
      "inputs": [
        {
          "internalType": "address",
          "name": "account",
          "type": "address"
        }
      ],
      "name": "getRetailerInfo",
      "outputs": [
        {
          "internalType": "string",
          "name": "name",
          "type": "string"
        },
        {
          "internalType": "string",
          "name": "realAddress",
          "type": "string"
        }
      ],
      "stateMutability": "view",
      "type": "function"
    },
    {
      "inputs": [],
      "name": "getRetailerProductCount",
      "outputs": [
        {
          "internalType": "uint256",
          "name": "",
          "type": "uint256"
        }
      ],
      "stateMutability": "view",
      "type": "function"
    },
    {
      "inputs": [
        {
          "internalType": "address",
          "name": "account",
          "type": "address"
        }
      ],
      "name": "isCustomer",
      "outputs": [
        {
          "internalType": "bool",
          "name": "",
          "type": "bool"
        }
      ],
      "stateMutability": "view",
      "type": "function"
    },
    {
      "inputs": [
        {
          "internalType": "address",
          "name": "account",
          "type": "address"
        }
      ],
      "name": "isDistributor",
      "outputs": [
        {
          "internalType": "bool",
          "name": "",
          "type": "bool"
        }
      ],
      "stateMutability": "view",
      "type": "function"
    },
    {
      "inputs": [
        {
          "internalType": "address",
          "name": "account",
          "type": "address"
        }
      ],
      "name": "isFarmer",
      "outputs": [
        {
          "internalType": "bool",
          "name": "",
          "type": "bool"
        }
      ],
      "stateMutability": "view",
      "type": "function"
    },
    {
      "inputs": [
        {
          "internalType": "address",
          "name": "account",
          "type": "address"
        }
      ],
      "name": "isRetailer",
      "outputs": [
        {
          "internalType": "bool",
          "name": "",
          "type": "bool"
        }
      ],
      "stateMutability": "view",
      "type": "function"
    },
    {
      "inputs": [],
      "name": "owner",
      "outputs": [
        {
          "internalType": "address",
          "name": "",
          "type": "address"
        }
      ],
      "stateMutability": "view",
      "type": "function"
    },
    {
      "inputs": [
        {
          "internalType": "string",
          "name": "productName",
          "type": "string"
        },
        {
          "internalType": "uint256",
          "name": "productPrice",
          "type": "uint256"
        },
        {
          "internalType": "uint256",
          "name": "productCode",
          "type": "uint256"
        }
      ],
      "name": "produceProduct",
      "outputs": [],
      "stateMutability": "nonpayable",
      "type": "function"
    },
    {
      "inputs": [
        {
          "internalType": "uint256",
          "name": "_uid",
          "type": "uint256"
        }
      ],
      "name": "purchaseByCustomer",
      "outputs": [],
      "stateMutability": "nonpayable",
      "type": "function"
    },
    {
      "inputs": [
        {
          "internalType": "uint256",
          "name": "_uid",
          "type": "uint256"
        }
      ],
      "name": "purchaseByDistributor",
      "outputs": [],
      "stateMutability": "nonpayable",
      "type": "function"
    },
    {
      "inputs": [
        {
          "internalType": "uint256",
          "name": "_uid",
          "type": "uint256"
        }
      ],
      "name": "purchaseByRetailer",
      "outputs": [],
      "stateMutability": "nonpayable",
      "type": "function"
    },
    {
      "inputs": [
        {
          "internalType": "uint256",
          "name": "_uid",
          "type": "uint256"
        }
      ],
      "name": "receiveByCustomer",
      "outputs": [],
      "stateMutability": "nonpayable",
      "type": "function"
    },
    {
      "inputs": [
        {
          "internalType": "uint256",
          "name": "_uid",
          "type": "uint256"
        }
      ],
      "name": "receiveByDistributor",
      "outputs": [],
      "stateMutability": "nonpayable",
      "type": "function"
    },
    {
      "inputs": [
        {
          "internalType": "uint256",
          "name": "_uid",
          "type": "uint256"
        }
      ],
      "name": "receiveByRetailer",
      "outputs": [],
      "stateMutability": "nonpayable",
      "type": "function"
    },
    {
      "inputs": [],
      "name": "renounceCustomer",
      "outputs": [],
      "stateMutability": "nonpayable",
      "type": "function"
    },
    {
      "inputs": [],
      "name": "renounceDistributor",
      "outputs": [],
      "stateMutability": "nonpayable",
      "type": "function"
    },
    {
      "inputs": [],
      "name": "renounceFarmer",
      "outputs": [],
      "stateMutability": "nonpayable",
      "type": "function"
    },
    {
      "inputs": [],
      "name": "renounceOwnership",
      "outputs": [],
      "stateMutability": "nonpayable",
      "type": "function"
    },
    {
      "inputs": [],
      "name": "renounceRetailer",
      "outputs": [],
      "stateMutability": "nonpayable",
      "type": "function"
    },
    {
      "inputs": [
        {
          "internalType": "uint256",
          "name": "_uid",
          "type": "uint256"
        }
      ],
      "name": "shipByDistributor",
      "outputs": [],
      "stateMutability": "nonpayable",
      "type": "function"
    },
    {
      "inputs": [
        {
          "internalType": "uint256",
          "name": "_uid",
          "type": "uint256"
        }
      ],
      "name": "shipByFarmer",
      "outputs": [],
      "stateMutability": "nonpayable",
      "type": "function"
    },
    {
      "inputs": [
        {
          "internalType": "uint256",
          "name": "_uid",
          "type": "uint256"
        }
      ],
      "name": "shipByRetailer",
      "outputs": [],
      "stateMutability": "nonpayable",
      "type": "function"
    },
    {
      "inputs": [
        {
          "internalType": "address",
          "name": "newOwner",
          "type": "address"
        }
      ],
      "name": "transferOwnership",
      "outputs": [],
      "stateMutability": "nonpayable",
      "type": "function"
    },
    {
      "inputs": [],
      "name": "uid",
      "outputs": [
        {
          "internalType": "uint256",
          "name": "",
          "type": "uint256"
        }
      ],
      "stateMutability": "view",
      "type": "function"
    }
  ],
  "bytecode": "0x6080604081905260008054336001600160a01b0319821681178355916001600160a01b03909116907f8be0079c531659141344cd1fd0a4f28419497f9722a3daafe3b4186f6b6457e09080a36001600a556001600955612e5690816100628239f3fe608060405260048036101561001357600080fd5b600090813560e01c90816302d82c55146122ab5781630fe71751146121c65781631dd0db801461219c57816327491e73146120f757816328fd5e83146120c05781632a4af44014611ecb5781632acd8ae114611e115781632fb32c2b14611deb5781633a99825214611cfa5781633d136f4514611ca157816354c90d8914611c115781635da09b8814611bda5781635ddc949c14611acc578163644241db14611a5c5781636a432a851461198d578163715018a6146119455781637217eb2e1461188b57816372df397e146117b357816373bf8ac2146117595781637a2786c3146115a25781637f97b6fc1461157857816380fc0ce4146115205781638575592314611490578163857ddb041461129957816386679a66146111b15781638b6df557146110cb5781638da5cb5b146110a45781638f0c86fa1461106d57816390d75b3714610fb6578163947f34a014610f75578163ac98e6db14610f05578163ad973d7414610ce3578163b942906914610ca0578163ba0da46a14610bd3578163baf6430d14610afb578163bf94060f14610a8b578163ca25e2b214610a61578163cf86dee7146109ac578163d40905be1461091c578163d6a3945814610859578163db0e6a2f146107e9578163deba0c37146106e1578163e9bf6b4c146104ad578163f2fde38b146103fd578163f514ce36146103df578163f709990e146102d4575063fa018ee31461022657600080fd5b346102d1576020806003193601126102cd57610240612477565b6001600160a01b0381169081156102c95761025c60ff91612cfd565b5416156102c55782526008815260026040832001916040518092808554928381520194835280832092905b8282106102ae576102aa8561029e818903826123f9565b6040519182918261256e565b0390f35b835486529485019460019384019390910190610287565b8280fd5b8380fd5b5080fd5b80fd5b82346102d157602091826003193601126102cd576001600160401b0381358181116102c957610306903690840161241c565b93338452828152604084209285519283116103cc57506103308261032a8554612625565b8561265f565b80601f831160011461036a575083948293949261035f575b50508160011b916000199060031b1c191617905580f35b015190508480610348565b90601f198316958486528286209286905b8882106103b45750508360019596971061039b575b505050811b01905580f35b015160001960f88460031b161c19169055848080610390565b8060018596829496860151815501950193019061037b565b634e487b7160e01b855260419052602484fd5b82346102d157806003193601126102d1576020600954604051908152f35b9050346102cd5760203660031901126102cd57610418612477565b6104206125a9565b6001600160a01b0390811691821561045a575082546001600160a01b031981168317845516600080516020612e018339815191528380a380f35b60849060206040519162461bcd60e51b8352820152602660248201527f4f776e61626c653a206e6577206f776e657220697320746865207a65726f206160448201526564647265737360d01b6064820152fd5b9050346102cd576104bd3661248d565b906104c99392936125a9565b6001600160a01b0384169384156106dd576104e390612ddd565b6106d957838552600160208181526040808820805460ff191684179055600282528720835192946001600160401b0394929390928582116106c65781906105348261052e8654612625565b8661265f565b8590601f8311600114610667578b9261065c575b5050600019600383901b1c191690861b1790555b858752600282528360408820019481519384116106495750610588836105828754612625565b8761265f565b81601f84116001146105e6575092829391839288946105db575b50501b916000199060031b1c19161790555b7f2e0ded4123377a3c2bc9a26f1717655a129e2f20752924d42e730ec89c83dbd08280a280f35b0151925038806105a2565b919083601f198116878a52848a20948a905b8883831061062f5750505010610616575b505050811b0190556105b4565b015160001960f88460031b161c19169055388080610609565b8587015188559096019594850194879350908101906105f8565b634e487b7160e01b885260419052602487fd5b015190503880610548565b848c52868c208994509190601f1984168d5b898282106106b05750508411610697575b505050811b01905561055c565b015160001960f88460031b161c1916905538808061068a565b8385015186558c97909501949384019301610679565b634e487b7160e01b8a526041885260248afd5b8480fd5b8580fd5b9050346102cd576020806003193601126102c5576001600160401b0382358181116106d957610713903690850161241c565b91338552600681526001928360408720019481519384116107d6575061073d836105828754612625565b81601f84116001146107765750928293918392879461076b575b50501b916000199060031b1c191617905580f35b015192503880610757565b919083601f1981168789528489209489905b888383106107bc57505050106107a357505050811b01905580f35b015160001960f88460031b161c19169055388080610390565b858701518855909601959485019487935090810190610788565b634e487b7160e01b875260419052602486fd5b82346102d157806003193601126102d15733156102d15760ff61080b33612d31565b5416156102d15761081b33612d97565b156102d15761082933612d31565b805460ff19169055337fdb7176e79cffef81cb01767dd0447a0b24bb72ca9778d4b245581086b2a7e6db8280a280f35b9050346102cd576020806003193601126102c55781359161087933612ddd565b156102c957828452600b825260ff600260408620015460a01c1690600a82101561090957506001036102c557818352600b8082526040808520600201805460ff60a01b1916600160a11b179055600c835280852091835284207fe6ae062d51064ae2a5a31a72fcb1bee1d343fdc6bddc1d3dfce658ece4f0321293916108ff9190612a30565b604051908152a180f35b634e487b7160e01b855260219052602484fd5b82346102d1576020806003193601126102cd57610937612477565b6001600160a01b0381169081156102c95761095360ff91612ce3565b5416156102c55782526002815260026040832001916040518092808554928381520194835280832092905b828210610995576102aa8561029e818903826123f9565b83548652948501946001938401939091019061097e565b9050346102cd576020806003193601126102c5578135916109cc33612d74565b156102c957828452600b825260ff600260408620015460a01c16600a811015610a4e57036102c557818352600b8082526040808520600201805460ff60a01b1916600560a01b179055600c835280852091835284207fc5c33776d405e5686e4386e1ef31a65cf6195e4f7ceb8808ab64d05b6ccbc2a693916108ff9190612a30565b634e487b7160e01b855260218252602485fd5b82346102d157806003193601126102d1576002604060209233815260068452200154604051908152f35b82346102d15760203660031901126102d157610aa5612477565b6001600160a01b0381169081156102c557610ac160ff91612d31565b5416156102cd5781526006602052610aeb610ae56001604080852094200192612b44565b91612b44565b906102aa60405192839283612549565b9050346102cd576020806003193601126102c557813591610b1b33612d97565b156102c957828452600b825260ff600260408620015460a01c1690600a82101561090957506005036102c557817f322f34e90f2269750b3e28178631d975cc678db36f21098fe548b7f755ce0bd0928452600b8252600260408520013360018060a01b031982541617905533845260068252610b9d8160026040872001612d4b565b808452600b8083526040808620600201805460ff60a01b1916600360a11b179055600c845280862091845285206108ff91612a30565b82346102d157602091826003193601126102cd576001600160401b0381358181116102c957610c05903690840161241c565b9333845260068152604084209285519283116103cc5750610c2a8261032a8554612625565b80601f8311600114610c58575083948293949261035f5750508160011b916000199060031b1c191617905580f35b90601f198316958486528286209286905b888210610c885750508360019596971061039b57505050811b01905580f35b80600185968294968601518155019501930190610c69565b82346102d15760203660031901126102d157610cba612477565b906001600160a01b038216156102d157602060ff610cd784612ce3565b54166040519015158152f35b9050346102cd57602090816003193601126102c557610d00612477565b91610d096125a9565b604051610d15816123de565b84815260405191610d25836123de565b8583526001600160a01b038516948515610f0157610d4290612dba565b6106dd578486526007815260408620926001938460ff198254161790556008825260408720835160018060401b03948582116106c6578190610d888261052e8654612625565b8590601f8311600114610ea2578b92610e97575b5050600019600383901b1c191690861b1790555b858752600882528360408820019481519384116106495750610dd6836105828754612625565b81601f8411600114610e3457509282939183928894610e29575b50501b916000199060031b1c19161790555b7fcd118a02bd36f224f6f1b93812f78d2bbc2c2dc1bc0f60c176e3b4fe09f1483f8280a280f35b015192503880610df0565b919083601f198116878a52848a20948a905b88838310610e7d5750505010610e64575b505050811b019055610e02565b015160001960f88460031b161c19169055388080610e57565b858701518855909601959485019487935090810190610e46565b015190503880610d9c565b848c52868c208994509190601f1984168d5b89828210610eeb5750508411610ed2575b505050811b019055610db0565b015160001960f88460031b161c19169055388080610ec5565b8385015186558c97909501949384019301610eb4565b8680fd5b82346102d157806003193601126102d15733156102d15760ff610f2733612cfd565b5416156102d157610f3733612dba565b156102d157610f4533612cfd565b805460ff19169055337fb4c88a9c5cd906354abdd1cc29e4f94c6c4de90754fb80ce51e6a33417bc81b68280a280f35b82346102d157806003193601126102d15733156102d15760ff610f9733612ce3565b5416156102d15760026040602092338152828452200154604051908152f35b9050346102cd576020806003193601126102c557813591610fd633612d74565b156102c957828452600b825260ff600260408620015460a01c1690600a82101561090957506102c557818352600b80825260408085206007810180546001600160a01b03191633179055600201805460ff60a01b1916600160a01b179055600c835280852091835284207facd9402b9f9e8c15fa7c1819f8393ca56eb61316cc354fc6ac2150aed3ce793193916108ff9190612a30565b82346102d15760203660031901126102d157611087612477565b906001600160a01b038216156102d157602060ff610cd784612d17565b82346102d157806003193601126102d157546040516001600160a01b039091168152602090f35b82346102d1576020806003193601126102cd57823590600a908183101593846102d157600954936110fb85612ccc565b9561110960405197886123f9565b858752601f1961111887612ccc565b013685890137600194835b87871061113857604051806102aa8b8261256e565b868552600b8652604085206002015460a01c60ff168361119e578281101561119e5784036106d957885181101561118b5761117f8188886111859460051b8d010152612934565b96612934565b95611123565b634e487b7160e01b855260328a52602485fd5b634e487b7160e01b865260218b52602486fd5b9050346102cd576020806003193601126102c5576001600160401b0382358181116106d9576111e3903690850161241c565b9133156106d95760ff6111f533612ce3565b5416156106d957338552600281526001928360408720019481519384116107d65750611225836105828754612625565b81601f84116001146112525750928293918392879461076b5750501b916000199060031b1c191617905580f35b919083601f1981168789528489209489905b8883831061127f57505050106107a357505050811b01905580f35b858701518855909601959485019487935090810190611264565b9050346102cd576112a93661248d565b906112b59392936125a9565b6001600160a01b0384169384156106dd576112cf90612d97565b6106d95783855260206005815260408620926001938460ff198254161790556006825260408720835160018060401b03948582116106c65781906113178261052e8654612625565b8590601f8311600114611431578b92611426575b5050600019600383901b1c191690861b1790555b858752600682528360408820019481519384116106495750611365836105828754612625565b81601f84116001146113c3575092829391839288946113b8575b50501b916000199060031b1c19161790555b7f71ae26cad02663e3d92efd6ec56031a80d74a20c0ab4183faa8bf262261c9baa8280a280f35b01519250388061137f565b919083601f198116878a52848a20948a905b8883831061140c57505050106113f3575b505050811b019055611391565b015160001960f88460031b161c191690553880806113e6565b8587015188559096019594850194879350908101906113d5565b01519050388061132b565b848c52868c208994509190601f1984168d5b8982821061147a5750508411611461575b505050811b01905561133f565b015160001960f88460031b161c19169055388080611454565b8385015186558c97909501949384019301611443565b9050346102cd57602090816003193601126102c5576114ad612477565b6001600160a01b0381169081156106d9576114c960ff91612d17565b5416156102c9578352815260026040832001916040518092808554928381520194835280832092905b828210611509576102aa8561029e818903826123f9565b8354865294850194600193840193909101906114f2565b82346102d157806003193601126102d15761153a33612ddd565b156102d15761154833612ce3565b805460ff19169055337fa5e0f060af304ab17dd418c7927e3da3ae7868189bf387aee09ab179ccc572f28280a280f35b82346102d157806003193601126102d1576002604060209233815260088452200154604051908152f35b82346102d15760603660031901126102d15781356001600160401b0381116102cd576115d1903690840161241c565b6115da33612ddd565b156102cd576040516115eb81612391565b82815260209182820184815260408301908582526060840192868452608085019160405190611619826123c3565b8888830152886040830152818452600a549052600954938487523390523360a08701528760c08701528760e087015287610100870152606061012087015252602435858251015260406044359151015233156106d95760ff61167a33612ce3565b5416156106d9579061169a85923384526002865260026040852001612d4b565b526009548352600b82526116b181604085206126b3565b6009548352600c825260408320805490600160401b82101561174657906116dd91600182018155612902565b6117345761172e92916116ef916126b3565b7fb55ecf2eb9ce3c54a45708010da84a35a897635e97a936f98c9804c5847b4d2260095491604051838152a1611726600a54612934565b600a55612934565b60095580f35b634e487b7160e01b8452838552602484fd5b634e487b7160e01b855260418652602485fd5b82346102d15760203660031901126102d157611773612477565b6001600160a01b0381169081156102c55761178f60ff91612ce3565b5416156102cd5781526002602052610aeb610ae56001604080852094200192612b44565b9050346102cd576020806003193601126102c5578135916117d333612dba565b156102c957828452600b825260ff600260408620015460a01c1690600a82101561090957506008036102c557817f8a746d5b91a9a334d1abbeee7d031aac6d5c59ea6e982ac06aef4346cce5749e928452600b8252600260408520013360018060a01b0319825416179055338452600882526118558160026040872001612d4b565b808452600b8083526040808620600201805460ff60a01b1916600960a01b179055600c845280862091845285206108ff91612a30565b9050346102cd576020806003193601126102c5578135916118ab33612dba565b156102c957828452600b825260ff600260408620015460a01c1690600a82101561090957506006036102c557818352600b80825260408085206009810180546001600160a01b03191633179055600201805460ff60a01b1916600760a01b179055600c835280852091835284207ffd054e59d299873fab61a3c67d86d3a139b75dcd5cd82894d8983fc5e2669c8293916108ff9190612a30565b82346102d157806003193601126102d15761195e6125a9565b80546001600160a01b03198116825581906001600160a01b0316600080516020612e018339815191528280a380f35b9050346102cd576020806003193601126102c5576001600160401b0382358181116106d9576119bf903690850161241c565b913385528381526001928360408720019481519384116107d657506119e8836105828754612625565b81601f8411600114611a155750928293918392879461076b5750501b916000199060031b1c191617905580f35b919083601f1981168789528489209489905b88838310611a4257505050106107a357505050811b01905580f35b858701518855909601959485019487935090810190611a27565b82346102d157806003193601126102d15733156102d15760ff611a7e33612d17565b5416156102d157611a8e33612d74565b156102d157611a9c33612d17565b805460ff19169055337f126174f6cf49c81cdb4a9214c6b8f037bef55b4ec31e4fc776cea2a1c8a88d598280a280f35b9050346102cd5760203660031901126102cd5780358252600b6020526040822054156102cd57611afe60408320612be8565b9182519160208401519360018060a01b038060408301511693606083015193600a851015611bc75750506080820151928351604085015194602001518360a086015116918460c087015116938560e0880151169561010088015116966101200151986040519b8c9b8c5260208c015260408b015260608a01611b7f916124e6565b6101808060808b01528901611b9391612509565b9560a089015260c088015260e08701526101008601526101208501526101408401528281036101608401526102aa91612509565b634e487b7160e01b825260219052602490fd5b82346102d15760203660031901126102d157611bf4612477565b906001600160a01b038216156102d157602060ff610cd784612d31565b82346102d1576020806003193601126102cd57611c2c612477565b6001600160a01b0381169081156102c957611c4860ff91612d31565b5416156102c55782526006815260026040832001916040518092808554928381520194835280832092905b828210611c8a576102aa8561029e818903826123f9565b835486529485019460019384019390910190611c73565b9050346102cd5760203660031901126102cd57611cbc612477565b6001600160a01b0381169081156102c957611cd860ff91612d17565b5416156102c5578252602052610aeb610ae56001604080852094200192612b44565b82346102d15760403660031901126102d157813560243590808352600b6020526040832054156102c557611d2d81612cab565b8210156102c557611d5291611d4c918452600c60205260408420612902565b50612be8565b60408101516060820151926001600160a01b039182169290600a851015611dd8575090818160a06102aa94015116918060c0830151166101208260e085015116926101008501511693015193611db3604051988998895260208901906124e6565b60408701526060860152608085015260a084015260e060c084015260e0830190612509565b634e487b7160e01b815260218652602490fd5b82346102d15760203660031901126102d1576020611e098335612cab565b604051908152f35b9050346102cd576020806003193601126102c557813591611e3133612d97565b156102c957828452600b825260ff600260408620015460a01c1690600a82101561090957506003036102c557818352600b80825260408085206008810180546001600160a01b03191633179055600201805460ff60a01b1916600160a21b179055600c835280852091835284207faa7352d10146444c3afd9bd7fb0ae56b0a85e81139536bbec3f1f660fddd7be193916108ff9190612a30565b9050346102cd57611edb3661248d565b90611ee79392936125a9565b6001600160a01b0384169384156106dd57611f0190612d74565b6106d95783855260206003815260408620926001938460ff1982541617905584825260408720835160018060401b03948582116106c6578190611f488261052e8654612625565b8590601f8311600114612061578b92612056575b5050600019600383901b1c191690861b1790555b8587528482528360408820019481519384116106495750611f95836105828754612625565b81601f8411600114611ff357509282939183928894611fe8575b50501b916000199060031b1c19161790555b7fddbf200aa634dc3fb81cfd68583dd1040d1c751d335e1d86b631bde3e977fea88280a280f35b015192503880611faf565b919083601f198116878a52848a20948a905b8883831061203c5750505010612023575b505050811b019055611fc1565b015160001960f88460031b161c19169055388080612016565b858701518855909601959485019487935090810190612005565b015190503880611f5c565b848c52868c208994509190601f1984168d5b898282106120aa5750508411612091575b505050811b019055611f70565b015160001960f88460031b161c19169055388080612084565b8385015186558c97909501949384019301612073565b82346102d15760203660031901126102d1576120da612477565b906001600160a01b038216156102d157602060ff610cd784612cfd565b9050346102cd576020806003193601126102c55781359161211733612d97565b156102c957828452600b825260ff600260408620015460a01c1690600a82101561090957506007036102c557818352600b8082526040808520600201805460ff60a01b1916600160a31b179055600c835280852091835284207e114a6fadb43e05c82c84612f44de7a592a32426b619579ae7bb4f3815616c793916108ff9190612a30565b9050346102cd57816003193601126102cd5760406020926002923382528452200154604051908152f35b82346102d157602091826003193601126102cd576001600160401b0381358181116102c9576121f8903690840161241c565b9333156102c95760ff61220a33612ce3565b5416156102c95733845260028152604084209285519283116103cc57506122358261032a8554612625565b80601f8311600114612263575083948293949261035f5750508160011b916000199060031b1c191617905580f35b90601f198316958486528286209286905b8882106122935750508360019596971061039b57505050811b01905580f35b80600185968294968601518155019501930190612274565b9050346102cd576020806003193601126102c55781356122ca33612d74565b156102c957808452600b825260ff600260408620015460a01c16600a81101561237e576002036102c9577fc8ca2150e6e1849a10ef5aa4932060fa353bcacdffeb150c9e1890c6ab9403cc92818552600b8352600260408620013360018060a01b031982541617905533855282526123488160026040872001612d4b565b808452600b8083526040808620600201805460ff60a01b1916600360a01b179055600c845280862091845285206108ff91612a30565b634e487b7160e01b855260218452602485fd5b61014081019081106001600160401b038211176123ad57604052565b634e487b7160e01b600052604160045260246000fd5b606081019081106001600160401b038211176123ad57604052565b602081019081106001600160401b038211176123ad57604052565b601f909101601f19168101906001600160401b038211908210176123ad57604052565b81601f82011215612472578035906001600160401b0382116123ad5760405192612450601f8401601f1916602001856123f9565b8284526020838301011161247257816000926020809301838601378301015290565b600080fd5b600435906001600160a01b038216820361247257565b6060600319820112612472576004356001600160a01b038116810361247257916001600160401b0360243581811161247257836124cc9160040161241c565b92604435918211612472576124e39160040161241c565b90565b90600a8210156124f35752565b634e487b7160e01b600052602160045260246000fd5b919082519283825260005b848110612535575050826000602080949584010152601f8019910116010190565b602081830181015184830182015201612514565b90916125606124e393604084526040840190612509565b916020818403910152612509565b6020908160408183019282815285518094520193019160005b828110612595575050505090565b835185529381019392810192600101612587565b6000546001600160a01b031633036125bd57565b606460405162461bcd60e51b815260206004820152602060248201527f4f776e61626c653a2063616c6c6572206973206e6f7420746865206f776e65726044820152fd5b90600a8110156124f357815460ff60a01b191660a09190911b60ff60a01b16179055565b90600182811c92168015612655575b602083101461263f57565b634e487b7160e01b600052602260045260246000fd5b91607f1691612634565b90601f811161266d57505050565b600091825260208220906020601f850160051c830194106126a9575b601f0160051c01915b82811061269e57505050565b818155600101612692565b9092508290612689565b8151815560208083015160018084019190915560408401516002840180546001600160a01b03199081166001600160a01b039384161782556060870151939590949390929190600a8110156124f35761270b91612601565b6080860151805180516001600160401b039692916003860191908882116123ad5761273a8261032a8554612625565b8790601f831160011461288e579282604093600a9896936101209a9896600092612883575b5050600019600383901b1c1916908c1b1790555b87810151600486015501516005840155600683018260a08b01511682825416179055600783018260c08b01511682825416179055600883018260e08b0151168282541617905560098301916101008a015116908254161790550194015180519283116123ad576127e7836105828754612625565b81601f84116001146128205750928293918392600094612815575b50501b916000199060031b1c1916179055565b015192503880612802565b919083601f1981168760005284600020946000905b888383106128695750505010612850575b505050811b019055565b015160001960f88460031b161c19169055388080612846565b858701518855909601959485019487935090810190612835565b01519050388061275f565b8a9291601f19831691856000528a6000209260005b8c8282106128ec57505092604095928592600a9b99966101209d9b9996106128d3575b505050811b019055612773565b015160001960f88460031b161c191690553880806128c6565b8385015186558f979095019493840193016128a3565b805482101561291e57600052600b602060002091020190600090565b634e487b7160e01b600052603260045260246000fd5b60001981146129435760010190565b634e487b7160e01b600052601160045260246000fd5b90808214612a2c5761296b8154612625565b906001600160401b0382116123ad57819061298a8261052e8654612625565b600090601f83116001146129c1576000926129b6575b50508160011b916000199060031b1c1916179055565b0154905038806129a0565b81526020808220858352818320935090601f1985169083905b828210612a135750509084600195949392106129fa57505050811b019055565b015460001960f88460031b161c19169055388080612846565b84958192958501548155600180910196019401906129da565b5050565b8054600160401b8110156123ad57612a4d91600182018155612902565b612b2e57818103612a5c575050565b600a8083612b0894548455600181015460018501556002840160028201612aa660018060a01b039260ff848454169360018060a01b031994858454161783555460a01c1690612601565b6003860160038401808203612b0a575b5050600686018260068501541682825416179055600786018260078501541682825416179055600886018260088501541682825416179055600986019160098401541690825416179055019101612959565b565b612b1391612959565b60048301546004870155600583015460058701553880612ab6565b634e487b7160e01b600052600060045260246000fd5b9060405191826000825492612b5884612625565b908184526001948581169081600014612bc55750600114612b82575b5050612b08925003836123f9565b9093915060005260209081600020936000915b818310612bad575050612b0893508201013880612b74565b85548884018501529485019487945091830191612b95565b915050612b0894506020925060ff191682840152151560051b8201013880612b74565b90604051612bf581612391565b825481526001830154602082015260028301546001600160a01b03808216604084015291938492909160a01c60ff16600a8110156124f35761012092612ca692600a926060870152604051612c49816123c3565b612c5560038401612b44565b8152600483015460208201526005830154604082015260808701528060068301541660a08701528060078301541660c08701528060088301541660e087015260098201541661010086015201612b44565b910152565b600052600b6020526040600020541561247257600c60205260406000205490565b6001600160401b0381116123ad5760051b60200190565b6001600160a01b0316600090815260016020526040902090565b6001600160a01b0316600090815260076020526040902090565b6001600160a01b0316600090815260036020526040902090565b6001600160a01b0316600090815260056020526040902090565b805490600160401b8210156123ad576001820180825582101561291e5760005260206000200155565b6001600160a01b0316801561247257600052600360205260ff6040600020541690565b6001600160a01b0316801561247257600052600560205260ff6040600020541690565b6001600160a01b0316801561247257600052600760205260ff6040600020541690565b6001600160a01b0316801561247257600052600160205260ff604060002054169056fe8be0079c531659141344cd1fd0a4f28419497f9722a3daafe3b4186f6b6457e0a264697066735822122049bd1e31fa5affddddc7396b29e2cf03a58d62c5b13af9d208fcc9ac0630c37f64736f6c63430008110033",
  "linkReferences": {},
  "deployedLinkReferences": {}
}