{
  "_format": "hh-sol-artifact-1",
  "contractName": "SupplyChain",
  "sourceName": "Contracts/SupplyChain.sol",
  "abi": [
    {
      "inputs": [],
      "stateMutability": "payable",
      "type": "constructor"
    },
    {
      "anonymous": false,
      "inputs": [
        {
          "indexed": true,
          "internalType": "address",
          "name": "account",
          "type": "address"
        }
      ],
      "name": "CustomerAdded",
      "type": "event"
    },
    {
      "anonymous": false,
      "inputs": [
        {
          "indexed": true,
          "internalType": "address",
          "name": "account",
          "type": "address"
        }
      ],
      "name": "CustomerRemoved",
      "type": "event"
    },
    {
      "anonymous": false,
      "inputs": [
        {
          "indexed": true,
          "internalType": "address",
          "name": "account",
          "type": "address"
        }
      ],
      "name": "DistributorAdded",
      "type": "event"
    },
    {
      "anonymous": false,
      "inputs": [
        {
          "indexed": true,
          "internalType": "address",
          "name": "account",
          "type": "address"
        }
      ],
      "name": "DistributorRemoved",
      "type": "event"
    },
    {
      "anonymous": false,
      "inputs": [
        {
          "indexed": true,
          "internalType": "address",
          "name": "account",
          "type": "address"
        }
      ],
      "name": "FarmerAdded",
      "type": "event"
    },
    {
      "anonymous": false,
      "inputs": [
        {
          "indexed": true,
          "internalType": "address",
          "name": "account",
          "type": "address"
        }
      ],
      "name": "FarmerRemoved",
      "type": "event"
    },
    {
      "anonymous": false,
      "inputs": [
        {
          "indexed": true,
          "internalType": "address",
          "name": "previousOwner",
          "type": "address"
        },
        {
          "indexed": true,
          "internalType": "address",
          "name": "newOwner",
          "type": "address"
        }
      ],
      "name": "OwnershipTransferred",
      "type": "event"
    },
    {
      "anonymous": false,
      "inputs": [
        {
          "indexed": false,
          "internalType": "uint256",
          "name": "uid",
          "type": "uint256"
        }
      ],
      "name": "ProducedByFarmer",
      "type": "event"
    },
    {
      "anonymous": false,
      "inputs": [
        {
          "indexed": false,
          "internalType": "uint256",
          "name": "uid",
          "type": "uint256"
        }
      ],
      "name": "PurchasedByCustomer",
      "type": "event"
    },
    {
      "anonymous": false,
      "inputs": [
        {
          "indexed": false,
          "internalType": "uint256",
          "name": "uid",
          "type": "uint256"
        }
      ],
      "name": "PurchasedByDistributor",
      "type": "event"
    },
    {
      "anonymous": false,
      "inputs": [
        {
          "indexed": false,
          "internalType": "uint256",
          "name": "uid",
          "type": "uint256"
        }
      ],
      "name": "PurchasedByRetailer",
      "type": "event"
    },
    {
      "anonymous": false,
      "inputs": [
        {
          "indexed": false,
          "internalType": "uint256",
          "name": "uid",
          "type": "uint256"
        }
      ],
      "name": "ReceivedByCustomer",
      "type": "event"
    },
    {
      "anonymous": false,
      "inputs": [
        {
          "indexed": false,
          "internalType": "uint256",
          "name": "uid",
          "type": "uint256"
        }
      ],
      "name": "ReceivedByDistributor",
      "type": "event"
    },
    {
      "anonymous": false,
      "inputs": [
        {
          "indexed": false,
          "internalType": "uint256",
          "name": "uid",
          "type": "uint256"
        }
      ],
      "name": "ReceivedByRetailer",
      "type": "event"
    },
    {
      "anonymous": false,
      "inputs": [
        {
          "indexed": true,
          "internalType": "address",
          "name": "account",
          "type": "address"
        }
      ],
      "name": "RetailerAdded",
      "type": "event"
    },
    {
      "anonymous": false,
      "inputs": [
        {
          "indexed": true,
          "internalType": "address",
          "name": "account",
          "type": "address"
        }
      ],
      "name": "RetailerRemoved",
      "type": "event"
    },
    {
      "anonymous": false,
      "inputs": [
        {
          "indexed": false,
          "internalType": "uint256",
          "name": "uid",
          "type": "uint256"
        }
      ],
      "name": "ShippedByDistributor",
      "type": "event"
    },
    {
      "anonymous": false,
      "inputs": [
        {
          "indexed": false,
          "internalType": "uint256",
          "name": "uid",
          "type": "uint256"
        }
      ],
      "name": "ShippedByFarmer",
      "type": "event"
    },
    {
      "anonymous": false,
      "inputs": [
        {
          "indexed": false,
          "internalType": "uint256",
          "name": "uid",
          "type": "uint256"
        }
      ],
      "name": "ShippedByRetailer",
      "type": "event"
    },
    {
      "inputs": [
        {
          "internalType": "address",
          "name": "account",
          "type": "address"
        },
        {
          "internalType": "string",
          "name": "name",
          "type": "string"
        },
        {
          "internalType": "string",
          "name": "realAddress",
          "type": "string"
        }
      ],
      "name": "addCustomer",
      "outputs": [],
      "stateMutability": "nonpayable",
      "type": "function"
    },
    {
      "inputs": [
        {
          "internalType": "address",
          "name": "account",
          "type": "address"
        },
        {
          "internalType": "string",
          "name": "name",
          "type": "string"
        },
        {
          "internalType": "string",
          "name": "realAddress",
          "type": "string"
        }
      ],
      "name": "addDistributor",
      "outputs": [],
      "stateMutability": "nonpayable",
      "type": "function"
    },
    {
      "inputs": [
        {
          "internalType": "address",
          "name": "account",
          "type": "address"
        },
        {
          "internalType": "string",
          "name": "name",
          "type": "string"
        },
        {
          "internalType": "string",
          "name": "realAddress",
          "type": "string"
        }
      ],
      "name": "addFarmer",
      "outputs": [],
      "stateMutability": "nonpayable",
      "type": "function"
    },
    {
      "inputs": [
        {
          "internalType": "address",
          "name": "account",
          "type": "address"
        },
        {
          "internalType": "string",
          "name": "name",
          "type": "string"
        },
        {
          "internalType": "string",
          "name": "realAddress",
          "type": "string"
        }
      ],
      "name": "addRetailer",
      "outputs": [],
      "stateMutability": "nonpayable",
      "type": "function"
    },
    {
      "inputs": [
        {
          "internalType": "string",
          "name": "name",
          "type": "string"
        }
      ],
      "name": "changeDistributorName",
      "outputs": [],
      "stateMutability": "nonpayable",
      "type": "function"
    },
    {
      "inputs": [
        {
          "internalType": "string",
          "name": "realAddress",
          "type": "string"
        }
      ],
      "name": "changeDistributorRealAddress",
      "outputs": [],
      "stateMutability": "nonpayable",
      "type": "function"
    },
    {
      "inputs": [
        {
          "internalType": "string",
          "name": "name",
          "type": "string"
        }
      ],
      "name": "changeFarmerName",
      "outputs": [],
      "stateMutability": "nonpayable",
      "type": "function"
    },
    {
      "inputs": [
        {
          "internalType": "string",
          "name": "realAddress",
          "type": "string"
        }
      ],
      "name": "changeFarmerRealAddress",
      "outputs": [],
      "stateMutability": "nonpayable",
      "type": "function"
    },
    {
      "inputs": [
        {
          "internalType": "string",
          "name": "name",
          "type": "string"
        }
      ],
      "name": "changeRetailerName",
      "outputs": [],
      "stateMutability": "nonpayable",
      "type": "function"
    },
    {
      "inputs": [
        {
          "internalType": "string",
          "name": "realAddress",
          "type": "string"
        }
      ],
      "name": "changeRetailerRealAddress",
      "outputs": [],
      "stateMutability": "nonpayable",
      "type": "function"
    },
    {
      "inputs": [
        {
          "internalType": "address",
          "name": "account",
          "type": "address"
        }
      ],
      "name": "getAllCustomerProduct",
      "outputs": [
        {
          "internalType": "uint256[]",
          "name": "",
          "type": "uint256[]"
        }
      ],
      "stateMutability": "view",
      "type": "function"
    },
    {
      "inputs": [
        {
          "internalType": "address",
          "name": "account",
          "type": "address"
        }
      ],
      "name": "getAllDistributorProduct",
      "outputs": [
        {
          "internalType": "uint256[]",
          "name": "",
          "type": "uint256[]"
        }
      ],
      "stateMutability": "view",
      "type": "function"
    },
    {
      "inputs": [
        {
          "internalType": "address",
          "name": "account",
          "type": "address"
        }
      ],
      "name": "getAllFarmerProduct",
      "outputs": [
        {
          "internalType": "uint256[]",
          "name": "",
          "type": "uint256[]"
        }
      ],
      "stateMutability": "view",
      "type": "function"
    },
    {
      "inputs": [
        {
          "internalType": "enum Structure.State",
          "name": "state_",
          "type": "uint8"
        }
      ],
      "name": "getAllProductByState",
      "outputs": [
        {
          "internalType": "uint256[]",
          "name": "",
          "type": "uint256[]"
        }
      ],
      "stateMutability": "view",
      "type": "function"
    },
    {
      "inputs": [
        {
          "internalType": "address",
          "name": "account",
          "type": "address"
        }
      ],
      "name": "getAllRetailerProduct",
      "outputs": [
        {
          "internalType": "uint256[]",
          "name": "",
          "type": "uint256[]"
        }
      ],
      "stateMutability": "view",
      "type": "function"
    },
    {
      "inputs": [],
      "name": "getCustomerProductCount",
      "outputs": [
        {
          "internalType": "uint256",
          "name": "",
          "type": "uint256"
        }
      ],
      "stateMutability": "view",
      "type": "function"
    },
    {
      "inputs": [
        {
          "internalType": "address",
          "name": "account",
          "type": "address"
        }
      ],
      "name": "getDistributorInfo",
      "outputs": [
        {
          "internalType": "string",
          "name": "name",
          "type": "string"
        },
        {
          "internalType": "string",
          "name": "realAddress",
          "type": "string"
        }
      ],
      "stateMutability": "view",
      "type": "function"
    },
    {
      "inputs": [],
      "name": "getDistributorProductCount",
      "outputs": [
        {
          "internalType": "uint256",
          "name": "",
          "type": "uint256"
        }
      ],
      "stateMutability": "view",
      "type": "function"
    },
    {
      "inputs": [
        {
          "internalType": "address",
          "name": "account",
          "type": "address"
        }
      ],
      "name": "getFarmerInfo",
      "outputs": [
        {
          "internalType": "string",
          "name": "name",
          "type": "string"
        },
        {
          "internalType": "string",
          "name": "realAddress",
          "type": "string"
        }
      ],
      "stateMutability": "view",
      "type": "function"
    },
    {
      "inputs": [],
      "name": "getFarmerProductCount",
      "outputs": [
        {
          "internalType": "uint256",
          "name": "",
          "type": "uint256"
        }
      ],
      "stateMutability": "view",
      "type": "function"
    },
    {
      "inputs": [
        {
          "internalType": "uint256",
          "name": "_uid",
          "type": "uint256"
        }
      ],
      "name": "getProductDetail",
      "outputs": [
        {
          "internalType": "uint256",
          "name": "productUid",
          "type": "uint256"
        },
        {
          "internalType": "uint256",
          "name": "productSku",
          "type": "uint256"
        },
        {
          "internalType": "address",
          "name": "productOwner",
          "type": "address"
        },
        {
          "internalType": "enum Structure.State",
          "name": "productState",
          "type": "uint8"
        },
        {
          "internalType": "string",
          "name": "productName",
          "type": "string"
        },
        {
          "internalType": "uint256",
          "name": "productPrice",
          "type": "uint256"
        },
        {
          "internalType": "uint256",
          "name": "productCode",
          "type": "uint256"
        },
        {
          "internalType": "address",
          "name": "farmer",
          "type": "address"
        },
        {
          "internalType": "address",
          "name": "distributor",
          "type": "address"
        },
        {
          "internalType": "address",
          "name": "retailer",
          "type": "address"
        },
        {
          "internalType": "address",
          "name": "customer",
          "type": "address"
        },
        {
          "internalType": "uint256",
          "name": "stateChangeTimestamp",
          "type": "uint256"
        }
      ],
      "stateMutability": "view",
      "type": "function"
    },
    {
      "inputs": [
        {
          "internalType": "uint256",
          "name": "_uid",
          "type": "uint256"
        },
        {
          "internalType": "uint256",
          "name": "i",
          "type": "uint256"
        }
      ],
      "name": "getProductHistory",
      "outputs": [
        {
          "internalType": "address",
          "name": "productOwner",
          "type": "address"
        },
        {
          "internalType": "enum Structure.State",
          "name": "productState",
          "type": "uint8"
        },
        {
          "internalType": "address",
          "name": "farmer",
          "type": "address"
        },
        {
          "internalType": "address",
          "name": "distributor",
          "type": "address"
        },
        {
          "internalType": "address",
          "name": "retailer",
          "type": "address"
        },
        {
          "internalType": "address",
          "name": "customer",
          "type": "address"
        },
        {
          "internalType": "uint256",
          "name": "stateChangeTimestamp",
          "type": "uint256"
        }
      ],
      "stateMutability": "view",
      "type": "function"
    },
    {
      "inputs": [
        {
          "internalType": "uint256",
          "name": "_uid",
          "type": "uint256"
        }
      ],
      "name": "getProductHistoryLength",
      "outputs": [
        {
          "internalType": "uint256",
          "name": "",
          "type": "uint256"
        }
      ],
      "stateMutability": "view",
      "type": "function"
    },
    {
      "inputs": [
        {
          "internalType": "address",
          "name": "account",
          "type": "address"
        }
      ],
      "name": "getRetailerInfo",
      "outputs": [
        {
          "internalType": "string",
          "name": "name",
          "type": "string"
        },
        {
          "internalType": "string",
          "name": "realAddress",
          "type": "string"
        }
      ],
      "stateMutability": "view",
      "type": "function"
    },
    {
      "inputs": [],
      "name": "getRetailerProductCount",
      "outputs": [
        {
          "internalType": "uint256",
          "name": "",
          "type": "uint256"
        }
      ],
      "stateMutability": "view",
      "type": "function"
    },
    {
      "inputs": [
        {
          "internalType": "address",
          "name": "account",
          "type": "address"
        }
      ],
      "name": "isCustomer",
      "outputs": [
        {
          "internalType": "bool",
          "name": "",
          "type": "bool"
        }
      ],
      "stateMutability": "view",
      "type": "function"
    },
    {
      "inputs": [
        {
          "internalType": "address",
          "name": "account",
          "type": "address"
        }
      ],
      "name": "isDistributor",
      "outputs": [
        {
          "internalType": "bool",
          "name": "",
          "type": "bool"
        }
      ],
      "stateMutability": "view",
      "type": "function"
    },
    {
      "inputs": [
        {
          "internalType": "address",
          "name": "account",
          "type": "address"
        }
      ],
      "name": "isFarmer",
      "outputs": [
        {
          "internalType": "bool",
          "name": "",
          "type": "bool"
        }
      ],
      "stateMutability": "view",
      "type": "function"
    },
    {
      "inputs": [
        {
          "internalType": "address",
          "name": "account",
          "type": "address"
        }
      ],
      "name": "isRetailer",
      "outputs": [
        {
          "internalType": "bool",
          "name": "",
          "type": "bool"
        }
      ],
      "stateMutability": "view",
      "type": "function"
    },
    {
      "inputs": [],
      "name": "owner",
      "outputs": [
        {
          "internalType": "address",
          "name": "",
          "type": "address"
        }
      ],
      "stateMutability": "view",
      "type": "function"
    },
    {
      "inputs": [
        {
          "internalType": "string",
          "name": "productName",
          "type": "string"
        },
        {
          "internalType": "uint256",
          "name": "productPrice",
          "type": "uint256"
        },
        {
          "internalType": "uint256",
          "name": "productCode",
          "type": "uint256"
        }
      ],
      "name": "produceProduct",
      "outputs": [],
      "stateMutability": "nonpayable",
      "type": "function"
    },
    {
      "inputs": [
        {
          "internalType": "uint256",
          "name": "_uid",
          "type": "uint256"
        }
      ],
      "name": "purchaseByCustomer",
      "outputs": [],
      "stateMutability": "nonpayable",
      "type": "function"
    },
    {
      "inputs": [
        {
          "internalType": "uint256",
          "name": "_uid",
          "type": "uint256"
        }
      ],
      "name": "purchaseByDistributor",
      "outputs": [],
      "stateMutability": "nonpayable",
      "type": "function"
    },
    {
      "inputs": [
        {
          "internalType": "uint256",
          "name": "_uid",
          "type": "uint256"
        }
      ],
      "name": "purchaseByRetailer",
      "outputs": [],
      "stateMutability": "nonpayable",
      "type": "function"
    },
    {
      "inputs": [
        {
          "internalType": "uint256",
          "name": "_uid",
          "type": "uint256"
        }
      ],
      "name": "receiveByCustomer",
      "outputs": [],
      "stateMutability": "nonpayable",
      "type": "function"
    },
    {
      "inputs": [
        {
          "internalType": "uint256",
          "name": "_uid",
          "type": "uint256"
        }
      ],
      "name": "receiveByDistributor",
      "outputs": [],
      "stateMutability": "nonpayable",
      "type": "function"
    },
    {
      "inputs": [
        {
          "internalType": "uint256",
          "name": "_uid",
          "type": "uint256"
        }
      ],
      "name": "receiveByRetailer",
      "outputs": [],
      "stateMutability": "nonpayable",
      "type": "function"
    },
    {
      "inputs": [],
      "name": "renounceCustomer",
      "outputs": [],
      "stateMutability": "nonpayable",
      "type": "function"
    },
    {
      "inputs": [],
      "name": "renounceDistributor",
      "outputs": [],
      "stateMutability": "nonpayable",
      "type": "function"
    },
    {
      "inputs": [],
      "name": "renounceFarmer",
      "outputs": [],
      "stateMutability": "nonpayable",
      "type": "function"
    },
    {
      "inputs": [],
      "name": "renounceOwnership",
      "outputs": [],
      "stateMutability": "nonpayable",
      "type": "function"
    },
    {
      "inputs": [],
      "name": "renounceRetailer",
      "outputs": [],
      "stateMutability": "nonpayable",
      "type": "function"
    },
    {
      "inputs": [
        {
          "internalType": "uint256",
          "name": "_uid",
          "type": "uint256"
        }
      ],
      "name": "shipByDistributor",
      "outputs": [],
      "stateMutability": "nonpayable",
      "type": "function"
    },
    {
      "inputs": [
        {
          "internalType": "uint256",
          "name": "_uid",
          "type": "uint256"
        }
      ],
      "name": "shipByFarmer",
      "outputs": [],
      "stateMutability": "nonpayable",
      "type": "function"
    },
    {
      "inputs": [
        {
          "internalType": "uint256",
          "name": "_uid",
          "type": "uint256"
        }
      ],
      "name": "shipByRetailer",
      "outputs": [],
      "stateMutability": "nonpayable",
      "type": "function"
    },
    {
      "inputs": [
        {
          "internalType": "address",
          "name": "newOwner",
          "type": "address"
        }
      ],
      "name": "transferOwnership",
      "outputs": [],
      "stateMutability": "nonpayable",
      "type": "function"
    },
    {
      "inputs": [],
      "name": "uid",
      "outputs": [
        {
          "internalType": "uint256",
          "name": "",
          "type": "uint256"
        }
      ],
      "stateMutability": "view",
      "type": "function"
    }
  ],
  "bytecode": "0x6080604081905260008054336001600160a01b0319821681178355916001600160a01b03909116907f8be0079c531659141344cd1fd0a4f28419497f9722a3daafe3b4186f6b6457e09080a36001600a556001600955612e7090816100628239f3fe608060405260048036101561001357600080fd5b600090813560e01c90816302d82c55146122f75781630fe71751146122125781631dd0db80146121e857816327491e731461214357816328fd5e831461210c5781632a4af44014611f175781632acd8ae114611e3f5781632fb32c2b14611e195781633a99825214611d285781633d136f4514611ccf57816354c90d8914611c3f5781635da09b8814611c085781635ddc949c14611afa578163644241db14611a8a5781636a432a85146119bb578163715018a6146119735781637217eb2e1461189b57816372df397e146117e757816373bf8ac21461178d5781637a2786c3146115d65781637f97b6fc146115ac57816380fc0ce41461155457816385755923146114c4578163857ddb04146112cd57816386679a66146111e55781638b6df557146110d35781638da5cb5b146110ac5781638f0c86fa1461107557816390d75b3714610f92578163947f34a014610f51578163ac98e6db14610ee1578163ad973d7414610cbf578163b942906914610c7c578163ba0da46a14610baf578163baf6430d14610afb578163bf94060f14610a8b578163ca25e2b214610a61578163cf86dee7146109ac578163d40905be1461091c578163d6a3945814610859578163db0e6a2f146107e9578163deba0c37146106e1578163e9bf6b4c146104ad578163f2fde38b146103fd578163f514ce36146103df578163f709990e146102d4575063fa018ee31461022657600080fd5b346102d1576020806003193601126102cd57610240612491565b6001600160a01b0381169081156102c95761025c60ff91612d17565b5416156102c55782526008815260026040832001916040518092808554928381520194835280832092905b8282106102ae576102aa8561029e81890382612413565b60405191829182612588565b0390f35b835486529485019460019384019390910190610287565b8280fd5b8380fd5b5080fd5b80fd5b82346102d157602091826003193601126102cd576001600160401b0381358181116102c9576103069036908401612436565b93338452828152604084209285519283116103cc57506103308261032a855461263f565b85612679565b80601f831160011461036a575083948293949261035f575b50508160011b916000199060031b1c191617905580f35b015190508480610348565b90601f198316958486528286209286905b8882106103b45750508360019596971061039b575b505050811b01905580f35b015160001960f88460031b161c19169055848080610390565b8060018596829496860151815501950193019061037b565b634e487b7160e01b855260419052602484fd5b82346102d157806003193601126102d1576020600954604051908152f35b9050346102cd5760203660031901126102cd57610418612491565b6104206125c3565b6001600160a01b0390811691821561045a575082546001600160a01b031981168317845516600080516020612e1b8339815191528380a380f35b60849060206040519162461bcd60e51b8352820152602660248201527f4f776e61626c653a206e6577206f776e657220697320746865207a65726f206160448201526564647265737360d01b6064820152fd5b9050346102cd576104bd366124a7565b906104c99392936125c3565b6001600160a01b0384169384156106dd576104e390612df7565b6106d957838552600160208181526040808820805460ff191684179055600282528720835192946001600160401b0394929390928582116106c65781906105348261052e865461263f565b86612679565b8590601f8311600114610667578b9261065c575b5050600019600383901b1c191690861b1790555b85875260028252836040882001948151938411610649575061058883610582875461263f565b87612679565b81601f84116001146105e6575092829391839288946105db575b50501b916000199060031b1c19161790555b7f2e0ded4123377a3c2bc9a26f1717655a129e2f20752924d42e730ec89c83dbd08280a280f35b0151925038806105a2565b919083601f198116878a52848a20948a905b8883831061062f5750505010610616575b505050811b0190556105b4565b015160001960f88460031b161c19169055388080610609565b8587015188559096019594850194879350908101906105f8565b634e487b7160e01b885260419052602487fd5b015190503880610548565b848c52868c208994509190601f1984168d5b898282106106b05750508411610697575b505050811b01905561055c565b015160001960f88460031b161c1916905538808061068a565b8385015186558c97909501949384019301610679565b634e487b7160e01b8a526041885260248afd5b8480fd5b8580fd5b9050346102cd576020806003193601126102c5576001600160401b0382358181116106d9576107139036908501612436565b91338552600681526001928360408720019481519384116107d6575061073d83610582875461263f565b81601f84116001146107765750928293918392879461076b575b50501b916000199060031b1c191617905580f35b015192503880610757565b919083601f1981168789528489209489905b888383106107bc57505050106107a357505050811b01905580f35b015160001960f88460031b161c19169055388080610390565b858701518855909601959485019487935090810190610788565b634e487b7160e01b875260419052602486fd5b82346102d157806003193601126102d15733156102d15760ff61080b33612d4b565b5416156102d15761081b33612db1565b156102d15761082933612d4b565b805460ff19169055337fdb7176e79cffef81cb01767dd0447a0b24bb72ca9778d4b245581086b2a7e6db8280a280f35b9050346102cd576020806003193601126102c55781359161087933612df7565b156102c957828452600b825260ff600260408620015460a01c1690600a82101561090957506001036102c557818352600b8082526040808520600201805460ff60a01b1916600160a11b179055600c835280852091835284207fe6ae062d51064ae2a5a31a72fcb1bee1d343fdc6bddc1d3dfce658ece4f0321293916108ff9190612a4a565b604051908152a180f35b634e487b7160e01b855260219052602484fd5b82346102d1576020806003193601126102cd57610937612491565b6001600160a01b0381169081156102c95761095360ff91612cfd565b5416156102c55782526002815260026040832001916040518092808554928381520194835280832092905b828210610995576102aa8561029e81890382612413565b83548652948501946001938401939091019061097e565b9050346102cd576020806003193601126102c5578135916109cc33612d8e565b156102c957828452600b825260ff600260408620015460a01c16600a811015610a4e57036102c557818352600b8082526040808520600201805460ff60a01b1916600560a01b179055600c835280852091835284207fc5c33776d405e5686e4386e1ef31a65cf6195e4f7ceb8808ab64d05b6ccbc2a693916108ff9190612a4a565b634e487b7160e01b855260218252602485fd5b82346102d157806003193601126102d1576002604060209233815260068452200154604051908152f35b82346102d15760203660031901126102d157610aa5612491565b6001600160a01b0381169081156102c557610ac160ff91612d4b565b5416156102cd5781526006602052610aeb610ae56001604080852094200192612b5e565b91612b5e565b906102aa60405192839283612563565b9050346102cd576020806003193601126102c557813591610b1b33612db1565b156102c957828452600b825260ff600260408620015460a01c1690600a82101561090957506005036102c557818352600b8082526040808520600201805460ff60a01b1933166001600160a81b031990911617600360a11b179055600c835280852091835284207f322f34e90f2269750b3e28178631d975cc678db36f21098fe548b7f755ce0bd093916108ff9190612a4a565b82346102d157602091826003193601126102cd576001600160401b0381358181116102c957610be19036908401612436565b9333845260068152604084209285519283116103cc5750610c068261032a855461263f565b80601f8311600114610c34575083948293949261035f5750508160011b916000199060031b1c191617905580f35b90601f198316958486528286209286905b888210610c645750508360019596971061039b57505050811b01905580f35b80600185968294968601518155019501930190610c45565b82346102d15760203660031901126102d157610c96612491565b906001600160a01b038216156102d157602060ff610cb384612cfd565b54166040519015158152f35b9050346102cd57602090816003193601126102c557610cdc612491565b91610ce56125c3565b604051610cf1816123f8565b84815260405191610d01836123f8565b8583526001600160a01b038516948515610edd57610d1e90612dd4565b6106dd578486526007815260408620926001938460ff198254161790556008825260408720835160018060401b03948582116106c6578190610d648261052e865461263f565b8590601f8311600114610e7e578b92610e73575b5050600019600383901b1c191690861b1790555b858752600882528360408820019481519384116106495750610db283610582875461263f565b81601f8411600114610e1057509282939183928894610e05575b50501b916000199060031b1c19161790555b7fcd118a02bd36f224f6f1b93812f78d2bbc2c2dc1bc0f60c176e3b4fe09f1483f8280a280f35b015192503880610dcc565b919083601f198116878a52848a20948a905b88838310610e595750505010610e40575b505050811b019055610dde565b015160001960f88460031b161c19169055388080610e33565b858701518855909601959485019487935090810190610e22565b015190503880610d78565b848c52868c208994509190601f1984168d5b89828210610ec75750508411610eae575b505050811b019055610d8c565b015160001960f88460031b161c19169055388080610ea1565b8385015186558c97909501949384019301610e90565b8680fd5b82346102d157806003193601126102d15733156102d15760ff610f0333612d17565b5416156102d157610f1333612dd4565b156102d157610f2133612d17565b805460ff19169055337fb4c88a9c5cd906354abdd1cc29e4f94c6c4de90754fb80ce51e6a33417bc81b68280a280f35b82346102d157806003193601126102d15733156102d15760ff610f7333612cfd565b5416156102d15760026040602092338152828452200154604051908152f35b9050346102cd576020806003193601126102c5578135610fb133612d8e565b156102c957808452600b825260ff600260408620015460a01c16600a811015611062576102c9577facd9402b9f9e8c15fa7c1819f8393ca56eb61316cc354fc6ac2150aed3ce793192818552600b8352600760408620013360018060a01b0319825416179055338552825261102c8160026040872001612d65565b808452600b8083526040808620600201805460ff60a01b1916600160a01b179055600c845280862091845285206108ff91612a4a565b634e487b7160e01b855260218452602485fd5b82346102d15760203660031901126102d15761108f612491565b906001600160a01b038216156102d157602060ff610cb384612d31565b82346102d157806003193601126102d157546040516001600160a01b039091168152602090f35b82346102d1576020806003193601126102cd57823590600a908183101593846102d157600954936000198501958587116111d25761111087612ce6565b9661111e6040519889612413565b80885261112d601f1991612ce6565b013685890137829460015b87811061114d57604051806102aa8b82612588565b808552600b8652604085206002015460a01c60ff16836111bf57828110156111bf578414611184575b61117f9061294e565b611138565b9588518110156111ac576111a481888861117f9460051b8d01015261294e565b969050611176565b634e487b7160e01b855260328a52602485fd5b634e487b7160e01b865260218b52602486fd5b634e487b7160e01b835260118852602483fd5b9050346102cd576020806003193601126102c5576001600160401b0382358181116106d9576112179036908501612436565b9133156106d95760ff61122933612cfd565b5416156106d957338552600281526001928360408720019481519384116107d6575061125983610582875461263f565b81601f84116001146112865750928293918392879461076b5750501b916000199060031b1c191617905580f35b919083601f1981168789528489209489905b888383106112b357505050106107a357505050811b01905580f35b858701518855909601959485019487935090810190611298565b9050346102cd576112dd366124a7565b906112e99392936125c3565b6001600160a01b0384169384156106dd5761130390612db1565b6106d95783855260206005815260408620926001938460ff198254161790556006825260408720835160018060401b03948582116106c657819061134b8261052e865461263f565b8590601f8311600114611465578b9261145a575b5050600019600383901b1c191690861b1790555b85875260068252836040882001948151938411610649575061139983610582875461263f565b81601f84116001146113f7575092829391839288946113ec575b50501b916000199060031b1c19161790555b7f71ae26cad02663e3d92efd6ec56031a80d74a20c0ab4183faa8bf262261c9baa8280a280f35b0151925038806113b3565b919083601f198116878a52848a20948a905b888383106114405750505010611427575b505050811b0190556113c5565b015160001960f88460031b161c1916905538808061141a565b858701518855909601959485019487935090810190611409565b01519050388061135f565b848c52868c208994509190601f1984168d5b898282106114ae5750508411611495575b505050811b019055611373565b015160001960f88460031b161c19169055388080611488565b8385015186558c97909501949384019301611477565b9050346102cd57602090816003193601126102c5576114e1612491565b6001600160a01b0381169081156106d9576114fd60ff91612d31565b5416156102c9578352815260026040832001916040518092808554928381520194835280832092905b82821061153d576102aa8561029e81890382612413565b835486529485019460019384019390910190611526565b82346102d157806003193601126102d15761156e33612df7565b156102d15761157c33612cfd565b805460ff19169055337fa5e0f060af304ab17dd418c7927e3da3ae7868189bf387aee09ab179ccc572f28280a280f35b82346102d157806003193601126102d1576002604060209233815260088452200154604051908152f35b82346102d15760603660031901126102d15781356001600160401b0381116102cd576116059036908401612436565b61160e33612df7565b156102cd5760405161161f816123ab565b8281526020918282018481526040830190858252606084019286845260808501916040519061164d826123dd565b8888830152886040830152818452600a549052600954938487523390523360a08701528760c08701528760e087015287610100870152606061012087015252602435858251015260406044359151015233156106d95760ff6116ae33612cfd565b5416156106d957906116ce85923384526002865260026040852001612d65565b526009548352600b82526116e581604085206126cd565b6009548352600c825260408320805490600160401b82101561177a57906117119160018201815561291c565b611768576117629291611723916126cd565b7fb55ecf2eb9ce3c54a45708010da84a35a897635e97a936f98c9804c5847b4d2260095491604051838152a161175a600a5461294e565b600a5561294e565b60095580f35b634e487b7160e01b8452838552602484fd5b634e487b7160e01b855260418652602485fd5b82346102d15760203660031901126102d1576117a7612491565b6001600160a01b0381169081156102c5576117c360ff91612cfd565b5416156102cd5781526002602052610aeb610ae56001604080852094200192612b5e565b9050346102cd576020806003193601126102c55781359161180733612dd4565b156102c957828452600b825260ff600260408620015460a01c1690600a82101561090957506008036102c557818352600b8082526040808520600201805460ff60a01b1933166001600160a81b031990911617600960a01b179055600c835280852091835284207f8a746d5b91a9a334d1abbeee7d031aac6d5c59ea6e982ac06aef4346cce5749e93916108ff9190612a4a565b9050346102cd576020806003193601126102c5578135916118bb33612dd4565b156102c957828452600b825260ff600260408620015460a01c1690600a82101561090957506006036102c557817ffd054e59d299873fab61a3c67d86d3a139b75dcd5cd82894d8983fc5e2669c82928452600b8252600960408520013360018060a01b03198254161790553384526008825261193d8160026040872001612d65565b808452600b8083526040808620600201805460ff60a01b1916600760a01b179055600c845280862091845285206108ff91612a4a565b82346102d157806003193601126102d15761198c6125c3565b80546001600160a01b03198116825581906001600160a01b0316600080516020612e1b8339815191528280a380f35b9050346102cd576020806003193601126102c5576001600160401b0382358181116106d9576119ed9036908501612436565b913385528381526001928360408720019481519384116107d65750611a1683610582875461263f565b81601f8411600114611a435750928293918392879461076b5750501b916000199060031b1c191617905580f35b919083601f1981168789528489209489905b88838310611a7057505050106107a357505050811b01905580f35b858701518855909601959485019487935090810190611a55565b82346102d157806003193601126102d15733156102d15760ff611aac33612d31565b5416156102d157611abc33612d8e565b156102d157611aca33612d31565b805460ff19169055337f126174f6cf49c81cdb4a9214c6b8f037bef55b4ec31e4fc776cea2a1c8a88d598280a280f35b9050346102cd5760203660031901126102cd5780358252600b6020526040822054156102cd57611b2c60408320612c02565b9182519160208401519360018060a01b038060408301511693606083015193600a851015611bf55750506080820151928351604085015194602001518360a086015116918460c087015116938560e0880151169561010088015116966101200151986040519b8c9b8c5260208c015260408b015260608a01611bad91612500565b6101808060808b01528901611bc191612523565b9560a089015260c088015260e08701526101008601526101208501526101408401528281036101608401526102aa91612523565b634e487b7160e01b825260219052602490fd5b82346102d15760203660031901126102d157611c22612491565b906001600160a01b038216156102d157602060ff610cb384612d4b565b82346102d1576020806003193601126102cd57611c5a612491565b6001600160a01b0381169081156102c957611c7660ff91612d4b565b5416156102c55782526006815260026040832001916040518092808554928381520194835280832092905b828210611cb8576102aa8561029e81890382612413565b835486529485019460019384019390910190611ca1565b9050346102cd5760203660031901126102cd57611cea612491565b6001600160a01b0381169081156102c957611d0660ff91612d31565b5416156102c5578252602052610aeb610ae56001604080852094200192612b5e565b82346102d15760403660031901126102d157813560243590808352600b6020526040832054156102c557611d5b81612cc5565b8210156102c557611d8091611d7a918452600c6020526040842061291c565b50612c02565b60408101516060820151926001600160a01b039182169290600a851015611e06575090818160a06102aa94015116918060c0830151166101208260e085015116926101008501511693015193611de160405198899889526020890190612500565b60408701526060860152608085015260a084015260e060c084015260e0830190612523565b634e487b7160e01b815260218652602490fd5b82346102d15760203660031901126102d1576020611e378335612cc5565b604051908152f35b9050346102cd576020806003193601126102c557813591611e5f33612db1565b156102c957828452600b825260ff600260408620015460a01c1690600a82101561090957506003036102c557817faa7352d10146444c3afd9bd7fb0ae56b0a85e81139536bbec3f1f660fddd7be1928452600b8252600860408520013360018060a01b031982541617905533845260068252611ee18160026040872001612d65565b808452600b8083526040808620600201805460ff60a01b1916600160a21b179055600c845280862091845285206108ff91612a4a565b9050346102cd57611f27366124a7565b90611f339392936125c3565b6001600160a01b0384169384156106dd57611f4d90612d8e565b6106d95783855260206003815260408620926001938460ff1982541617905584825260408720835160018060401b03948582116106c6578190611f948261052e865461263f565b8590601f83116001146120ad578b926120a2575b5050600019600383901b1c191690861b1790555b8587528482528360408820019481519384116106495750611fe183610582875461263f565b81601f841160011461203f57509282939183928894612034575b50501b916000199060031b1c19161790555b7fddbf200aa634dc3fb81cfd68583dd1040d1c751d335e1d86b631bde3e977fea88280a280f35b015192503880611ffb565b919083601f198116878a52848a20948a905b88838310612088575050501061206f575b505050811b01905561200d565b015160001960f88460031b161c19169055388080612062565b858701518855909601959485019487935090810190612051565b015190503880611fa8565b848c52868c208994509190601f1984168d5b898282106120f657505084116120dd575b505050811b019055611fbc565b015160001960f88460031b161c191690553880806120d0565b8385015186558c979095019493840193016120bf565b82346102d15760203660031901126102d157612126612491565b906001600160a01b038216156102d157602060ff610cb384612d17565b9050346102cd576020806003193601126102c55781359161216333612db1565b156102c957828452600b825260ff600260408620015460a01c1690600a82101561090957506007036102c557818352600b8082526040808520600201805460ff60a01b1916600160a31b179055600c835280852091835284207e114a6fadb43e05c82c84612f44de7a592a32426b619579ae7bb4f3815616c793916108ff9190612a4a565b9050346102cd57816003193601126102cd5760406020926002923382528452200154604051908152f35b82346102d157602091826003193601126102cd576001600160401b0381358181116102c9576122449036908401612436565b9333156102c95760ff61225633612cfd565b5416156102c95733845260028152604084209285519283116103cc57506122818261032a855461263f565b80601f83116001146122af575083948293949261035f5750508160011b916000199060031b1c191617905580f35b90601f198316958486528286209286905b8882106122df5750508360019596971061039b57505050811b01905580f35b806001859682949686015181550195019301906122c0565b9050346102cd576020806003193601126102c55781359161231733612d8e565b156102c957828452600b825260ff600260408620015460a01c1690600a82101561090957506002036102c557818352600b8082526040808520600201805460ff60a01b1933166001600160a81b031990911617600360a01b179055600c835280852091835284207fc8ca2150e6e1849a10ef5aa4932060fa353bcacdffeb150c9e1890c6ab9403cc93916108ff9190612a4a565b61014081019081106001600160401b038211176123c757604052565b634e487b7160e01b600052604160045260246000fd5b606081019081106001600160401b038211176123c757604052565b602081019081106001600160401b038211176123c757604052565b601f909101601f19168101906001600160401b038211908210176123c757604052565b81601f8201121561248c578035906001600160401b0382116123c7576040519261246a601f8401601f191660200185612413565b8284526020838301011161248c57816000926020809301838601378301015290565b600080fd5b600435906001600160a01b038216820361248c57565b606060031982011261248c576004356001600160a01b038116810361248c57916001600160401b0360243581811161248c57836124e691600401612436565b9260443591821161248c576124fd91600401612436565b90565b90600a82101561250d5752565b634e487b7160e01b600052602160045260246000fd5b919082519283825260005b84811061254f575050826000602080949584010152601f8019910116010190565b60208183018101518483018201520161252e565b909161257a6124fd93604084526040840190612523565b916020818403910152612523565b6020908160408183019282815285518094520193019160005b8281106125af575050505090565b8351855293810193928101926001016125a1565b6000546001600160a01b031633036125d757565b606460405162461bcd60e51b815260206004820152602060248201527f4f776e61626c653a2063616c6c6572206973206e6f7420746865206f776e65726044820152fd5b90600a81101561250d57815460ff60a01b191660a09190911b60ff60a01b16179055565b90600182811c9216801561266f575b602083101461265957565b634e487b7160e01b600052602260045260246000fd5b91607f169161264e565b90601f811161268757505050565b600091825260208220906020601f850160051c830194106126c3575b601f0160051c01915b8281106126b857505050565b8181556001016126ac565b90925082906126a3565b8151815560208083015160018084019190915560408401516002840180546001600160a01b03199081166001600160a01b039384161782556060870151939590949390929190600a81101561250d576127259161261b565b6080860151805180516001600160401b039692916003860191908882116123c7576127548261032a855461263f565b8790601f83116001146128a8579282604093600a9896936101209a989660009261289d575b5050600019600383901b1c1916908c1b1790555b87810151600486015501516005840155600683018260a08b01511682825416179055600783018260c08b01511682825416179055600883018260e08b0151168282541617905560098301916101008a015116908254161790550194015180519283116123c75761280183610582875461263f565b81601f841160011461283a575092829391839260009461282f575b50501b916000199060031b1c1916179055565b01519250388061281c565b919083601f1981168760005284600020946000905b88838310612883575050501061286a575b505050811b019055565b015160001960f88460031b161c19169055388080612860565b85870151885590960195948501948793509081019061284f565b015190503880612779565b8a9291601f19831691856000528a6000209260005b8c82821061290657505092604095928592600a9b99966101209d9b9996106128ed575b505050811b01905561278d565b015160001960f88460031b161c191690553880806128e0565b8385015186558f979095019493840193016128bd565b805482101561293857600052600b602060002091020190600090565b634e487b7160e01b600052603260045260246000fd5b600019811461295d5760010190565b634e487b7160e01b600052601160045260246000fd5b90808214612a4657612985815461263f565b906001600160401b0382116123c75781906129a48261052e865461263f565b600090601f83116001146129db576000926129d0575b50508160011b916000199060031b1c1916179055565b0154905038806129ba565b81526020808220858352818320935090601f1985169083905b828210612a2d575050908460019594939210612a1457505050811b019055565b015460001960f88460031b161c19169055388080612860565b84958192958501548155600180910196019401906129f4565b5050565b8054600160401b8110156123c757612a679160018201815561291c565b612b4857818103612a76575050565b600a8083612b2294548455600181015460018501556002840160028201612ac060018060a01b039260ff848454169360018060a01b031994858454161783555460a01c169061261b565b6003860160038401808203612b24575b5050600686018260068501541682825416179055600786018260078501541682825416179055600886018260088501541682825416179055600986019160098401541690825416179055019101612973565b565b612b2d91612973565b60048301546004870155600583015460058701553880612ad0565b634e487b7160e01b600052600060045260246000fd5b9060405191826000825492612b728461263f565b908184526001948581169081600014612bdf5750600114612b9c575b5050612b2292500383612413565b9093915060005260209081600020936000915b818310612bc7575050612b2293508201013880612b8e565b85548884018501529485019487945091830191612baf565b915050612b2294506020925060ff191682840152151560051b8201013880612b8e565b90604051612c0f816123ab565b825481526001830154602082015260028301546001600160a01b03808216604084015291938492909160a01c60ff16600a81101561250d5761012092612cc092600a926060870152604051612c63816123dd565b612c6f60038401612b5e565b8152600483015460208201526005830154604082015260808701528060068301541660a08701528060078301541660c08701528060088301541660e087015260098201541661010086015201612b5e565b910152565b600052600b6020526040600020541561248c57600c60205260406000205490565b6001600160401b0381116123c75760051b60200190565b6001600160a01b0316600090815260016020526040902090565b6001600160a01b0316600090815260076020526040902090565b6001600160a01b0316600090815260036020526040902090565b6001600160a01b0316600090815260056020526040902090565b805490600160401b8210156123c757600182018082558210156129385760005260206000200155565b6001600160a01b0316801561248c57600052600360205260ff6040600020541690565b6001600160a01b0316801561248c57600052600560205260ff6040600020541690565b6001600160a01b0316801561248c57600052600760205260ff6040600020541690565b6001600160a01b0316801561248c57600052600160205260ff604060002054169056fe8be0079c531659141344cd1fd0a4f28419497f9722a3daafe3b4186f6b6457e0a2646970667358221220ffcf535046cc4aadc63da6c23cfe4162e891fa49680f62ca5679ddc01666f75164736f6c63430008110033",
  "linkReferences": {},
  "deployedLinkReferences": {}
}