{
  "_format": "hh-sol-artifact-1",
  "contractName": "SupplyChain",
  "sourceName": "Contracts/SupplyChain.sol",
  "abi": [
    {
      "inputs": [],
      "stateMutability": "payable",
      "type": "constructor"
    },
    {
      "anonymous": false,
      "inputs": [
        {
          "indexed": true,
          "internalType": "address",
          "name": "account",
          "type": "address"
        }
      ],
      "name": "CustomerAdded",
      "type": "event"
    },
    {
      "anonymous": false,
      "inputs": [
        {
          "indexed": true,
          "internalType": "address",
          "name": "account",
          "type": "address"
        }
      ],
      "name": "CustomerRemoved",
      "type": "event"
    },
    {
      "anonymous": false,
      "inputs": [
        {
          "indexed": true,
          "internalType": "address",
          "name": "account",
          "type": "address"
        }
      ],
      "name": "DistributorAdded",
      "type": "event"
    },
    {
      "anonymous": false,
      "inputs": [
        {
          "indexed": true,
          "internalType": "address",
          "name": "account",
          "type": "address"
        }
      ],
      "name": "DistributorRemoved",
      "type": "event"
    },
    {
      "anonymous": false,
      "inputs": [
        {
          "indexed": true,
          "internalType": "address",
          "name": "account",
          "type": "address"
        }
      ],
      "name": "FarmerAdded",
      "type": "event"
    },
    {
      "anonymous": false,
      "inputs": [
        {
          "indexed": true,
          "internalType": "address",
          "name": "account",
          "type": "address"
        }
      ],
      "name": "FarmerRemoved",
      "type": "event"
    },
    {
      "anonymous": false,
      "inputs": [
        {
          "indexed": true,
          "internalType": "address",
          "name": "previousOwner",
          "type": "address"
        },
        {
          "indexed": true,
          "internalType": "address",
          "name": "newOwner",
          "type": "address"
        }
      ],
      "name": "OwnershipTransferred",
      "type": "event"
    },
    {
      "anonymous": false,
      "inputs": [
        {
          "indexed": false,
          "internalType": "uint256",
          "name": "uid",
          "type": "uint256"
        }
      ],
      "name": "ProducedByFarmer",
      "type": "event"
    },
    {
      "anonymous": false,
      "inputs": [
        {
          "indexed": false,
          "internalType": "uint256",
          "name": "uid",
          "type": "uint256"
        }
      ],
      "name": "PurchasedByCustomer",
      "type": "event"
    },
    {
      "anonymous": false,
      "inputs": [
        {
          "indexed": false,
          "internalType": "uint256",
          "name": "uid",
          "type": "uint256"
        }
      ],
      "name": "PurchasedByDistributor",
      "type": "event"
    },
    {
      "anonymous": false,
      "inputs": [
        {
          "indexed": false,
          "internalType": "uint256",
          "name": "uid",
          "type": "uint256"
        }
      ],
      "name": "PurchasedByRetailer",
      "type": "event"
    },
    {
      "anonymous": false,
      "inputs": [
        {
          "indexed": false,
          "internalType": "uint256",
          "name": "uid",
          "type": "uint256"
        }
      ],
      "name": "ReceivedByCustomer",
      "type": "event"
    },
    {
      "anonymous": false,
      "inputs": [
        {
          "indexed": false,
          "internalType": "uint256",
          "name": "uid",
          "type": "uint256"
        }
      ],
      "name": "ReceivedByDistributor",
      "type": "event"
    },
    {
      "anonymous": false,
      "inputs": [
        {
          "indexed": false,
          "internalType": "uint256",
          "name": "uid",
          "type": "uint256"
        }
      ],
      "name": "ReceivedByRetailer",
      "type": "event"
    },
    {
      "anonymous": false,
      "inputs": [
        {
          "indexed": true,
          "internalType": "address",
          "name": "account",
          "type": "address"
        }
      ],
      "name": "RetailerAdded",
      "type": "event"
    },
    {
      "anonymous": false,
      "inputs": [
        {
          "indexed": true,
          "internalType": "address",
          "name": "account",
          "type": "address"
        }
      ],
      "name": "RetailerRemoved",
      "type": "event"
    },
    {
      "anonymous": false,
      "inputs": [
        {
          "indexed": false,
          "internalType": "uint256",
          "name": "uid",
          "type": "uint256"
        }
      ],
      "name": "ShippedByDistributor",
      "type": "event"
    },
    {
      "anonymous": false,
      "inputs": [
        {
          "indexed": false,
          "internalType": "uint256",
          "name": "uid",
          "type": "uint256"
        }
      ],
      "name": "ShippedByFarmer",
      "type": "event"
    },
    {
      "anonymous": false,
      "inputs": [
        {
          "indexed": false,
          "internalType": "uint256",
          "name": "uid",
          "type": "uint256"
        }
      ],
      "name": "ShippedByRetailer",
      "type": "event"
    },
    {
      "inputs": [
        {
          "internalType": "address",
          "name": "account",
          "type": "address"
        }
      ],
      "name": "addCustomer",
      "outputs": [],
      "stateMutability": "nonpayable",
      "type": "function"
    },
    {
      "inputs": [
        {
          "internalType": "address",
          "name": "account",
          "type": "address"
        },
        {
          "internalType": "string",
          "name": "name",
          "type": "string"
        },
        {
          "internalType": "string",
          "name": "realAddress",
          "type": "string"
        }
      ],
      "name": "addDistributor",
      "outputs": [],
      "stateMutability": "nonpayable",
      "type": "function"
    },
    {
      "inputs": [
        {
          "internalType": "address",
          "name": "account",
          "type": "address"
        },
        {
          "internalType": "string",
          "name": "name",
          "type": "string"
        },
        {
          "internalType": "string",
          "name": "realAddress",
          "type": "string"
        }
      ],
      "name": "addFarmer",
      "outputs": [],
      "stateMutability": "nonpayable",
      "type": "function"
    },
    {
      "inputs": [
        {
          "internalType": "address",
          "name": "account",
          "type": "address"
        },
        {
          "internalType": "string",
          "name": "name",
          "type": "string"
        },
        {
          "internalType": "string",
          "name": "realAddress",
          "type": "string"
        }
      ],
      "name": "addRetailer",
      "outputs": [],
      "stateMutability": "nonpayable",
      "type": "function"
    },
    {
      "inputs": [
        {
          "internalType": "string",
          "name": "name",
          "type": "string"
        }
      ],
      "name": "changeDistributorName",
      "outputs": [],
      "stateMutability": "nonpayable",
      "type": "function"
    },
    {
      "inputs": [
        {
          "internalType": "string",
          "name": "realAddress",
          "type": "string"
        }
      ],
      "name": "changeDistributorRealAddress",
      "outputs": [],
      "stateMutability": "nonpayable",
      "type": "function"
    },
    {
      "inputs": [
        {
          "internalType": "string",
          "name": "name",
          "type": "string"
        }
      ],
      "name": "changeFarmerName",
      "outputs": [],
      "stateMutability": "nonpayable",
      "type": "function"
    },
    {
      "inputs": [
        {
          "internalType": "string",
          "name": "realAddress",
          "type": "string"
        }
      ],
      "name": "changeFarmerRealAddress",
      "outputs": [],
      "stateMutability": "nonpayable",
      "type": "function"
    },
    {
      "inputs": [
        {
          "internalType": "string",
          "name": "name",
          "type": "string"
        }
      ],
      "name": "changeRetailerName",
      "outputs": [],
      "stateMutability": "nonpayable",
      "type": "function"
    },
    {
      "inputs": [
        {
          "internalType": "string",
          "name": "realAddress",
          "type": "string"
        }
      ],
      "name": "changeRetailerRealAddress",
      "outputs": [],
      "stateMutability": "nonpayable",
      "type": "function"
    },
    {
      "inputs": [],
      "name": "getAllCustomerProduct",
      "outputs": [
        {
          "internalType": "uint256[]",
          "name": "",
          "type": "uint256[]"
        }
      ],
      "stateMutability": "view",
      "type": "function"
    },
    {
      "inputs": [],
      "name": "getAllDistributorProduct",
      "outputs": [
        {
          "internalType": "uint256[]",
          "name": "",
          "type": "uint256[]"
        }
      ],
      "stateMutability": "view",
      "type": "function"
    },
    {
      "inputs": [],
      "name": "getAllFarmerProduct",
      "outputs": [
        {
          "internalType": "uint256[]",
          "name": "",
          "type": "uint256[]"
        }
      ],
      "stateMutability": "view",
      "type": "function"
    },
    {
      "inputs": [],
      "name": "getAllRetailerProduct",
      "outputs": [
        {
          "internalType": "uint256[]",
          "name": "",
          "type": "uint256[]"
        }
      ],
      "stateMutability": "view",
      "type": "function"
    },
    {
      "inputs": [],
      "name": "getCustomerProductCount",
      "outputs": [
        {
          "internalType": "uint256",
          "name": "",
          "type": "uint256"
        }
      ],
      "stateMutability": "view",
      "type": "function"
    },
    {
      "inputs": [
        {
          "internalType": "address",
          "name": "account",
          "type": "address"
        }
      ],
      "name": "getDistributorInfo",
      "outputs": [
        {
          "internalType": "string",
          "name": "name",
          "type": "string"
        },
        {
          "internalType": "string",
          "name": "realAddress",
          "type": "string"
        }
      ],
      "stateMutability": "view",
      "type": "function"
    },
    {
      "inputs": [],
      "name": "getDistributorProductCount",
      "outputs": [
        {
          "internalType": "uint256",
          "name": "",
          "type": "uint256"
        }
      ],
      "stateMutability": "view",
      "type": "function"
    },
    {
      "inputs": [
        {
          "internalType": "address",
          "name": "account",
          "type": "address"
        }
      ],
      "name": "getFarmerInfo",
      "outputs": [
        {
          "internalType": "string",
          "name": "name",
          "type": "string"
        },
        {
          "internalType": "string",
          "name": "realAddress",
          "type": "string"
        }
      ],
      "stateMutability": "view",
      "type": "function"
    },
    {
      "inputs": [],
      "name": "getFarmerProductCount",
      "outputs": [
        {
          "internalType": "uint256",
          "name": "",
          "type": "uint256"
        }
      ],
      "stateMutability": "view",
      "type": "function"
    },
    {
      "inputs": [
        {
          "internalType": "uint256",
          "name": "_uid",
          "type": "uint256"
        }
      ],
      "name": "getProductDetail",
      "outputs": [
        {
          "internalType": "uint256",
          "name": "productUid",
          "type": "uint256"
        },
        {
          "internalType": "uint256",
          "name": "productSku",
          "type": "uint256"
        },
        {
          "internalType": "address",
          "name": "productOwner",
          "type": "address"
        },
        {
          "internalType": "enum Structure.State",
          "name": "productState",
          "type": "uint8"
        },
        {
          "internalType": "string",
          "name": "productName",
          "type": "string"
        },
        {
          "internalType": "uint256",
          "name": "productPrice",
          "type": "uint256"
        },
        {
          "internalType": "uint256",
          "name": "productCode",
          "type": "uint256"
        },
        {
          "internalType": "address",
          "name": "farmer",
          "type": "address"
        },
        {
          "internalType": "address",
          "name": "distributor",
          "type": "address"
        },
        {
          "internalType": "address",
          "name": "retailer",
          "type": "address"
        },
        {
          "internalType": "address",
          "name": "customer",
          "type": "address"
        },
        {
          "internalType": "string",
          "name": "transaction",
          "type": "string"
        }
      ],
      "stateMutability": "view",
      "type": "function"
    },
    {
      "inputs": [
        {
          "internalType": "uint256",
          "name": "_uid",
          "type": "uint256"
        },
        {
          "internalType": "uint256",
          "name": "i",
          "type": "uint256"
        }
      ],
      "name": "getProductHistory",
      "outputs": [
        {
          "internalType": "address",
          "name": "productOwner",
          "type": "address"
        },
        {
          "internalType": "enum Structure.State",
          "name": "productState",
          "type": "uint8"
        },
        {
          "internalType": "address",
          "name": "farmer",
          "type": "address"
        },
        {
          "internalType": "address",
          "name": "distributor",
          "type": "address"
        },
        {
          "internalType": "address",
          "name": "retailer",
          "type": "address"
        },
        {
          "internalType": "address",
          "name": "customer",
          "type": "address"
        },
        {
          "internalType": "string",
          "name": "transaction",
          "type": "string"
        }
      ],
      "stateMutability": "view",
      "type": "function"
    },
    {
      "inputs": [
        {
          "internalType": "uint256",
          "name": "_uid",
          "type": "uint256"
        }
      ],
      "name": "getProductHistoryLength",
      "outputs": [
        {
          "internalType": "uint256",
          "name": "",
          "type": "uint256"
        }
      ],
      "stateMutability": "view",
      "type": "function"
    },
    {
      "inputs": [
        {
          "internalType": "address",
          "name": "account",
          "type": "address"
        }
      ],
      "name": "getRetailerInfo",
      "outputs": [
        {
          "internalType": "string",
          "name": "name",
          "type": "string"
        },
        {
          "internalType": "string",
          "name": "realAddress",
          "type": "string"
        }
      ],
      "stateMutability": "view",
      "type": "function"
    },
    {
      "inputs": [],
      "name": "getRetailerProductCount",
      "outputs": [
        {
          "internalType": "uint256",
          "name": "",
          "type": "uint256"
        }
      ],
      "stateMutability": "view",
      "type": "function"
    },
    {
      "inputs": [
        {
          "internalType": "address",
          "name": "account",
          "type": "address"
        }
      ],
      "name": "isCustomer",
      "outputs": [
        {
          "internalType": "bool",
          "name": "",
          "type": "bool"
        }
      ],
      "stateMutability": "view",
      "type": "function"
    },
    {
      "inputs": [
        {
          "internalType": "address",
          "name": "account",
          "type": "address"
        }
      ],
      "name": "isDistributor",
      "outputs": [
        {
          "internalType": "bool",
          "name": "",
          "type": "bool"
        }
      ],
      "stateMutability": "view",
      "type": "function"
    },
    {
      "inputs": [
        {
          "internalType": "address",
          "name": "account",
          "type": "address"
        }
      ],
      "name": "isFarmer",
      "outputs": [
        {
          "internalType": "bool",
          "name": "",
          "type": "bool"
        }
      ],
      "stateMutability": "view",
      "type": "function"
    },
    {
      "inputs": [
        {
          "internalType": "address",
          "name": "account",
          "type": "address"
        }
      ],
      "name": "isRetailer",
      "outputs": [
        {
          "internalType": "bool",
          "name": "",
          "type": "bool"
        }
      ],
      "stateMutability": "view",
      "type": "function"
    },
    {
      "inputs": [],
      "name": "owner",
      "outputs": [
        {
          "internalType": "address",
          "name": "",
          "type": "address"
        }
      ],
      "stateMutability": "view",
      "type": "function"
    },
    {
      "inputs": [
        {
          "internalType": "string",
          "name": "productName",
          "type": "string"
        },
        {
          "internalType": "uint256",
          "name": "productPrice",
          "type": "uint256"
        },
        {
          "internalType": "uint256",
          "name": "productCode",
          "type": "uint256"
        }
      ],
      "name": "produceProduct",
      "outputs": [],
      "stateMutability": "nonpayable",
      "type": "function"
    },
    {
      "inputs": [
        {
          "internalType": "uint256",
          "name": "_uid",
          "type": "uint256"
        }
      ],
      "name": "purchaseByCustomer",
      "outputs": [],
      "stateMutability": "nonpayable",
      "type": "function"
    },
    {
      "inputs": [
        {
          "internalType": "uint256",
          "name": "_uid",
          "type": "uint256"
        }
      ],
      "name": "purchaseByDistributor",
      "outputs": [],
      "stateMutability": "nonpayable",
      "type": "function"
    },
    {
      "inputs": [
        {
          "internalType": "uint256",
          "name": "_uid",
          "type": "uint256"
        }
      ],
      "name": "purchaseByRetailer",
      "outputs": [],
      "stateMutability": "nonpayable",
      "type": "function"
    },
    {
      "inputs": [
        {
          "internalType": "uint256",
          "name": "_uid",
          "type": "uint256"
        }
      ],
      "name": "receiveByCustomer",
      "outputs": [],
      "stateMutability": "nonpayable",
      "type": "function"
    },
    {
      "inputs": [
        {
          "internalType": "uint256",
          "name": "_uid",
          "type": "uint256"
        }
      ],
      "name": "receiveByDistributor",
      "outputs": [],
      "stateMutability": "nonpayable",
      "type": "function"
    },
    {
      "inputs": [
        {
          "internalType": "uint256",
          "name": "_uid",
          "type": "uint256"
        }
      ],
      "name": "receiveByRetailer",
      "outputs": [],
      "stateMutability": "nonpayable",
      "type": "function"
    },
    {
      "inputs": [],
      "name": "renounceCustomer",
      "outputs": [],
      "stateMutability": "nonpayable",
      "type": "function"
    },
    {
      "inputs": [],
      "name": "renounceDistributor",
      "outputs": [],
      "stateMutability": "nonpayable",
      "type": "function"
    },
    {
      "inputs": [],
      "name": "renounceFarmer",
      "outputs": [],
      "stateMutability": "nonpayable",
      "type": "function"
    },
    {
      "inputs": [],
      "name": "renounceOwnership",
      "outputs": [],
      "stateMutability": "nonpayable",
      "type": "function"
    },
    {
      "inputs": [],
      "name": "renounceRetailer",
      "outputs": [],
      "stateMutability": "nonpayable",
      "type": "function"
    },
    {
      "inputs": [
        {
          "internalType": "uint256",
          "name": "_uid",
          "type": "uint256"
        }
      ],
      "name": "shipByDistributor",
      "outputs": [],
      "stateMutability": "nonpayable",
      "type": "function"
    },
    {
      "inputs": [
        {
          "internalType": "uint256",
          "name": "_uid",
          "type": "uint256"
        }
      ],
      "name": "shipByFarmer",
      "outputs": [],
      "stateMutability": "nonpayable",
      "type": "function"
    },
    {
      "inputs": [
        {
          "internalType": "uint256",
          "name": "_uid",
          "type": "uint256"
        }
      ],
      "name": "shipByRetailer",
      "outputs": [],
      "stateMutability": "nonpayable",
      "type": "function"
    },
    {
      "inputs": [
        {
          "internalType": "address",
          "name": "newOwner",
          "type": "address"
        }
      ],
      "name": "transferOwnership",
      "outputs": [],
      "stateMutability": "nonpayable",
      "type": "function"
    },
    {
      "inputs": [],
      "name": "uid",
      "outputs": [
        {
          "internalType": "uint256",
          "name": "",
          "type": "uint256"
        }
      ],
      "stateMutability": "view",
      "type": "function"
    }
  ],
  "bytecode": "0x6080604081905260008054336001600160a01b0319821681178355916001600160a01b03909116907f8be0079c531659141344cd1fd0a4f28419497f9722a3daafe3b4186f6b6457e09080a36001600a556001600955612ca290816100628239f3fe608060405260048036101561001357600080fd5b6000803560e01c806302d82c551461210e5780630b686b80146120905780630c349cd91461202a5780630fe7175114611f455780631dd0db8014611f1b57806327491e7314611e7657806328fd5e8314611e3f5780632a4af44014611c4a5780632acd8ae114611b905780632fb32c2b14611b6a5780633a99825214611a795780633d136f4514611a205780635da09b88146119e95780635ddc949c146118db578063644241db1461186b5780636a432a851461179c578063715018a6146117545780637217eb2e1461169a57806372df397e146115c257806373bf8ac2146115685780637a2786c3146113b15780637f97b6fc1461138757806380fc0ce41461132f578063857ddb041461113857806386679a66146110505780638d691adf14610fea5780638da5cb5b14610fc35780638f0c86fa14610f8c57806390d75b3714610ed5578063947f34a014610e94578063ac98e6db14610e24578063ad973d7414610c02578063b942906914610bbf578063ba0da46a14610af2578063baf6430d14610a1a578063bf94060f146109aa578063ca25e2b214610980578063cf86dee7146108cb578063d6a3945814610808578063d77e773e14610792578063db0e6a2f14610722578063deba0c371461062f578063e9bf6b4c146103fb578063f2fde38b1461034b578063f514ce361461032d5763f709990e1461021857600080fd5b3461032a5760209182600319360112610326576001600160401b0381358181116103225761024990369084016122ba565b933384528281526040842092855192831161030f57506102738261026d8554612488565b856124c2565b80601f83116001146102ad57508394829394926102a2575b50508160011b916000199060031b1c191617905580f35b01519050388061028b565b90601f198316958486528286209286905b8882106102f7575050836001959697106102de575b505050811b01905580f35b015160001960f88460031b161c191690553880806102d3565b806001859682949686015181550195019301906102be565b634e487b7160e01b855260419052602484fd5b8380fd5b5080fd5b80fd5b503461032a578060031936011261032a576020600954604051908152f35b50903461032657602036600319011261032657610366612315565b61036e61240c565b6001600160a01b039081169182156103a8575082546001600160a01b031981168317845516600080516020612c4d8339815191528380a380f35b60849060206040519162461bcd60e51b8352820152602660248201527f4f776e61626c653a206e6577206f776e657220697320746865207a65726f206160448201526564647265737360d01b6064820152fd5b5090346103265761040b3661232b565b9061041793929361240c565b6001600160a01b03841693841561062b5761043190612c29565b61062757838552600160208181526040808820805460ff191684179055600282528720835192946001600160401b0394929390928582116106145781906104828261047c8654612488565b866124c2565b8590601f83116001146105b5578b926105aa575b5050600019600383901b1c191690861b1790555b8587526002825283604088200194815193841161059757506104d6836104d08754612488565b876124c2565b81601f841160011461053457509282939183928894610529575b50501b916000199060031b1c19161790555b7f2e0ded4123377a3c2bc9a26f1717655a129e2f20752924d42e730ec89c83dbd08280a280f35b0151925038806104f0565b919083601f198116878a52848a20948a905b8883831061057d5750505010610564575b505050811b019055610502565b015160001960f88460031b161c19169055388080610557565b858701518855909601959485019487935090810190610546565b634e487b7160e01b885260419052602487fd5b015190503880610496565b848c52868c208994509190601f1984168d5b898282106105fe57505084116105e5575b505050811b0190556104aa565b015160001960f88460031b161c191690553880806105d8565b8385015186558c979095019493840193016105c7565b634e487b7160e01b8a526041885260248afd5b8480fd5b8580fd5b5090346103265760208060031936011261071e576001600160401b0382358181116106275761066190369085016122ba565b913385526006815260019283604087200194815193841161070b575061068b836104d08754612488565b81601f84116001146106c4575092829391839287946106b9575b50501b916000199060031b1c191617905580f35b0151925038806106a5565b919083601f1981168789528489209489905b888383106106f157505050106102de57505050811b01905580f35b8587015188559096019594850194879350908101906106d6565b634e487b7160e01b875260419052602486fd5b8280fd5b503461032a578060031936011261032a57331561032a5760ff61074433612b7d565b54161561032a5761075433612be3565b1561032a5761076233612b7d565b805460ff19169055337fdb7176e79cffef81cb01767dd0447a0b24bb72ca9778d4b245581086b2a7e6db8280a280f35b503461032a578060031936011261032a5733815260206008815260026040832001916040518092808554928381520194835280832092905b8282106107f1576107ed856107e181890382612297565b604051918291826121f4565b0390f35b8354865294850194600193840193909101906107ca565b5090346103265760208060031936011261071e5781359161082833612c29565b1561032257828452600b825260ff600260408620015460a01c1690600a8210156108b8575060010361071e57818352600b8082526040808520600201805460ff60a01b1916600160a11b179055600c835280852091835284207fe6ae062d51064ae2a5a31a72fcb1bee1d343fdc6bddc1d3dfce658ece4f0321293916108ae9190612893565b604051908152a180f35b634e487b7160e01b855260219052602484fd5b5090346103265760208060031936011261071e578135916108eb33612bc0565b1561032257828452600b825260ff600260408620015460a01c16600a81101561096d570361071e57818352600b8082526040808520600201805460ff60a01b1916600560a01b179055600c835280852091835284207fc5c33776d405e5686e4386e1ef31a65cf6195e4f7ceb8808ab64d05b6ccbc2a693916108ae9190612893565b634e487b7160e01b855260218252602485fd5b503461032a578060031936011261032a576002604060209233815260068452200154604051908152f35b503461032a57602036600319011261032a576109c4612315565b6001600160a01b03811690811561071e576109e060ff91612b7d565b5416156103265781526006602052610a0a610a0460016040808520942001926129a7565b916129a7565b906107ed604051928392836123e7565b5090346103265760208060031936011261071e57813591610a3a33612be3565b1561032257828452600b825260ff600260408620015460a01c1690600a8210156108b8575060050361071e57817f322f34e90f2269750b3e28178631d975cc678db36f21098fe548b7f755ce0bd0928452600b8252600260408520013360018060a01b031982541617905533845260068252610abc8160026040872001612b97565b808452600b8083526040808620600201805460ff60a01b1916600360a11b179055600c845280862091845285206108ae91612893565b503461032a5760209182600319360112610326576001600160401b03813581811161032257610b2490369084016122ba565b93338452600681526040842092855192831161030f5750610b498261026d8554612488565b80601f8311600114610b7757508394829394926102a25750508160011b916000199060031b1c191617905580f35b90601f198316958486528286209286905b888210610ba7575050836001959697106102de57505050811b01905580f35b80600185968294968601518155019501930190610b88565b503461032a57602036600319011261032a57610bd9612315565b906001600160a01b0382161561032a57602060ff610bf684612b2f565b54166040519015158152f35b509034610326576020908160031936011261071e57610c1f612315565b91610c2861240c565b604051610c348161227c565b84815260405191610c448361227c565b8583526001600160a01b038516948515610e2057610c6190612c06565b61062b578486526007815260408620926001938460ff198254161790556008825260408720835160018060401b0394858211610614578190610ca78261047c8654612488565b8590601f8311600114610dc1578b92610db6575b5050600019600383901b1c191690861b1790555b858752600882528360408820019481519384116105975750610cf5836104d08754612488565b81601f8411600114610d5357509282939183928894610d48575b50501b916000199060031b1c19161790555b7fcd118a02bd36f224f6f1b93812f78d2bbc2c2dc1bc0f60c176e3b4fe09f1483f8280a280f35b015192503880610d0f565b919083601f198116878a52848a20948a905b88838310610d9c5750505010610d83575b505050811b019055610d21565b015160001960f88460031b161c19169055388080610d76565b858701518855909601959485019487935090810190610d65565b015190503880610cbb565b848c52868c208994509190601f1984168d5b89828210610e0a5750508411610df1575b505050811b019055610ccf565b015160001960f88460031b161c19169055388080610de4565b8385015186558c97909501949384019301610dd3565b8680fd5b503461032a578060031936011261032a57331561032a5760ff610e4633612b49565b54161561032a57610e5633612c06565b1561032a57610e6433612b49565b805460ff19169055337fb4c88a9c5cd906354abdd1cc29e4f94c6c4de90754fb80ce51e6a33417bc81b68280a280f35b503461032a578060031936011261032a57331561032a5760ff610eb633612b2f565b54161561032a5760026040602092338152828452200154604051908152f35b5090346103265760208060031936011261071e57813591610ef533612bc0565b1561032257828452600b825260ff600260408620015460a01c1690600a8210156108b8575061071e57818352600b80825260408085206007810180546001600160a01b03191633179055600201805460ff60a01b1916600160a01b179055600c835280852091835284207facd9402b9f9e8c15fa7c1819f8393ca56eb61316cc354fc6ac2150aed3ce793193916108ae9190612893565b503461032a57602036600319011261032a57610fa6612315565b906001600160a01b0382161561032a57602060ff610bf684612b63565b503461032a578060031936011261032a57546040516001600160a01b039091168152602090f35b509034610326578160031936011261032657338252602090815260026040832001916040518092808554928381520194835280832092905b828210611039576107ed856107e181890382612297565b835486529485019460019384019390910190611022565b5090346103265760208060031936011261071e576001600160401b0382358181116106275761108290369085016122ba565b9133156106275760ff61109433612b2f565b541615610627573385526002815260019283604087200194815193841161070b57506110c4836104d08754612488565b81601f84116001146110f1575092829391839287946106b95750501b916000199060031b1c191617905580f35b919083601f1981168789528489209489905b8883831061111e57505050106102de57505050811b01905580f35b858701518855909601959485019487935090810190611103565b509034610326576111483661232b565b9061115493929361240c565b6001600160a01b03841693841561062b5761116e90612be3565b6106275783855260206005815260408620926001938460ff198254161790556006825260408720835160018060401b03948582116106145781906111b68261047c8654612488565b8590601f83116001146112d0578b926112c5575b5050600019600383901b1c191690861b1790555b858752600682528360408820019481519384116105975750611204836104d08754612488565b81601f841160011461126257509282939183928894611257575b50501b916000199060031b1c19161790555b7f71ae26cad02663e3d92efd6ec56031a80d74a20c0ab4183faa8bf262261c9baa8280a280f35b01519250388061121e565b919083601f198116878a52848a20948a905b888383106112ab5750505010611292575b505050811b019055611230565b015160001960f88460031b161c19169055388080611285565b858701518855909601959485019487935090810190611274565b0151905038806111ca565b848c52868c208994509190601f1984168d5b898282106113195750508411611300575b505050811b0190556111de565b015160001960f88460031b161c191690553880806112f3565b8385015186558c979095019493840193016112e2565b503461032a578060031936011261032a5761134933612c29565b1561032a5761135733612b2f565b805460ff19169055337fa5e0f060af304ab17dd418c7927e3da3ae7868189bf387aee09ab179ccc572f28280a280f35b503461032a578060031936011261032a576002604060209233815260088452200154604051908152f35b503461032a57606036600319011261032a5781356001600160401b038111610326576113e090369084016122ba565b6113e933612c29565b15610326576040516113fa8161222f565b8281526020918282018481526040830190858252606084019286845260808501916040519061142882612261565b8888830152886040830152818452600a549052600954938487523390523360a08701528760c08701528760e087015287610100870152606061012087015252602435858251015260406044359151015233156106275760ff61148933612b2f565b54161561062757906114a985923384526002865260026040852001612b97565b526009548352600b82526114c08160408520612516565b6009548352600c825260408320805490600160401b82101561155557906114ec91600182018155612765565b6115435761153d92916114fe91612516565b7fb55ecf2eb9ce3c54a45708010da84a35a897635e97a936f98c9804c5847b4d2260095491604051838152a1611535600a54612797565b600a55612797565b60095580f35b634e487b7160e01b8452838552602484fd5b634e487b7160e01b855260418652602485fd5b503461032a57602036600319011261032a57611582612315565b6001600160a01b03811690811561071e5761159e60ff91612b2f565b5416156103265781526002602052610a0a610a0460016040808520942001926129a7565b5090346103265760208060031936011261071e578135916115e233612c06565b1561032257828452600b825260ff600260408620015460a01c1690600a8210156108b8575060080361071e57817f8a746d5b91a9a334d1abbeee7d031aac6d5c59ea6e982ac06aef4346cce5749e928452600b8252600260408520013360018060a01b0319825416179055338452600882526116648160026040872001612b97565b808452600b8083526040808620600201805460ff60a01b1916600960a01b179055600c845280862091845285206108ae91612893565b5090346103265760208060031936011261071e578135916116ba33612c06565b1561032257828452600b825260ff600260408620015460a01c1690600a8210156108b8575060060361071e57818352600b80825260408085206009810180546001600160a01b03191633179055600201805460ff60a01b1916600760a01b179055600c835280852091835284207ffd054e59d299873fab61a3c67d86d3a139b75dcd5cd82894d8983fc5e2669c8293916108ae9190612893565b503461032a578060031936011261032a5761176d61240c565b80546001600160a01b03198116825581906001600160a01b0316600080516020612c4d8339815191528280a380f35b5090346103265760208060031936011261071e576001600160401b038235818111610627576117ce90369085016122ba565b9133855283815260019283604087200194815193841161070b57506117f7836104d08754612488565b81601f8411600114611824575092829391839287946106b95750501b916000199060031b1c191617905580f35b919083601f1981168789528489209489905b8883831061185157505050106102de57505050811b01905580f35b858701518855909601959485019487935090810190611836565b503461032a578060031936011261032a57331561032a5760ff61188d33612b63565b54161561032a5761189d33612bc0565b1561032a576118ab33612b63565b805460ff19169055337f126174f6cf49c81cdb4a9214c6b8f037bef55b4ec31e4fc776cea2a1c8a88d598280a280f35b5090346103265760203660031901126103265780358252600b6020526040822054156103265761190d60408320612a4b565b9182519160208401519360018060a01b038060408301511693606083015193600a8510156119d65750506080820151928351604085015194602001518360a086015116918460c087015116938560e0880151169561010088015116966101200151986040519b8c9b8c5260208c015260408b015260608a0161198e91612384565b6101808060808b015289016119a2916123a7565b9560a089015260c088015260e08701526101008601526101208501526101408401528281036101608401526107ed916123a7565b634e487b7160e01b825260219052602490fd5b503461032a57602036600319011261032a57611a03612315565b906001600160a01b0382161561032a57602060ff610bf684612b7d565b50903461032657602036600319011261032657611a3b612315565b6001600160a01b03811690811561032257611a5760ff91612b63565b54161561071e578252602052610a0a610a0460016040808520942001926129a7565b503461032a57604036600319011261032a57813560243590808352600b60205260408320541561071e57611aac81612b0e565b82101561071e57611ad191611acb918452600c60205260408420612765565b50612a4b565b60408101516060820151926001600160a01b039182169290600a851015611b57575090818160a06107ed94015116918060c0830151166101208260e085015116926101008501511693015193611b3260405198899889526020890190612384565b60408701526060860152608085015260a084015260e060c084015260e08301906123a7565b634e487b7160e01b815260218652602490fd5b503461032a57602036600319011261032a576020611b888335612b0e565b604051908152f35b5090346103265760208060031936011261071e57813591611bb033612be3565b1561032257828452600b825260ff600260408620015460a01c1690600a8210156108b8575060030361071e57818352600b80825260408085206008810180546001600160a01b03191633179055600201805460ff60a01b1916600160a21b179055600c835280852091835284207faa7352d10146444c3afd9bd7fb0ae56b0a85e81139536bbec3f1f660fddd7be193916108ae9190612893565b50903461032657611c5a3661232b565b90611c6693929361240c565b6001600160a01b03841693841561062b57611c8090612bc0565b6106275783855260206003815260408620926001938460ff1982541617905584825260408720835160018060401b0394858211610614578190611cc78261047c8654612488565b8590601f8311600114611de0578b92611dd5575b5050600019600383901b1c191690861b1790555b8587528482528360408820019481519384116105975750611d14836104d08754612488565b81601f8411600114611d7257509282939183928894611d67575b50501b916000199060031b1c19161790555b7fddbf200aa634dc3fb81cfd68583dd1040d1c751d335e1d86b631bde3e977fea88280a280f35b015192503880611d2e565b919083601f198116878a52848a20948a905b88838310611dbb5750505010611da2575b505050811b019055611d40565b015160001960f88460031b161c19169055388080611d95565b858701518855909601959485019487935090810190611d84565b015190503880611cdb565b848c52868c208994509190601f1984168d5b89828210611e295750508411611e10575b505050811b019055611cef565b015160001960f88460031b161c19169055388080611e03565b8385015186558c97909501949384019301611df2565b503461032a57602036600319011261032a57611e59612315565b906001600160a01b0382161561032a57602060ff610bf684612b49565b5090346103265760208060031936011261071e57813591611e9633612be3565b1561032257828452600b825260ff600260408620015460a01c1690600a8210156108b8575060070361071e57818352600b8082526040808520600201805460ff60a01b1916600160a31b179055600c835280852091835284207e114a6fadb43e05c82c84612f44de7a592a32426b619579ae7bb4f3815616c793916108ae9190612893565b50903461032657816003193601126103265760406020926002923382528452200154604051908152f35b503461032a5760209182600319360112610326576001600160401b03813581811161032257611f7790369084016122ba565b9333156103225760ff611f8933612b2f565b54161561032257338452600281526040842092855192831161030f5750611fb48261026d8554612488565b80601f8311600114611fe257508394829394926102a25750508160011b916000199060031b1c191617905580f35b90601f198316958486528286209286905b888210612012575050836001959697106102de57505050811b01905580f35b80600185968294968601518155019501930190611ff3565b503461032a578060031936011261032a5733815260206006815260026040832001916040518092808554928381520194835280832092905b828210612079576107ed856107e181890382612297565b835486529485019460019384019390910190612062565b503461032a578060031936011261032a57331561032a5760ff6120b233612b2f565b54161561032a5733815260206002815260026040832001916040518092808554928381520194835280832092905b8282106120f7576107ed856107e181890382612297565b8354865294850194600193840193909101906120e0565b5090346103265760208060031936011261071e57813561212d33612bc0565b1561032257808452600b825260ff600260408620015460a01c16600a8110156121e157600203610322577fc8ca2150e6e1849a10ef5aa4932060fa353bcacdffeb150c9e1890c6ab9403cc92818552600b8352600260408620013360018060a01b031982541617905533855282526121ab8160026040872001612b97565b808452600b8083526040808620600201805460ff60a01b1916600360a01b179055600c845280862091845285206108ae91612893565b634e487b7160e01b855260218452602485fd5b6020908160408183019282815285518094520193019160005b82811061221b575050505090565b83518552938101939281019260010161220d565b61014081019081106001600160401b0382111761224b57604052565b634e487b7160e01b600052604160045260246000fd5b606081019081106001600160401b0382111761224b57604052565b602081019081106001600160401b0382111761224b57604052565b601f909101601f19168101906001600160401b0382119082101761224b57604052565b81601f82011215612310578035906001600160401b03821161224b57604051926122ee601f8401601f191660200185612297565b8284526020838301011161231057816000926020809301838601378301015290565b600080fd5b600435906001600160a01b038216820361231057565b6060600319820112612310576004356001600160a01b038116810361231057916001600160401b03602435818111612310578361236a916004016122ba565b9260443591821161231057612381916004016122ba565b90565b90600a8210156123915752565b634e487b7160e01b600052602160045260246000fd5b919082519283825260005b8481106123d3575050826000602080949584010152601f8019910116010190565b6020818301810151848301820152016123b2565b90916123fe612381936040845260408401906123a7565b9160208184039101526123a7565b6000546001600160a01b0316330361242057565b606460405162461bcd60e51b815260206004820152602060248201527f4f776e61626c653a2063616c6c6572206973206e6f7420746865206f776e65726044820152fd5b90600a81101561239157815460ff60a01b191660a09190911b60ff60a01b16179055565b90600182811c921680156124b8575b60208310146124a257565b634e487b7160e01b600052602260045260246000fd5b91607f1691612497565b90601f81116124d057505050565b600091825260208220906020601f850160051c8301941061250c575b601f0160051c01915b82811061250157505050565b8181556001016124f5565b90925082906124ec565b8151815560208083015160018084019190915560408401516002840180546001600160a01b03199081166001600160a01b039384161782556060870151939590949390929190600a8110156123915761256e91612464565b6080860151805180516001600160401b0396929160038601919088821161224b5761259d8261026d8554612488565b8790601f83116001146126f1579282604093600a9896936101209a98966000926126e6575b5050600019600383901b1c1916908c1b1790555b87810151600486015501516005840155600683018260a08b01511682825416179055600783018260c08b01511682825416179055600883018260e08b0151168282541617905560098301916101008a0151169082541617905501940151805192831161224b5761264a836104d08754612488565b81601f84116001146126835750928293918392600094612678575b50501b916000199060031b1c1916179055565b015192503880612665565b919083601f1981168760005284600020946000905b888383106126cc57505050106126b3575b505050811b019055565b015160001960f88460031b161c191690553880806126a9565b858701518855909601959485019487935090810190612698565b0151905038806125c2565b8a9291601f19831691856000528a6000209260005b8c82821061274f57505092604095928592600a9b99966101209d9b999610612736575b505050811b0190556125d6565b015160001960f88460031b161c19169055388080612729565b8385015186558f97909501949384019301612706565b805482101561278157600052600b602060002091020190600090565b634e487b7160e01b600052603260045260246000fd5b60001981146127a65760010190565b634e487b7160e01b600052601160045260246000fd5b9080821461288f576127ce8154612488565b906001600160401b03821161224b5781906127ed8261047c8654612488565b600090601f831160011461282457600092612819575b50508160011b916000199060031b1c1916179055565b015490503880612803565b81526020808220858352818320935090601f1985169083905b82821061287657505090846001959493921061285d57505050811b019055565b015460001960f88460031b161c191690553880806126a9565b849581929585015481556001809101960194019061283d565b5050565b8054600160401b81101561224b576128b091600182018155612765565b612991578181036128bf575050565b600a808361296b9454845560018101546001850155600284016002820161290960018060a01b039260ff848454169360018060a01b031994858454161783555460a01c1690612464565b600386016003840180820361296d575b50506006860182600685015416828254161790556007860182600785015416828254161790556008860182600885015416828254161790556009860191600984015416908254161790550191016127bc565b565b612976916127bc565b60048301546004870155600583015460058701553880612919565b634e487b7160e01b600052600060045260246000fd5b90604051918260008254926129bb84612488565b908184526001948581169081600014612a2857506001146129e5575b505061296b92500383612297565b9093915060005260209081600020936000915b818310612a1057505061296b935082010138806129d7565b855488840185015294850194879450918301916129f8565b91505061296b94506020925060ff191682840152151560051b82010138806129d7565b90604051612a588161222f565b825481526001830154602082015260028301546001600160a01b03808216604084015291938492909160a01c60ff16600a8110156123915761012092612b0992600a926060870152604051612aac81612261565b612ab8600384016129a7565b8152600483015460208201526005830154604082015260808701528060068301541660a08701528060078301541660c08701528060088301541660e0870152600982015416610100860152016129a7565b910152565b600052600b6020526040600020541561231057600c60205260406000205490565b6001600160a01b0316600090815260016020526040902090565b6001600160a01b0316600090815260076020526040902090565b6001600160a01b0316600090815260036020526040902090565b6001600160a01b0316600090815260056020526040902090565b805490600160401b82101561224b57600182018082558210156127815760005260206000200155565b6001600160a01b0316801561231057600052600360205260ff6040600020541690565b6001600160a01b0316801561231057600052600560205260ff6040600020541690565b6001600160a01b0316801561231057600052600760205260ff6040600020541690565b6001600160a01b0316801561231057600052600160205260ff604060002054169056fe8be0079c531659141344cd1fd0a4f28419497f9722a3daafe3b4186f6b6457e0a2646970667358221220dc15678cfdaa6d185caae8beae3a0362bd14543673763c4f2b443000ad932b7e64736f6c63430008110033",
  "linkReferences": {},
  "deployedLinkReferences": {}
}