{
  "_format": "hh-sol-artifact-1",
  "contractName": "SupplyChain",
  "sourceName": "Contracts/SupplyChain.sol",
  "abi": [
    {
      "inputs": [],
      "stateMutability": "payable",
      "type": "constructor"
    },
    {
      "anonymous": false,
      "inputs": [
        {
          "indexed": true,
          "internalType": "address",
          "name": "account",
          "type": "address"
        }
      ],
      "name": "CustomerAdded",
      "type": "event"
    },
    {
      "anonymous": false,
      "inputs": [
        {
          "indexed": true,
          "internalType": "address",
          "name": "account",
          "type": "address"
        }
      ],
      "name": "CustomerRemoved",
      "type": "event"
    },
    {
      "anonymous": false,
      "inputs": [
        {
          "indexed": true,
          "internalType": "address",
          "name": "account",
          "type": "address"
        }
      ],
      "name": "DistributorAdded",
      "type": "event"
    },
    {
      "anonymous": false,
      "inputs": [
        {
          "indexed": true,
          "internalType": "address",
          "name": "account",
          "type": "address"
        }
      ],
      "name": "DistributorRemoved",
      "type": "event"
    },
    {
      "anonymous": false,
      "inputs": [
        {
          "indexed": true,
          "internalType": "address",
          "name": "account",
          "type": "address"
        }
      ],
      "name": "FarmerAdded",
      "type": "event"
    },
    {
      "anonymous": false,
      "inputs": [
        {
          "indexed": true,
          "internalType": "address",
          "name": "account",
          "type": "address"
        }
      ],
      "name": "FarmerRemoved",
      "type": "event"
    },
    {
      "anonymous": false,
      "inputs": [
        {
          "indexed": true,
          "internalType": "address",
          "name": "previousOwner",
          "type": "address"
        },
        {
          "indexed": true,
          "internalType": "address",
          "name": "newOwner",
          "type": "address"
        }
      ],
      "name": "OwnershipTransferred",
      "type": "event"
    },
    {
      "anonymous": false,
      "inputs": [
        {
          "indexed": false,
          "internalType": "uint256",
          "name": "uid",
          "type": "uint256"
        }
      ],
      "name": "ProducedByFarmer",
      "type": "event"
    },
    {
      "anonymous": false,
      "inputs": [
        {
          "indexed": false,
          "internalType": "uint256",
          "name": "uid",
          "type": "uint256"
        }
      ],
      "name": "PurchasedByCustomer",
      "type": "event"
    },
    {
      "anonymous": false,
      "inputs": [
        {
          "indexed": false,
          "internalType": "uint256",
          "name": "uid",
          "type": "uint256"
        }
      ],
      "name": "PurchasedByDistributor",
      "type": "event"
    },
    {
      "anonymous": false,
      "inputs": [
        {
          "indexed": false,
          "internalType": "uint256",
          "name": "uid",
          "type": "uint256"
        }
      ],
      "name": "PurchasedByRetailer",
      "type": "event"
    },
    {
      "anonymous": false,
      "inputs": [
        {
          "indexed": false,
          "internalType": "uint256",
          "name": "uid",
          "type": "uint256"
        }
      ],
      "name": "ReceivedByCustomer",
      "type": "event"
    },
    {
      "anonymous": false,
      "inputs": [
        {
          "indexed": false,
          "internalType": "uint256",
          "name": "uid",
          "type": "uint256"
        }
      ],
      "name": "ReceivedByDistributor",
      "type": "event"
    },
    {
      "anonymous": false,
      "inputs": [
        {
          "indexed": false,
          "internalType": "uint256",
          "name": "uid",
          "type": "uint256"
        }
      ],
      "name": "ReceivedByRetailer",
      "type": "event"
    },
    {
      "anonymous": false,
      "inputs": [
        {
          "indexed": true,
          "internalType": "address",
          "name": "account",
          "type": "address"
        }
      ],
      "name": "RetailerAdded",
      "type": "event"
    },
    {
      "anonymous": false,
      "inputs": [
        {
          "indexed": true,
          "internalType": "address",
          "name": "account",
          "type": "address"
        }
      ],
      "name": "RetailerRemoved",
      "type": "event"
    },
    {
      "anonymous": false,
      "inputs": [
        {
          "indexed": false,
          "internalType": "uint256",
          "name": "uid",
          "type": "uint256"
        }
      ],
      "name": "ShippedByDistributor",
      "type": "event"
    },
    {
      "anonymous": false,
      "inputs": [
        {
          "indexed": false,
          "internalType": "uint256",
          "name": "uid",
          "type": "uint256"
        }
      ],
      "name": "ShippedByFarmer",
      "type": "event"
    },
    {
      "anonymous": false,
      "inputs": [
        {
          "indexed": false,
          "internalType": "uint256",
          "name": "uid",
          "type": "uint256"
        }
      ],
      "name": "ShippedByRetailer",
      "type": "event"
    },
    {
      "inputs": [
        {
          "internalType": "address",
          "name": "account",
          "type": "address"
        },
        {
          "internalType": "string",
          "name": "name",
          "type": "string"
        },
        {
          "internalType": "string",
          "name": "realAddress",
          "type": "string"
        }
      ],
      "name": "addCustomer",
      "outputs": [],
      "stateMutability": "nonpayable",
      "type": "function"
    },
    {
      "inputs": [
        {
          "internalType": "address",
          "name": "account",
          "type": "address"
        },
        {
          "internalType": "string",
          "name": "name",
          "type": "string"
        },
        {
          "internalType": "string",
          "name": "realAddress",
          "type": "string"
        }
      ],
      "name": "addDistributor",
      "outputs": [],
      "stateMutability": "nonpayable",
      "type": "function"
    },
    {
      "inputs": [
        {
          "internalType": "address",
          "name": "account",
          "type": "address"
        },
        {
          "internalType": "string",
          "name": "name",
          "type": "string"
        },
        {
          "internalType": "string",
          "name": "realAddress",
          "type": "string"
        }
      ],
      "name": "addFarmer",
      "outputs": [],
      "stateMutability": "nonpayable",
      "type": "function"
    },
    {
      "inputs": [
        {
          "internalType": "address",
          "name": "account",
          "type": "address"
        },
        {
          "internalType": "string",
          "name": "name",
          "type": "string"
        },
        {
          "internalType": "string",
          "name": "realAddress",
          "type": "string"
        }
      ],
      "name": "addRetailer",
      "outputs": [],
      "stateMutability": "nonpayable",
      "type": "function"
    },
    {
      "inputs": [
        {
          "internalType": "string",
          "name": "name",
          "type": "string"
        }
      ],
      "name": "changeDistributorName",
      "outputs": [],
      "stateMutability": "nonpayable",
      "type": "function"
    },
    {
      "inputs": [
        {
          "internalType": "string",
          "name": "realAddress",
          "type": "string"
        }
      ],
      "name": "changeDistributorRealAddress",
      "outputs": [],
      "stateMutability": "nonpayable",
      "type": "function"
    },
    {
      "inputs": [
        {
          "internalType": "string",
          "name": "name",
          "type": "string"
        }
      ],
      "name": "changeFarmerName",
      "outputs": [],
      "stateMutability": "nonpayable",
      "type": "function"
    },
    {
      "inputs": [
        {
          "internalType": "string",
          "name": "realAddress",
          "type": "string"
        }
      ],
      "name": "changeFarmerRealAddress",
      "outputs": [],
      "stateMutability": "nonpayable",
      "type": "function"
    },
    {
      "inputs": [
        {
          "internalType": "string",
          "name": "name",
          "type": "string"
        }
      ],
      "name": "changeRetailerName",
      "outputs": [],
      "stateMutability": "nonpayable",
      "type": "function"
    },
    {
      "inputs": [
        {
          "internalType": "string",
          "name": "realAddress",
          "type": "string"
        }
      ],
      "name": "changeRetailerRealAddress",
      "outputs": [],
      "stateMutability": "nonpayable",
      "type": "function"
    },
    {
      "inputs": [
        {
          "internalType": "address",
          "name": "account",
          "type": "address"
        }
      ],
      "name": "getAllCustomerProduct",
      "outputs": [
        {
          "internalType": "uint256[]",
          "name": "",
          "type": "uint256[]"
        }
      ],
      "stateMutability": "view",
      "type": "function"
    },
    {
      "inputs": [
        {
          "internalType": "address",
          "name": "account",
          "type": "address"
        }
      ],
      "name": "getAllDistributorProduct",
      "outputs": [
        {
          "internalType": "uint256[]",
          "name": "",
          "type": "uint256[]"
        }
      ],
      "stateMutability": "view",
      "type": "function"
    },
    {
      "inputs": [
        {
          "internalType": "address",
          "name": "account",
          "type": "address"
        }
      ],
      "name": "getAllFarmerProduct",
      "outputs": [
        {
          "internalType": "uint256[]",
          "name": "",
          "type": "uint256[]"
        }
      ],
      "stateMutability": "view",
      "type": "function"
    },
    {
      "inputs": [
        {
          "internalType": "enum Structure.State",
          "name": "state_",
          "type": "uint8"
        }
      ],
      "name": "getAllProductByState",
      "outputs": [
        {
          "internalType": "uint256[]",
          "name": "",
          "type": "uint256[]"
        }
      ],
      "stateMutability": "view",
      "type": "function"
    },
    {
      "inputs": [
        {
          "internalType": "address",
          "name": "account",
          "type": "address"
        }
      ],
      "name": "getAllRetailerProduct",
      "outputs": [
        {
          "internalType": "uint256[]",
          "name": "",
          "type": "uint256[]"
        }
      ],
      "stateMutability": "view",
      "type": "function"
    },
    {
      "inputs": [],
      "name": "getCustomerProductCount",
      "outputs": [
        {
          "internalType": "uint256",
          "name": "",
          "type": "uint256"
        }
      ],
      "stateMutability": "view",
      "type": "function"
    },
    {
      "inputs": [
        {
          "internalType": "address",
          "name": "account",
          "type": "address"
        }
      ],
      "name": "getDistributorInfo",
      "outputs": [
        {
          "internalType": "string",
          "name": "name",
          "type": "string"
        },
        {
          "internalType": "string",
          "name": "realAddress",
          "type": "string"
        }
      ],
      "stateMutability": "view",
      "type": "function"
    },
    {
      "inputs": [],
      "name": "getDistributorProductCount",
      "outputs": [
        {
          "internalType": "uint256",
          "name": "",
          "type": "uint256"
        }
      ],
      "stateMutability": "view",
      "type": "function"
    },
    {
      "inputs": [
        {
          "internalType": "address",
          "name": "account",
          "type": "address"
        }
      ],
      "name": "getFarmerInfo",
      "outputs": [
        {
          "internalType": "string",
          "name": "name",
          "type": "string"
        },
        {
          "internalType": "string",
          "name": "realAddress",
          "type": "string"
        }
      ],
      "stateMutability": "view",
      "type": "function"
    },
    {
      "inputs": [],
      "name": "getFarmerProductCount",
      "outputs": [
        {
          "internalType": "uint256",
          "name": "",
          "type": "uint256"
        }
      ],
      "stateMutability": "view",
      "type": "function"
    },
    {
      "inputs": [
        {
          "internalType": "uint256",
          "name": "_uid",
          "type": "uint256"
        }
      ],
      "name": "getProductDetail",
      "outputs": [
        {
          "internalType": "uint256",
          "name": "productUid",
          "type": "uint256"
        },
        {
          "internalType": "uint256",
          "name": "productSku",
          "type": "uint256"
        },
        {
          "internalType": "address",
          "name": "productOwner",
          "type": "address"
        },
        {
          "internalType": "enum Structure.State",
          "name": "productState",
          "type": "uint8"
        },
        {
          "internalType": "string",
          "name": "productName",
          "type": "string"
        },
        {
          "internalType": "uint256",
          "name": "productPrice",
          "type": "uint256"
        },
        {
          "internalType": "uint256",
          "name": "productCode",
          "type": "uint256"
        },
        {
          "internalType": "address",
          "name": "farmer",
          "type": "address"
        },
        {
          "internalType": "address",
          "name": "distributor",
          "type": "address"
        },
        {
          "internalType": "address",
          "name": "retailer",
          "type": "address"
        },
        {
          "internalType": "address",
          "name": "customer",
          "type": "address"
        },
        {
          "internalType": "uint256",
          "name": "stateChangeTimestamp",
          "type": "uint256"
        }
      ],
      "stateMutability": "view",
      "type": "function"
    },
    {
      "inputs": [
        {
          "internalType": "uint256",
          "name": "_uid",
          "type": "uint256"
        },
        {
          "internalType": "uint256",
          "name": "i",
          "type": "uint256"
        }
      ],
      "name": "getProductHistory",
      "outputs": [
        {
          "internalType": "address",
          "name": "productOwner",
          "type": "address"
        },
        {
          "internalType": "enum Structure.State",
          "name": "productState",
          "type": "uint8"
        },
        {
          "internalType": "address",
          "name": "farmer",
          "type": "address"
        },
        {
          "internalType": "address",
          "name": "distributor",
          "type": "address"
        },
        {
          "internalType": "address",
          "name": "retailer",
          "type": "address"
        },
        {
          "internalType": "address",
          "name": "customer",
          "type": "address"
        },
        {
          "internalType": "uint256",
          "name": "stateChangeTimestamp",
          "type": "uint256"
        }
      ],
      "stateMutability": "view",
      "type": "function"
    },
    {
      "inputs": [
        {
          "internalType": "uint256",
          "name": "_uid",
          "type": "uint256"
        }
      ],
      "name": "getProductHistoryLength",
      "outputs": [
        {
          "internalType": "uint256",
          "name": "",
          "type": "uint256"
        }
      ],
      "stateMutability": "view",
      "type": "function"
    },
    {
      "inputs": [
        {
          "internalType": "address",
          "name": "account",
          "type": "address"
        }
      ],
      "name": "getRetailerInfo",
      "outputs": [
        {
          "internalType": "string",
          "name": "name",
          "type": "string"
        },
        {
          "internalType": "string",
          "name": "realAddress",
          "type": "string"
        }
      ],
      "stateMutability": "view",
      "type": "function"
    },
    {
      "inputs": [],
      "name": "getRetailerProductCount",
      "outputs": [
        {
          "internalType": "uint256",
          "name": "",
          "type": "uint256"
        }
      ],
      "stateMutability": "view",
      "type": "function"
    },
    {
      "inputs": [
        {
          "internalType": "address",
          "name": "account",
          "type": "address"
        }
      ],
      "name": "isCustomer",
      "outputs": [
        {
          "internalType": "bool",
          "name": "",
          "type": "bool"
        }
      ],
      "stateMutability": "view",
      "type": "function"
    },
    {
      "inputs": [
        {
          "internalType": "address",
          "name": "account",
          "type": "address"
        }
      ],
      "name": "isDistributor",
      "outputs": [
        {
          "internalType": "bool",
          "name": "",
          "type": "bool"
        }
      ],
      "stateMutability": "view",
      "type": "function"
    },
    {
      "inputs": [
        {
          "internalType": "address",
          "name": "account",
          "type": "address"
        }
      ],
      "name": "isFarmer",
      "outputs": [
        {
          "internalType": "bool",
          "name": "",
          "type": "bool"
        }
      ],
      "stateMutability": "view",
      "type": "function"
    },
    {
      "inputs": [
        {
          "internalType": "address",
          "name": "account",
          "type": "address"
        }
      ],
      "name": "isRetailer",
      "outputs": [
        {
          "internalType": "bool",
          "name": "",
          "type": "bool"
        }
      ],
      "stateMutability": "view",
      "type": "function"
    },
    {
      "inputs": [],
      "name": "owner",
      "outputs": [
        {
          "internalType": "address",
          "name": "",
          "type": "address"
        }
      ],
      "stateMutability": "view",
      "type": "function"
    },
    {
      "inputs": [
        {
          "internalType": "string",
          "name": "productName",
          "type": "string"
        },
        {
          "internalType": "uint256",
          "name": "productPrice",
          "type": "uint256"
        },
        {
          "internalType": "uint256",
          "name": "productCode",
          "type": "uint256"
        }
      ],
      "name": "produceProduct",
      "outputs": [],
      "stateMutability": "nonpayable",
      "type": "function"
    },
    {
      "inputs": [
        {
          "internalType": "uint256",
          "name": "_uid",
          "type": "uint256"
        }
      ],
      "name": "purchaseByCustomer",
      "outputs": [],
      "stateMutability": "nonpayable",
      "type": "function"
    },
    {
      "inputs": [
        {
          "internalType": "uint256",
          "name": "_uid",
          "type": "uint256"
        }
      ],
      "name": "purchaseByDistributor",
      "outputs": [],
      "stateMutability": "nonpayable",
      "type": "function"
    },
    {
      "inputs": [
        {
          "internalType": "uint256",
          "name": "_uid",
          "type": "uint256"
        }
      ],
      "name": "purchaseByRetailer",
      "outputs": [],
      "stateMutability": "nonpayable",
      "type": "function"
    },
    {
      "inputs": [
        {
          "internalType": "uint256",
          "name": "_uid",
          "type": "uint256"
        }
      ],
      "name": "receiveByCustomer",
      "outputs": [],
      "stateMutability": "nonpayable",
      "type": "function"
    },
    {
      "inputs": [
        {
          "internalType": "uint256",
          "name": "_uid",
          "type": "uint256"
        }
      ],
      "name": "receiveByDistributor",
      "outputs": [],
      "stateMutability": "nonpayable",
      "type": "function"
    },
    {
      "inputs": [
        {
          "internalType": "uint256",
          "name": "_uid",
          "type": "uint256"
        }
      ],
      "name": "receiveByRetailer",
      "outputs": [],
      "stateMutability": "nonpayable",
      "type": "function"
    },
    {
      "inputs": [],
      "name": "renounceCustomer",
      "outputs": [],
      "stateMutability": "nonpayable",
      "type": "function"
    },
    {
      "inputs": [],
      "name": "renounceDistributor",
      "outputs": [],
      "stateMutability": "nonpayable",
      "type": "function"
    },
    {
      "inputs": [],
      "name": "renounceFarmer",
      "outputs": [],
      "stateMutability": "nonpayable",
      "type": "function"
    },
    {
      "inputs": [],
      "name": "renounceOwnership",
      "outputs": [],
      "stateMutability": "nonpayable",
      "type": "function"
    },
    {
      "inputs": [],
      "name": "renounceRetailer",
      "outputs": [],
      "stateMutability": "nonpayable",
      "type": "function"
    },
    {
      "inputs": [
        {
          "internalType": "uint256",
          "name": "_uid",
          "type": "uint256"
        }
      ],
      "name": "shipByDistributor",
      "outputs": [],
      "stateMutability": "nonpayable",
      "type": "function"
    },
    {
      "inputs": [
        {
          "internalType": "uint256",
          "name": "_uid",
          "type": "uint256"
        }
      ],
      "name": "shipByFarmer",
      "outputs": [],
      "stateMutability": "nonpayable",
      "type": "function"
    },
    {
      "inputs": [
        {
          "internalType": "uint256",
          "name": "_uid",
          "type": "uint256"
        }
      ],
      "name": "shipByRetailer",
      "outputs": [],
      "stateMutability": "nonpayable",
      "type": "function"
    },
    {
      "inputs": [
        {
          "internalType": "address",
          "name": "newOwner",
          "type": "address"
        }
      ],
      "name": "transferOwnership",
      "outputs": [],
      "stateMutability": "nonpayable",
      "type": "function"
    },
    {
      "inputs": [],
      "name": "uid",
      "outputs": [
        {
          "internalType": "uint256",
          "name": "",
          "type": "uint256"
        }
      ],
      "stateMutability": "view",
      "type": "function"
    }
  ],
  "bytecode": "0x6080604081905260008054336001600160a01b0319821681178355916001600160a01b03909116907f8be0079c531659141344cd1fd0a4f28419497f9722a3daafe3b4186f6b6457e09080a36001600a556001600955612dbf90816100628239f3fe608060405260048036101561001357600080fd5b600090813560e01c90816302d82c55146122ec5781630fe71751146122075781631dd0db80146121dd57816327491e731461213057816328fd5e83146120f95781632a4af44014611f045781632acd8ae114611e425781632fb32c2b14611e1c5781633a99825214611d245781633d136f4514611ccb57816354c90d8914611c3b5781635da09b8814611c045781635ddc949c14611afe578163644241db14611a8e5781636a432a85146119bf578163715018a6146119775781637217eb2e146118b557816372df397e146117d557816373bf8ac21461177b5781637a2786c3146115c15781637f97b6fc1461159757816380fc0ce41461153f57816385755923146114af578163857ddb04146112b857816386679a66146111d05781638b6df557146110be5781638da5cb5b146110975781638f0c86fa1461106057816390d75b3714610fa3578163947f34a014610f62578163ac98e6db14610ef2578163b942906914610eaf578163ba0da46a14610de2578163baf6430d14610d02578163bcb8b23114610b0b578163bf94060f14610a9b578163ca25e2b214610a71578163cf86dee7146109b4578163d40905be14610924578163d6a3945814610859578163db0e6a2f146107e9578163deba0c37146106e1578163e9bf6b4c146104ad578163f2fde38b146103fd578163f514ce36146103df578163f709990e146102d4575063fa018ee31461022657600080fd5b346102d1576020806003193601126102cd576102406124a5565b6001600160a01b0381169081156102c95761025c60ff91612c66565b5416156102c55782526008815260026040832001916040518092808554928381520194835280832092905b8282106102ae576102aa8561029e81890382612427565b6040519182918261259c565b0390f35b835486529485019460019384019390910190610287565b8280fd5b8380fd5b5080fd5b80fd5b82346102d157602091826003193601126102cd576001600160401b0381358181116102c957610306903690840161244a565b93338452828152604084209285519283116103cc57506103308261032a8554612653565b8561268d565b80601f831160011461036a575083948293949261035f575b50508160011b916000199060031b1c191617905580f35b015190508480610348565b90601f198316958486528286209286905b8882106103b45750508360019596971061039b575b505050811b01905580f35b015160001960f88460031b161c19169055848080610390565b8060018596829496860151815501950193019061037b565b634e487b7160e01b855260419052602484fd5b82346102d157806003193601126102d1576020600954604051908152f35b9050346102cd5760203660031901126102cd576104186124a5565b6104206125d7565b6001600160a01b0390811691821561045a575082546001600160a01b031981168317845516600080516020612d6a8339815191528380a380f35b60849060206040519162461bcd60e51b8352820152602660248201527f4f776e61626c653a206e6577206f776e657220697320746865207a65726f206160448201526564647265737360d01b6064820152fd5b9050346102cd576104bd366124bb565b906104c99392936125d7565b6001600160a01b0384169384156106dd576104e390612d46565b6106d957838552600160208181526040808820805460ff191684179055600282528720835192946001600160401b0394929390928582116106c65781906105348261052e8654612653565b8661268d565b8590601f8311600114610667578b9261065c575b5050600019600383901b1c191690861b1790555b858752600282528360408820019481519384116106495750610588836105828754612653565b8761268d565b81601f84116001146105e6575092829391839288946105db575b50501b916000199060031b1c19161790555b7f2e0ded4123377a3c2bc9a26f1717655a129e2f20752924d42e730ec89c83dbd08280a280f35b0151925038806105a2565b919083601f198116878a52848a20948a905b8883831061062f5750505010610616575b505050811b0190556105b4565b015160001960f88460031b161c19169055388080610609565b8587015188559096019594850194879350908101906105f8565b634e487b7160e01b885260419052602487fd5b015190503880610548565b848c52868c208994509190601f1984168d5b898282106106b05750508411610697575b505050811b01905561055c565b015160001960f88460031b161c1916905538808061068a565b8385015186558c97909501949384019301610679565b634e487b7160e01b8a526041885260248afd5b8480fd5b8580fd5b9050346102cd576020806003193601126102c5576001600160401b0382358181116106d957610713903690850161244a565b91338552600681526001928360408720019481519384116107d6575061073d836105828754612653565b81601f84116001146107765750928293918392879461076b575b50501b916000199060031b1c191617905580f35b015192503880610757565b919083601f1981168789528489209489905b888383106107bc57505050106107a357505050811b01905580f35b015160001960f88460031b161c19169055388080610390565b858701518855909601959485019487935090810190610788565b634e487b7160e01b875260419052602486fd5b82346102d157806003193601126102d15733156102d15760ff61080b33612c9a565b5416156102d15761081b33612d00565b156102d15761082933612c9a565b805460ff19169055337fdb7176e79cffef81cb01767dd0447a0b24bb72ca9778d4b245581086b2a7e6db8280a280f35b9050346102cd576020806003193601126102c55781359161087933612d46565b156102c957828452600b825260ff600260408620015460a01c1690600a82101561091157506001036102c557818352600b808252604080852060028101805460ff60a01b1916600160a11b17905542600a90910155600c835280852091835284207fe6ae062d51064ae2a5a31a72fcb1bee1d343fdc6bddc1d3dfce658ece4f03212939161090791906129a2565b604051908152a180f35b634e487b7160e01b855260219052602484fd5b82346102d1576020806003193601126102cd5761093f6124a5565b6001600160a01b0381169081156102c95761095b60ff91612c4c565b5416156102c55782526002815260026040832001916040518092808554928381520194835280832092905b82821061099d576102aa8561029e81890382612427565b835486529485019460019384019390910190610986565b9050346102cd576020806003193601126102c5578135916109d433612cdd565b156102c957828452600b825260ff600260408620015460a01c16600a811015610a5e57036102c557818352600b808252604080852060028101805460ff60a01b1916600560a01b17905542600a90910155600c835280852091835284207fc5c33776d405e5686e4386e1ef31a65cf6195e4f7ceb8808ab64d05b6ccbc2a6939161090791906129a2565b634e487b7160e01b855260218252602485fd5b82346102d157806003193601126102d1576002604060209233815260068452200154604051908152f35b82346102d15760203660031901126102d157610ab56124a5565b6001600160a01b0381169081156102c557610ad160ff91612c9a565b5416156102cd5781526006602052610afb610af56001604080852094200192612ab3565b91612ab3565b906102aa60405192839283612577565b9050346102cd57610b1b366124bb565b90610b279392936125d7565b6001600160a01b0384169384156106dd57610b4190612d23565b6106d95783855260206007815260408620926001938460ff198254161790556008825260408720835160018060401b03948582116106c6578190610b898261052e8654612653565b8590601f8311600114610ca3578b92610c98575b5050600019600383901b1c191690861b1790555b858752600882528360408820019481519384116106495750610bd7836105828754612653565b81601f8411600114610c3557509282939183928894610c2a575b50501b916000199060031b1c19161790555b7fcd118a02bd36f224f6f1b93812f78d2bbc2c2dc1bc0f60c176e3b4fe09f1483f8280a280f35b015192503880610bf1565b919083601f198116878a52848a20948a905b88838310610c7e5750505010610c65575b505050811b019055610c03565b015160001960f88460031b161c19169055388080610c58565b858701518855909601959485019487935090810190610c47565b015190503880610b9d565b848c52868c208994509190601f1984168d5b89828210610cec5750508411610cd3575b505050811b019055610bb1565b015160001960f88460031b161c19169055388080610cc6565b8385015186558c97909501949384019301610cb5565b9050346102cd576020806003193601126102c557813591610d2233612d00565b156102c957828452600b825260ff600260408620015460a01c1690600a82101561091157506005036102c557817f322f34e90f2269750b3e28178631d975cc678db36f21098fe548b7f755ce0bd0928452600b8252600260408520013360018060a01b031982541617905533845260068252610da48160026040872001612cb4565b808452600b808352604080862060028101805460ff60a01b1916600360a11b17905542600a90910155600c84528086209184528520610907916129a2565b82346102d157602091826003193601126102cd576001600160401b0381358181116102c957610e14903690840161244a565b9333845260068152604084209285519283116103cc5750610e398261032a8554612653565b80601f8311600114610e67575083948293949261035f5750508160011b916000199060031b1c191617905580f35b90601f198316958486528286209286905b888210610e975750508360019596971061039b57505050811b01905580f35b80600185968294968601518155019501930190610e78565b82346102d15760203660031901126102d157610ec96124a5565b906001600160a01b038216156102d157602060ff610ee684612c4c565b54166040519015158152f35b82346102d157806003193601126102d15733156102d15760ff610f1433612c66565b5416156102d157610f2433612d23565b156102d157610f3233612c66565b805460ff19169055337fb4c88a9c5cd906354abdd1cc29e4f94c6c4de90754fb80ce51e6a33417bc81b68280a280f35b82346102d157806003193601126102d15733156102d15760ff610f8433612c4c565b5416156102d15760026040602092338152828452200154604051908152f35b9050346102cd576020806003193601126102c557813591610fc333612cdd565b156102c957828452600b825260ff600260408620015460a01c1690600a82101561091157506102c557818352600b80825260408085206007810180546001600160a01b0319163317905542600a820155600201805460ff60a01b1916600160a01b179055600c835280852091835284207facd9402b9f9e8c15fa7c1819f8393ca56eb61316cc354fc6ac2150aed3ce7931939161090791906129a2565b82346102d15760203660031901126102d15761107a6124a5565b906001600160a01b038216156102d157602060ff610ee684612c80565b82346102d157806003193601126102d157546040516001600160a01b039091168152602090f35b82346102d1576020806003193601126102cd57823590600a908183101593846102d157600954936000198501958587116111bd576110fb87612c35565b966111096040519889612427565b808852611118601f1991612c35565b013685890137829460015b87811061113857604051806102aa8b8261259c565b808552600b8652604085206002015460a01c60ff16836111aa57828110156111aa57841461116f575b61116a906128a5565b611123565b9588518110156111975761118f81888861116a9460051b8d0101526128a5565b969050611161565b634e487b7160e01b855260328a52602485fd5b634e487b7160e01b865260218b52602486fd5b634e487b7160e01b835260118852602483fd5b9050346102cd576020806003193601126102c5576001600160401b0382358181116106d957611202903690850161244a565b9133156106d95760ff61121433612c4c565b5416156106d957338552600281526001928360408720019481519384116107d65750611244836105828754612653565b81601f84116001146112715750928293918392879461076b5750501b916000199060031b1c191617905580f35b919083601f1981168789528489209489905b8883831061129e57505050106107a357505050811b01905580f35b858701518855909601959485019487935090810190611283565b9050346102cd576112c8366124bb565b906112d49392936125d7565b6001600160a01b0384169384156106dd576112ee90612d00565b6106d95783855260206005815260408620926001938460ff198254161790556006825260408720835160018060401b03948582116106c65781906113368261052e8654612653565b8590601f8311600114611450578b92611445575b5050600019600383901b1c191690861b1790555b858752600682528360408820019481519384116106495750611384836105828754612653565b81601f84116001146113e2575092829391839288946113d7575b50501b916000199060031b1c19161790555b7f71ae26cad02663e3d92efd6ec56031a80d74a20c0ab4183faa8bf262261c9baa8280a280f35b01519250388061139e565b919083601f198116878a52848a20948a905b8883831061142b5750505010611412575b505050811b0190556113b0565b015160001960f88460031b161c19169055388080611405565b8587015188559096019594850194879350908101906113f4565b01519050388061134a565b848c52868c208994509190601f1984168d5b898282106114995750508411611480575b505050811b01905561135e565b015160001960f88460031b161c19169055388080611473565b8385015186558c97909501949384019301611462565b9050346102cd57602090816003193601126102c5576114cc6124a5565b6001600160a01b0381169081156106d9576114e860ff91612c80565b5416156102c9578352815260026040832001916040518092808554928381520194835280832092905b828210611528576102aa8561029e81890382612427565b835486529485019460019384019390910190611511565b82346102d157806003193601126102d15761155933612d46565b156102d15761156733612c4c565b805460ff19169055337fa5e0f060af304ab17dd418c7927e3da3ae7868189bf387aee09ab179ccc572f28280a280f35b82346102d157806003193601126102d1576002604060209233815260088452200154604051908152f35b82346102d15760603660031901126102d15781356001600160401b0381116102cd576115f0903690840161244a565b6115f933612d46565b156102cd5760405161160a816123da565b8281526020918282019084825260408301858152606084019186835260808501906040516116378161240c565b8888820152886040820152808352610120870195898752600a549052600954938488523390523360a08801528860c08801528860e08801528861010088015252602435868251015260406044359151015233156106dd5760ff61169933612c4c565b5416156106dd57906116b986923384526002875260026040852001612cb4565b524290526009548352600b82526116d381604085206126e1565b6009548352600c825260408320805490600160401b82101561176857906116ff91600182018155612873565b611756576117509291611711916126e1565b7fb55ecf2eb9ce3c54a45708010da84a35a897635e97a936f98c9804c5847b4d2260095491604051838152a1611748600a546128a5565b600a556128a5565b60095580f35b634e487b7160e01b8452838552602484fd5b634e487b7160e01b855260418652602485fd5b82346102d15760203660031901126102d1576117956124a5565b6001600160a01b0381169081156102c5576117b160ff91612c4c565b5416156102cd5781526002602052610afb610af56001604080852094200192612ab3565b9050346102cd576020806003193601126102c5578135916117f533612d23565b156102c957828452600b825260ff600260408620015460a01c1690600a82101561091157506008036102c557817f8a746d5b91a9a334d1abbeee7d031aac6d5c59ea6e982ac06aef4346cce5749e928452600b8252600260408520013360018060a01b0319825416179055338452600882526118778160026040872001612cb4565b808452600b808352604080862060028101805460ff60a01b1916600960a01b17905542600a90910155600c84528086209184528520610907916129a2565b9050346102cd576020806003193601126102c5578135916118d533612d23565b156102c957828452600b825260ff600260408620015460a01c1690600a82101561091157506006036102c557818352600b80825260408085206009810180546001600160a01b0319163317905560028101805460ff60a01b1916600760a01b17905542600a90910155600c835280852091835284207ffd054e59d299873fab61a3c67d86d3a139b75dcd5cd82894d8983fc5e2669c82939161090791906129a2565b82346102d157806003193601126102d1576119906125d7565b80546001600160a01b03198116825581906001600160a01b0316600080516020612d6a8339815191528280a380f35b9050346102cd576020806003193601126102c5576001600160401b0382358181116106d9576119f1903690850161244a565b913385528381526001928360408720019481519384116107d65750611a1a836105828754612653565b81601f8411600114611a475750928293918392879461076b5750501b916000199060031b1c191617905580f35b919083601f1981168789528489209489905b88838310611a7457505050106107a357505050811b01905580f35b858701518855909601959485019487935090810190611a59565b82346102d157806003193601126102d15733156102d15760ff611ab033612c80565b5416156102d157611ac033612cdd565b156102d157611ace33612c80565b805460ff19169055337f126174f6cf49c81cdb4a9214c6b8f037bef55b4ec31e4fc776cea2a1c8a88d598280a280f35b82346102d15760203660031901126102d15781358152600b6020526040812054156102d157611b2f60408220612b59565b9081519160208101519060018060a01b0380604083015116606083015194600a861015611bf15750602096506080830151948551611bc589604089015198015191611bb48660a089015116948760c08a015116966101208960e08c015116996101008c0151169a01519a6040519e8f9e8f908152015260408d015260608c0190612514565b6101808060808c01528a0190612537565b9660a089015260c088015260e08701526101008601526101208501526101408401526101608301520390f35b634e487b7160e01b815260218852602490fd5b82346102d15760203660031901126102d157611c1e6124a5565b906001600160a01b038216156102d157602060ff610ee684612c9a565b82346102d1576020806003193601126102cd57611c566124a5565b6001600160a01b0381169081156102c957611c7260ff91612c9a565b5416156102c55782526006815260026040832001916040518092808554928381520194835280832092905b828210611cb4576102aa8561029e81890382612427565b835486529485019460019384019390910190611c9d565b9050346102cd5760203660031901126102cd57611ce66124a5565b6001600160a01b0381169081156102c957611d0260ff91612c80565b5416156102c5578252602052610afb610af56001604080852094200192612ab3565b82346102d15760403660031901126102d157813560243590808352600b6020526040832054151580611e11575b156102c557611d5f81612c14565b8210156102c557611d8491611d7e918452600c60205260408420612873565b50612b59565b604081015160608201516001600160a01b039182169390929190600a841015611dfe575060e094508060a0830151168160c08401511690611de36101208489870151169461010087015116950151956040519788526020880190612514565b60408601526060850152608084015260a083015260c0820152f35b634e487b7160e01b815260218652602490fd5b506009548110611d51565b82346102d15760203660031901126102d1576020611e3a8335612c14565b604051908152f35b9050346102cd576020806003193601126102c557813591611e6233612d00565b156102c957828452600b825260ff600260408620015460a01c1690600a82101561091157506003036102c557818352600b80825260408085206008810180546001600160a01b0319163317905560028101805460ff60a01b1916600160a21b17905542600a90910155600c835280852091835284207faa7352d10146444c3afd9bd7fb0ae56b0a85e81139536bbec3f1f660fddd7be1939161090791906129a2565b9050346102cd57611f14366124bb565b90611f209392936125d7565b6001600160a01b0384169384156106dd57611f3a90612cdd565b6106d95783855260206003815260408620926001938460ff1982541617905584825260408720835160018060401b03948582116106c6578190611f818261052e8654612653565b8590601f831160011461209a578b9261208f575b5050600019600383901b1c191690861b1790555b8587528482528360408820019481519384116106495750611fce836105828754612653565b81601f841160011461202c57509282939183928894612021575b50501b916000199060031b1c19161790555b7fddbf200aa634dc3fb81cfd68583dd1040d1c751d335e1d86b631bde3e977fea88280a280f35b015192503880611fe8565b919083601f198116878a52848a20948a905b88838310612075575050501061205c575b505050811b019055611ffa565b015160001960f88460031b161c1916905538808061204f565b85870151885590960195948501948793509081019061203e565b015190503880611f95565b848c52868c208994509190601f1984168d5b898282106120e357505084116120ca575b505050811b019055611fa9565b015160001960f88460031b161c191690553880806120bd565b8385015186558c979095019493840193016120ac565b82346102d15760203660031901126102d1576121136124a5565b906001600160a01b038216156102d157602060ff610ee684612c66565b9050346102cd576020806003193601126102c55781359161215033612d00565b156102c957828452600b825260ff600260408620015460a01c1690600a82101561091157506007036102c557818352600b808252604080852060028101805460ff60a01b1916600160a31b17905542600a90910155600c835280852091835284207e114a6fadb43e05c82c84612f44de7a592a32426b619579ae7bb4f3815616c7939161090791906129a2565b9050346102cd57816003193601126102cd5760406020926002923382528452200154604051908152f35b82346102d157602091826003193601126102cd576001600160401b0381358181116102c957612239903690840161244a565b9333156102c95760ff61224b33612c4c565b5416156102c95733845260028152604084209285519283116103cc57506122768261032a8554612653565b80601f83116001146122a4575083948293949261035f5750508160011b916000199060031b1c191617905580f35b90601f198316958486528286209286905b8882106122d45750508360019596971061039b57505050811b01905580f35b806001859682949686015181550195019301906122b5565b9050346102cd576020806003193601126102c557813561230b33612cdd565b156102c957808452600b825260ff600260408620015460a01c16600a8110156123c7576002036102c9577fc8ca2150e6e1849a10ef5aa4932060fa353bcacdffeb150c9e1890c6ab9403cc92818552600b8352600260408620013360018060a01b031982541617905533855282526123898160026040872001612cb4565b808452600b808352604080862060028101805460ff60a01b1916600360a01b17905542600a90910155600c84528086209184528520610907916129a2565b634e487b7160e01b855260218452602485fd5b61014081019081106001600160401b038211176123f657604052565b634e487b7160e01b600052604160045260246000fd5b606081019081106001600160401b038211176123f657604052565b601f909101601f19168101906001600160401b038211908210176123f657604052565b81601f820112156124a0578035906001600160401b0382116123f6576040519261247e601f8401601f191660200185612427565b828452602083830101116124a057816000926020809301838601378301015290565b600080fd5b600435906001600160a01b03821682036124a057565b60606003198201126124a0576004356001600160a01b03811681036124a057916001600160401b036024358181116124a057836124fa9160040161244a565b926044359182116124a0576125119160040161244a565b90565b90600a8210156125215752565b634e487b7160e01b600052602160045260246000fd5b919082519283825260005b848110612563575050826000602080949584010152601f8019910116010190565b602081830181015184830182015201612542565b909161258e61251193604084526040840190612537565b916020818403910152612537565b6020908160408183019282815285518094520193019160005b8281106125c3575050505090565b8351855293810193928101926001016125b5565b6000546001600160a01b031633036125eb57565b606460405162461bcd60e51b815260206004820152602060248201527f4f776e61626c653a2063616c6c6572206973206e6f7420746865206f776e65726044820152fd5b90600a81101561252157815460ff60a01b191660a09190911b60ff60a01b16179055565b90600182811c92168015612683575b602083101461266d57565b634e487b7160e01b600052602260045260246000fd5b91607f1691612662565b90601f811161269b57505050565b600091825260208220906020601f850160051c830194106126d7575b601f0160051c01915b8281106126cc57505050565b8181556001016126c0565b90925082906126b7565b908051825560208082015160019081850155600284019060018060a01b0392836040860151169260018060a01b031993848254161781556060860151600a8110156125215761272f9161262f565b60808501518051805191936003890192916001600160401b0383116123f65761275c8361052e8654612653565b8490601f841160011461280057928080600a9b999794604097946101209c9a976000946127f5575b50501b916000199060031b1c19161790555b810151600489015501516005870155600686018260a08501511682825416179055600786018260c08501511682825416179055600886018260e08501511682825416179055600986019161010084015116908254161790550151910155565b015192503880612784565b90601f9392931983169185600052866000209260005b81811061285e5750926101209a9895928592600a9d9b99966040999610612845575b505050811b019055612796565b015160001960f88460031b161c19169055388080612838565b82840151855593860193928801928801612816565b805482101561288f57600052600b602060002091020190600090565b634e487b7160e01b600052603260045260246000fd5b60001981146128b45760010190565b634e487b7160e01b600052601160045260246000fd5b9080821461299e576128dc8154612653565b906001600160401b0382116123f65781906128fb8261052e8654612653565b600090601f831160011461293257600092612927575b50508160011b916000199060031b1c1916179055565b015490503880612911565b81526020808220858352818320935090601f1985169083905b82821061298557505090846001959493921061296c575b505050811b019055565b015460001960f88460031b161c19169055388080612962565b849581929585015481556001809101960194019061294b565b5050565b8054600160401b8110156123f6576129bf91600182018155612873565b919091612a9d578082036129d1575050565b600a818192548455600181015460018501556002840160028201612a1860018060a01b039260ff848454169360018060a01b031994858454161783555460a01c169061262f565b6003860160038401808203612a79575b50506006860182600685015416828254161790556007860182600785015416828254161790556008860182600885015416828254161790556009860191600984015416908254161790550154910155565b612a82916128ca565b60048301546004870155600583015460058701553880612a28565b634e487b7160e01b600052600060045260246000fd5b9060405191826000825492612ac784612653565b908184526001948581169081600014612b365750600114612af3575b5050612af192500383612427565b565b9093915060005260209081600020936000915b818310612b1e575050612af193508201013880612ae3565b85548884018501529485019487945091830191612b06565b915050612af194506020925060ff191682840152151560051b8201013880612ae3565b90604051612b66816123da565b825481526001830154602082015260028301546001600160a01b038082166040840152919384929160a01c60ff1690600a8210156125215761012092600a926060860152604051612bb68161240c565b612bc260038401612ab3565b8152600483015460208201526005830154604082015260808601528060068301541660a08601528060078301541660c08601528060088301541660e08601526009820154166101008501520154910152565b600052600b602052604060002054156124a057600c60205260406000205490565b6001600160401b0381116123f65760051b60200190565b6001600160a01b0316600090815260016020526040902090565b6001600160a01b0316600090815260076020526040902090565b6001600160a01b0316600090815260036020526040902090565b6001600160a01b0316600090815260056020526040902090565b805490600160401b8210156123f6576001820180825582101561288f5760005260206000200155565b6001600160a01b031680156124a057600052600360205260ff6040600020541690565b6001600160a01b031680156124a057600052600560205260ff6040600020541690565b6001600160a01b031680156124a057600052600760205260ff6040600020541690565b6001600160a01b031680156124a057600052600160205260ff604060002054169056fe8be0079c531659141344cd1fd0a4f28419497f9722a3daafe3b4186f6b6457e0a26469706673582212201a931deb7c624545a4005dffa15165bacebf105e0e1f82c156aa1cc08836456c64736f6c63430008110033",
  "linkReferences": {},
  "deployedLinkReferences": {}
}